{
	"data": {
		"bytecode": {
			"linkReferences": {},
			"object": "608060405260006069553480156200001657600080fd5b50600060019054906101000a900460ff16620000415760008054906101000a900460ff161562000052565b620000516200011e60201b60201c565b5b62000094576040517f08c379a00000000000000000000000000000000000000000000000000000000081526004016200008b9062000542565b60405180910390fd5b60008060019054906101000a900460ff161590508015620000e5576001600060016101000a81548160ff02191690831515021790555060016000806101000a81548160ff0219169083151502179055505b620000f56200013c60201b60201c565b8015620001175760008060016101000a81548160ff0219169083151502179055505b5062000669565b60006200013630620002ef60201b620020671760201c565b15905090565b600060019054906101000a900460ff16620001665760008054906101000a900460ff161562000177565b620001766200011e60201b60201c565b5b620001b9576040517f08c379a0000000000000000000000000000000000000000000000000000000008152600401620001b09062000542565b60405180910390fd5b60008060019054906101000a900460ff1615905080156200020a576001600060016101000a81548160ff02191690831515021790555060016000806101000a81548160ff0219169083151502179055505b6200021a6200031260201b60201c565b73d0d5e3db44de05e9f294bb0a3beeaf030de24ada6040516200023d90620004b8565b62000249919062000525565b604051809103906000f08015801562000266573d6000803e3d6000fd5b50606560006101000a81548173ffffffffffffffffffffffffffffffffffffffff021916908373ffffffffffffffffffffffffffffffffffffffff16021790555060636066819055506000606860006101000a81548160ff0219169083151502179055508015620002ec5760008060016101000a81548160ff0219169083151502179055505b50565b6000808273ffffffffffffffffffffffffffffffffffffffff163b119050919050565b600060019054906101000a900460ff1662000364576040517f08c379a00000000000000000000000000000000000000000000000000000000081526004016200035b9062000564565b60405180910390fd5b620003746200037660201b60201c565b565b600060019054906101000a900460ff16620003c8576040517f08c379a0000000000000000000000000000000000000000000000000000000008152600401620003bf9062000564565b60405180910390fd5b620003e8620003dc620003ea60201b60201c565b620003f260201b60201c565b565b600033905090565b6000603360009054906101000a900473ffffffffffffffffffffffffffffffffffffffff16905081603360006101000a81548173ffffffffffffffffffffffffffffffffffffffff021916908373ffffffffffffffffffffffffffffffffffffffff1602179055508173ffffffffffffffffffffffffffffffffffffffff168173ffffffffffffffffffffffffffffffffffffffff167f8be0079c531659141344cd1fd0a4f28419497f9722a3daafe3b4186f6b6457e060405160405180910390a35050565b6103af806200478383390190565b620004d18162000597565b82525050565b6000620004e6602e8362000586565b9150620004f382620005cb565b604082019050919050565b60006200050d602b8362000586565b91506200051a826200061a565b604082019050919050565b60006020820190506200053c6000830184620004c6565b92915050565b600060208201905081810360008301526200055d81620004d7565b9050919050565b600060208201905081810360008301526200057f81620004fe565b9050919050565b600082825260208201905092915050565b6000620005a482620005ab565b9050919050565b600073ffffffffffffffffffffffffffffffffffffffff82169050919050565b7f496e697469616c697a61626c653a20636f6e747261637420697320616c72656160008201527f647920696e697469616c697a6564000000000000000000000000000000000000602082015250565b7f496e697469616c697a61626c653a20636f6e7472616374206973206e6f74206960008201527f6e697469616c697a696e67000000000000000000000000000000000000000000602082015250565b61410a80620006796000396000f3fe608060405260043610620001a65760003560e01c80637fcdef0d11620000e5578063db6c613b1162000097578063e89704c7116200006d578063e89704c714620005c4578063ed6449ff14620005f2578063f2fde38b1462000620578063f4eccb8f146200064e57620001a6565b8063db6c613b1462000538578063e083c5761462000566578063e5269c40146200059457620001a6565b80637fcdef0d146200041d5780638129fc1c14620004375780638da5cb5b1462000451578063c2ed2b051462000481578063d3cb5e2814620004c6578063d7a7ca6f146200050a57620001a6565b8063419ad06d116200015d5780636961484711620001335780636961484714620003615780636ce3466114620003a55780636e87fc3414620003d5578063715018a6146200040357620001a6565b8063419ad06d14620002bd5780634d2b197814620002ed57806354a02f9e146200031b57620001a6565b80630c1c5dd214620001ab5780630cc2005014620001db5780630eb8942814620001f5578063280b85111462000239578063353b106f14620002595780633febce851462000279575b600080fd5b348015620001b857600080fd5b50620001c362000692565b604051620001d29190620032c0565b60405180910390f35b348015620001e857600080fd5b50620001f362000698565b005b3480156200020257600080fd5b506200022160048036038101906200021b9190620026be565b620007ab565b60405162000230919062003022565b60405180910390f35b620002576004803603810190620002519190620027fa565b62000877565b005b620002776004803603810190620002719190620026be565b62000aae565b005b3480156200028657600080fd5b50620002a560048036038101906200029f9190620026be565b62000bb5565b604051620002b4919062003022565b60405180910390f35b348015620002ca57600080fd5b50620002d562000be3565b604051620002e4919062002f1c565b60405180910390f35b348015620002fa57600080fd5b5062000319600480360381019062000313919062002775565b62000dbf565b005b3480156200032857600080fd5b50620003476004803603810190620003419190620024d9565b620011f6565b604051620003589392919062003097565b60405180910390f35b3480156200036e57600080fd5b506200038d6004803603810190620003879190620024a7565b6200135e565b6040516200039c9190620032c0565b60405180910390f35b348015620003b257600080fd5b50620003bd62001376565b604051620003cc919062002f40565b60405180910390f35b348015620003e257600080fd5b50620004016004803603810190620003fb919062002520565b62001389565b005b3480156200041057600080fd5b506200041b620013cb565b005b3480156200042a57600080fd5b50620004356200145c565b005b3480156200044457600080fd5b506200044f620014fc565b005b3480156200045e57600080fd5b5062000469620016a3565b60405162000478919062002e77565b60405180910390f35b3480156200048e57600080fd5b50620004ad6004803603810190620004a7919062002860565b620016cd565b604051620004bd929190620032dd565b60405180910390f35b348015620004d357600080fd5b50620004f26004803603810190620004ec9190620024a7565b62001781565b604051620005019190620032c0565b60405180910390f35b3480156200051757600080fd5b50620005366004803603810190620005309190620026be565b62001799565b005b3480156200054557600080fd5b506200056460048036038101906200055e91906200270f565b620018e5565b005b3480156200057357600080fd5b506200059260048036038101906200058c919062002860565b62001a32565b005b348015620005a157600080fd5b50620005ac62001abf565b604051620005bb919062003022565b60405180910390f35b348015620005d157600080fd5b50620005f06004803603810190620005ea91906200270f565b62001b6a565b005b348015620005ff57600080fd5b506200061e60048036038101906200061891906200259b565b62001cb8565b005b3480156200062d57600080fd5b506200064c6004803603810190620006469190620024a7565b62001e00565b005b3480156200065b57600080fd5b506200067a600480360381019062000674919062002860565b62001f04565b6040516200068991906200329c565b60405180910390f35b60665481565b620006a26200208a565b73ffffffffffffffffffffffffffffffffffffffff16620006c2620016a3565b73ffffffffffffffffffffffffffffffffffffffff16146200071b576040517f08c379a000000000000000000000000000000000000000000000000000000000815260040162000712906200316a565b60405180910390fd5b6000471162000761576040517f08c379a00000000000000000000000000000000000000000000000000000000081526004016200075890620031ae565b60405180910390fd5b3373ffffffffffffffffffffffffffffffffffffffff166108fc479081150290604051600060405180830381858888f19350505050158015620007a8573d6000803e3d6000fd5b50565b600080606783604051620007c0919062002e1d565b908152602001604051809103902054141562000813576040517f08c379a00000000000000000000000000000000000000000000000000000000081526004016200080a90620031f2565b60405180910390fd5b6200081d62001abf565b6305f5e100670de0b6b3a76400006067856040516200083d919062002e1d565b90815260200160405180910390205462000858919062003523565b62000864919062003523565b62000870919062003477565b9050919050565b60001515606860009054906101000a900460ff16151514620008d0576040517f08c379a0000000000000000000000000000000000000000000000000000000008152600401620008c79062003258565b60405180910390fd5b606460665482620008e185620007ab565b620008ed91906200364a565b620008f991906200364a565b620009059190620034eb565b3410156200094a576040517f08c379a0000000000000000000000000000000000000000000000000000000008152600401620009419062003214565b60405180910390fd5b6040516020016200095b9062002e60565b604051602081830303815290604052805190602001208260405160200162000984919062002e1d565b6040516020818303038152906040528051906020012014620009dd576040517f08c379a0000000000000000000000000000000000000000000000000000000008152600401620009d4906200318c565b60405180910390fd5b80606c60003373ffffffffffffffffffffffffffffffffffffffff1673ffffffffffffffffffffffffffffffffffffffff1681526020019081526020016000205462000a2a91906200341a565b606c60003373ffffffffffffffffffffffffffffffffffffffff1673ffffffffffffffffffffffffffffffffffffffff168152602001908152602001600020819055507f6b9a951e0a80635c35364f8eb65fd15126b67040e818e599c7ea99cc0baa530033838360405162000aa29392919062002ed8565b60405180910390a15050565b60001515606860009054906101000a900460ff1615151462000b07576040517f08c379a000000000000000000000000000000000000000000000000000000000815260040162000afe9062003258565b60405180910390fd5b606460665462000b1783620007ab565b62000b2391906200364a565b62000b2f9190620034eb565b34101562000b74576040517f08c379a000000000000000000000000000000000000000000000000000000000815260040162000b6b9062003214565b60405180910390fd5b7f6b9a951e0a80635c35364f8eb65fd15126b67040e818e599c7ea99cc0baa53003382600060405162000baa9392919062002e94565b60405180910390a150565b6067818051602081018201805184825260208301602085012081835280955050505050506000915090505481565b6060606b60003373ffffffffffffffffffffffffffffffffffffffff1673ffffffffffffffffffffffffffffffffffffffff168152602001908152602001600020805480602002602001604051908101604052809291908181526020016000905b8282101562000db6578382906000526020600020906003020160405180606001604052908160008201805462000c7a90620037aa565b80601f016020809104026020016040519081016040528092919081815260200182805462000ca890620037aa565b801562000cf95780601f1062000ccd5761010080835404028352916020019162000cf9565b820191906000526020600020905b81548152906001019060200180831162000cdb57829003601f168201915b5050505050815260200160018201805462000d1490620037aa565b80601f016020809104026020016040519081016040528092919081815260200182805462000d4290620037aa565b801562000d935780601f1062000d675761010080835404028352916020019162000d93565b820191906000526020600020905b81548152906001019060200180831162000d7557829003601f168201915b505050505081526020016002820154815250508152602001906001019062000c44565b50505050905090565b6000606c60003373ffffffffffffffffffffffffffffffffffffffff1673ffffffffffffffffffffffffffffffffffffffff168152602001908152602001600020541162000e44576040517f08c379a000000000000000000000000000000000000000000000000000000000815260040162000e3b906200327a565b60405180910390fd5b6004606d60003373ffffffffffffffffffffffffffffffffffffffff1673ffffffffffffffffffffffffffffffffffffffff168152602001908152602001600020541062000ec9576040517f08c379a000000000000000000000000000000000000000000000000000000000815260040162000ec0906200327a565b60405180910390fd5b6001606d60003373ffffffffffffffffffffffffffffffffffffffff1673ffffffffffffffffffffffffffffffffffffffff1681526020019081526020016000205462000f1791906200341a565b606d60003373ffffffffffffffffffffffffffffffffffffffff1673ffffffffffffffffffffffffffffffffffffffff168152602001908152602001600020819055506001606c60003373ffffffffffffffffffffffffffffffffffffffff1673ffffffffffffffffffffffffffffffffffffffff1681526020019081526020016000205462000fa89190620036ab565b606c60003373ffffffffffffffffffffffffffffffffffffffff1673ffffffffffffffffffffffffffffffffffffffff16815260200190815260200160002081905550606b60003373ffffffffffffffffffffffffffffffffffffffff1673ffffffffffffffffffffffffffffffffffffffff168152602001908152602001600020604051806060016040528084815260200183815260200142815250908060018154018082558091505060019003906000526020600020906003020160009091909190915060008201518160000190805190602001906200108c92919062002231565b506020820151816001019080519060200190620010ab92919062002231565b506040820151816002015550506000600167ffffffffffffffff811115620010d857620010d76200392a565b5b604051908082528060200260200182016040528015620011075781602001602082028036833780820191505090505b5090503381600081518110620011225762001121620038fb565b5b602002602001019073ffffffffffffffffffffffffffffffffffffffff16908173ffffffffffffffffffffffffffffffffffffffff168152505060696000815480929190620011719062003816565b9190505550604051806060016040528042815260200183815260200182815250606a60006069548152602001908152602001600020600082015181600001556020820151816001019080519060200190620011ce92919062002231565b506040820151816002019080519060200190620011ed929190620022c2565b50905050505050565b606b60205281600052604060002081815481106200121357600080fd5b9060005260206000209060030201600091509150508060000180546200123990620037aa565b80601f01602080910402602001604051908101604052809291908181526020018280546200126790620037aa565b8015620012b85780601f106200128c57610100808354040283529160200191620012b8565b820191906000526020600020905b8154815290600101906020018083116200129a57829003601f168201915b505050505090806001018054620012cf90620037aa565b80601f0160208091040260200160405190810160405280929190818152602001828054620012fd90620037aa565b80156200134e5780601f1062001322576101008083540402835291602001916200134e565b820191906000526020600020905b8154815290600101906020018083116200133057829003601f168201915b5050505050908060020154905083565b606c6020528060005260406000206000915090505481565b606860009054906101000a900460ff1681565b7fd33d0562157a60742332e64b44a9829c8a0bf0d9739cf23d6bb4dbd505798465838383604051620013be9392919062002f91565b60405180910390a1505050565b620013d56200208a565b73ffffffffffffffffffffffffffffffffffffffff16620013f5620016a3565b73ffffffffffffffffffffffffffffffffffffffff16146200144e576040517f08c379a000000000000000000000000000000000000000000000000000000000815260040162001445906200316a565b60405180910390fd5b6200145a600062002092565b565b620014666200208a565b73ffffffffffffffffffffffffffffffffffffffff1662001486620016a3565b73ffffffffffffffffffffffffffffffffffffffff1614620014df576040517f08c379a0000000000000000000000000000000000000000000000000000000008152600401620014d6906200316a565b60405180910390fd5b6001606860006101000a81548160ff021916908315150217905550565b600060019054906101000a900460ff16620015265760008054906101000a900460ff161562001531565b6200153062002158565b5b62001573576040517f08c379a00000000000000000000000000000000000000000000000000000000081526004016200156a9062003148565b60405180910390fd5b60008060019054906101000a900460ff161590508015620015c4576001600060016101000a81548160ff02191690831515021790555060016000806101000a81548160ff0219169083151502179055505b620015ce6200216b565b73d0d5e3db44de05e9f294bb0a3beeaf030de24ada604051620015f19062002351565b620015fd919062002e77565b604051809103906000f0801580156200161a573d6000803e3d6000fd5b50606560006101000a81548173ffffffffffffffffffffffffffffffffffffffff021916908373ffffffffffffffffffffffffffffffffffffffff16021790555060636066819055506000606860006101000a81548160ff0219169083151502179055508015620016a05760008060016101000a81548160ff0219169083151502179055505b50565b6000603360009054906101000a900473ffffffffffffffffffffffffffffffffffffffff16905090565b606a602052806000526040600020600091509050806000015490806001018054620016f890620037aa565b80601f01602080910402602001604051908101604052809291908181526020018280546200172690620037aa565b8015620017775780601f106200174b5761010080835404028352916020019162001777565b820191906000526020600020905b8154815290600101906020018083116200175957829003601f168201915b5050505050905082565b606d6020528060005260406000206000915090505481565b620017a36200208a565b73ffffffffffffffffffffffffffffffffffffffff16620017c3620016a3565b73ffffffffffffffffffffffffffffffffffffffff16146200181c576040517f08c379a000000000000000000000000000000000000000000000000000000000815260040162001813906200316a565b60405180910390fd5b600060678260405162001830919062002e1d565b908152602001604051809103902054141562001883576040517f08c379a00000000000000000000000000000000000000000000000000000000081526004016200187a90620031d0565b60405180910390fd5b600060678260405162001897919062002e1d565b9081526020016040518091039020819055507f1c40e49688e963884d475feda3ddb42c17aec5d2a82706904ba014ee7ce54a2a81604051620018da91906200303f565b60405180910390a150565b620018ef6200208a565b73ffffffffffffffffffffffffffffffffffffffff166200190f620016a3565b73ffffffffffffffffffffffffffffffffffffffff161462001968576040517f08c379a00000000000000000000000000000000000000000000000000000000081526004016200195f906200316a565b60405180910390fd5b60006067836040516200197c919062002e1d565b90815260200160405180910390205414620019ce576040517f08c379a0000000000000000000000000000000000000000000000000000000008152600401620019c59062003126565b60405180910390fd5b80606783604051620019e1919062002e1d565b9081526020016040518091039020819055507ff4b08cc3e0a40010c33b8ff2c72a0dd4f2a833269cf43cee1a7d94b70b0010cf828260405162001a2692919062003063565b60405180910390a15050565b62001a3c6200208a565b73ffffffffffffffffffffffffffffffffffffffff1662001a5c620016a3565b73ffffffffffffffffffffffffffffffffffffffff161462001ab5576040517f08c379a000000000000000000000000000000000000000000000000000000000815260040162001aac906200316a565b60405180910390fd5b8060668190555050565b6000606560009054906101000a900473ffffffffffffffffffffffffffffffffffffffff1673ffffffffffffffffffffffffffffffffffffffff16638e15f4736040518163ffffffff1660e01b815260040160206040518083038186803b15801562001b2a57600080fd5b505afa15801562001b3f573d6000803e3d6000fd5b505050506040513d601f19601f8201168201806040525081019062001b6591906200268c565b905090565b62001b746200208a565b73ffffffffffffffffffffffffffffffffffffffff1662001b94620016a3565b73ffffffffffffffffffffffffffffffffffffffff161462001bed576040517f08c379a000000000000000000000000000000000000000000000000000000000815260040162001be4906200316a565b60405180910390fd5b600060678360405162001c01919062002e1d565b908152602001604051809103902054141562001c54576040517f08c379a000000000000000000000000000000000000000000000000000000000815260040162001c4b90620031d0565b60405180910390fd5b8060678360405162001c67919062002e1d565b9081526020016040518091039020819055507f903216719ca59a2b59c1bf0212c8cad2a6ae6e8da3576ebf8ab07343f3feca84828260405162001cac92919062003063565b60405180910390a15050565b6000878760405160200162001ccf92919062002f5d565b60405160208183030381529060405280519060200120905060008160405160200162001cfc919062002e36565b60405160208183030381529060405280519060200120905060006001828787876040516000815260200160405260405162001d3b949392919062002fd5565b6020604051602081039080840390855afa15801562001d5e573d6000803e3d6000fd5b5050506020604051035190508073ffffffffffffffffffffffffffffffffffffffff168773ffffffffffffffffffffffffffffffffffffffff161462001ddb576040517f08c379a000000000000000000000000000000000000000000000000000000000815260040162001dd290620030e2565b60405180910390fd5b62001de7898962000dbf565b62001df48a8a8362001389565b50505050505050505050565b62001e0a6200208a565b73ffffffffffffffffffffffffffffffffffffffff1662001e2a620016a3565b73ffffffffffffffffffffffffffffffffffffffff161462001e83576040517f08c379a000000000000000000000000000000000000000000000000000000000815260040162001e7a906200316a565b60405180910390fd5b600073ffffffffffffffffffffffffffffffffffffffff168173ffffffffffffffffffffffffffffffffffffffff16141562001ef6576040517f08c379a000000000000000000000000000000000000000000000000000000000815260040162001eed9062003104565b60405180910390fd5b62001f018162002092565b50565b62001f0e6200235f565b606a60008381526020019081526020016000206040518060600160405290816000820154815260200160018201805462001f4890620037aa565b80601f016020809104026020016040519081016040528092919081815260200182805462001f7690620037aa565b801562001fc75780601f1062001f9b5761010080835404028352916020019162001fc7565b820191906000526020600020905b81548152906001019060200180831162001fa957829003601f168201915b50505050508152602001600282018054806020026020016040519081016040528092919081815260200182805480156200205757602002820191906000526020600020905b8160009054906101000a900473ffffffffffffffffffffffffffffffffffffffff1673ffffffffffffffffffffffffffffffffffffffff16815260200190600101908083116200200c575b5050505050815250509050919050565b6000808273ffffffffffffffffffffffffffffffffffffffff163b119050919050565b600033905090565b6000603360009054906101000a900473ffffffffffffffffffffffffffffffffffffffff16905081603360006101000a81548173ffffffffffffffffffffffffffffffffffffffff021916908373ffffffffffffffffffffffffffffffffffffffff1602179055508173ffffffffffffffffffffffffffffffffffffffff168173ffffffffffffffffffffffffffffffffffffffff167f8be0079c531659141344cd1fd0a4f28419497f9722a3daafe3b4186f6b6457e060405160405180910390a35050565b6000620021653062002067565b15905090565b600060019054906101000a900460ff16620021bd576040517f08c379a0000000000000000000000000000000000000000000000000000000008152600401620021b49062003236565b60405180910390fd5b620021c7620021c9565b565b600060019054906101000a900460ff166200221b576040517f08c379a0000000000000000000000000000000000000000000000000000000008152600401620022129062003236565b60405180910390fd5b6200222f620022296200208a565b62002092565b565b8280546200223f90620037aa565b90600052602060002090601f016020900481019282620022635760008555620022af565b82601f106200227e57805160ff1916838001178555620022af565b82800160010185558215620022af579182015b82811115620022ae57825182559160200191906001019062002291565b5b509050620022be919062002380565b5090565b8280548282559060005260206000209081019282156200233e579160200282015b828111156200233d5782518260006101000a81548173ffffffffffffffffffffffffffffffffffffffff021916908373ffffffffffffffffffffffffffffffffffffffff16021790555091602001919060010190620022e3565b5b5090506200234d919062002380565b5090565b6103af8062003d2683390190565b60405180606001604052806000815260200160608152602001606081525090565b5b808211156200239b57600081600090555060010162002381565b5090565b6000620023b6620023b0846200333a565b62003311565b905082815260208101848484011115620023d557620023d46200395e565b5b620023e284828562003765565b509392505050565b600081359050620023fb8162003ca3565b92915050565b600081359050620024128162003cbd565b92915050565b600081359050620024298162003cd7565b92915050565b600081519050620024408162003cd7565b92915050565b600082601f8301126200245e576200245d62003959565b5b8135620024708482602086016200239f565b91505092915050565b6000813590506200248a8162003cf1565b92915050565b600081359050620024a18162003d0b565b92915050565b600060208284031215620024c057620024bf62003968565b5b6000620024d084828501620023ea565b91505092915050565b60008060408385031215620024f357620024f262003968565b5b60006200250385828601620023ea565b9250506020620025168582860162002479565b9150509250929050565b6000806000606084860312156200253c576200253b62003968565b5b60006200254c8682870162002401565b935050602084013567ffffffffffffffff81111562002570576200256f62003963565b5b6200257e8682870162002446565b92505060406200259186828701620023ea565b9150509250925092565b600080600080600080600060e0888a031215620025bd57620025bc62003968565b5b6000620025cd8a828b0162002401565b975050602088013567ffffffffffffffff811115620025f157620025f062003963565b5b620025ff8a828b0162002446565b965050604088013567ffffffffffffffff81111562002623576200262262003963565b5b620026318a828b0162002446565b9550506060620026448a828b01620023ea565b9450506080620026578a828b0162002490565b93505060a06200266a8a828b0162002401565b92505060c06200267d8a828b0162002401565b91505092959891949750929550565b600060208284031215620026a557620026a462003968565b5b6000620026b5848285016200242f565b91505092915050565b600060208284031215620026d757620026d662003968565b5b600082013567ffffffffffffffff811115620026f857620026f762003963565b5b620027068482850162002446565b91505092915050565b6000806040838503121562002729576200272862003968565b5b600083013567ffffffffffffffff8111156200274a576200274962003963565b5b620027588582860162002446565b92505060206200276b8582860162002418565b9150509250929050565b600080604083850312156200278f576200278e62003968565b5b600083013567ffffffffffffffff811115620027b057620027af62003963565b5b620027be8582860162002446565b925050602083013567ffffffffffffffff811115620027e257620027e162003963565b5b620027f08582860162002446565b9150509250929050565b6000806040838503121562002814576200281362003968565b5b600083013567ffffffffffffffff81111562002835576200283462003963565b5b620028438582860162002446565b9250506020620028568582860162002479565b9150509250929050565b60006020828403121562002879576200287862003968565b5b6000620028898482850162002479565b91505092915050565b6000620028a08383620028c2565b60208301905092915050565b6000620028ba838362002d8d565b905092915050565b620028cd81620036e6565b82525050565b620028de81620036e6565b82525050565b6000620028f18262003390565b620028fd8185620033cb565b93506200290a8362003370565b8060005b838110156200294157815162002925888262002892565b97506200293283620033b1565b9250506001810190506200290e565b5085935050505092915050565b60006200295b826200339b565b620029678185620033dc565b9350836020820285016200297b8562003380565b8060005b85811015620029bd57848403895281516200299b8582620028ac565b9450620029a883620033be565b925060208a019950506001810190506200297f565b50829750879550505050505092915050565b620029da81620036fa565b82525050565b620029eb8162003706565b82525050565b62002a0662002a008262003706565b62003864565b82525050565b62002a178162003710565b82525050565b62002a288162003751565b82525050565b600062002a3b82620033a6565b62002a478185620033ed565b935062002a5981856020860162003774565b62002a64816200396d565b840191505092915050565b600062002a7c82620033a6565b62002a888185620033fe565b935062002a9a81856020860162003774565b62002aa5816200396d565b840191505092915050565b600062002abd82620033a6565b62002ac981856200340f565b935062002adb81856020860162003774565b80840191505092915050565b600062002af6601183620033fe565b915062002b03826200397e565b602082019050919050565b600062002b1d601c836200340f565b915062002b2a82620039a7565b601c82019050919050565b600062002b44602683620033fe565b915062002b5182620039d0565b604082019050919050565b600062002b6b6004836200340f565b915062002b788262003a1f565b600482019050919050565b600062002b92601683620033fe565b915062002b9f8262003a48565b602082019050919050565b600062002bb9602e83620033fe565b915062002bc68262003a71565b604082019050919050565b600062002be0602083620033fe565b915062002bed8262003ac0565b602082019050919050565b600062002c07602b83620033fe565b915062002c148262003ae9565b604082019050919050565b600062002c2e601983620033fe565b915062002c3b8262003b38565b602082019050919050565b600062002c55601283620033fe565b915062002c628262003b61565b602082019050919050565b600062002c7c601183620033fe565b915062002c898262003b8a565b602082019050919050565b600062002ca3601283620033fe565b915062002cb08262003bb3565b602082019050919050565b600062002cca602b83620033fe565b915062002cd78262003bdc565b604082019050919050565b600062002cf1603083620033fe565b915062002cfe8262003c2b565b604082019050919050565b600062002d18601f83620033fe565b915062002d258262003c7a565b602082019050919050565b600060608301600083015162002d4a600086018262002dea565b506020830151848203602086015262002d64828262002a2e565b9150506040830151848203604086015262002d808282620028e4565b9150508091505092915050565b6000606083016000830151848203600086015262002dac828262002a2e565b9150506020830151848203602086015262002dc8828262002a2e565b915050604083015162002ddf604086018262002dea565b508091505092915050565b62002df5816200373a565b82525050565b62002e06816200373a565b82525050565b62002e178162003744565b82525050565b600062002e2b828462002ab0565b915081905092915050565b600062002e438262002b0e565b915062002e518284620029f1565b60208201915081905092915050565b600062002e6d8262002b5c565b9150819050919050565b600060208201905062002e8e6000830184620028d3565b92915050565b600060608201905062002eab6000830186620028d3565b818103602083015262002ebf818562002a6f565b905062002ed0604083018462002a1d565b949350505050565b600060608201905062002eef6000830186620028d3565b818103602083015262002f03818562002a6f565b905062002f14604083018462002dfb565b949350505050565b6000602082019050818103600083015262002f3881846200294e565b905092915050565b600060208201905062002f576000830184620029cf565b92915050565b600060408201905062002f746000830185620029e0565b818103602083015262002f88818462002a6f565b90509392505050565b600060608201905062002fa86000830186620029e0565b818103602083015262002fbc818562002a6f565b905062002fcd6040830184620028d3565b949350505050565b600060808201905062002fec6000830187620029e0565b62002ffb602083018662002e0c565b6200300a6040830185620029e0565b620030196060830184620029e0565b95945050505050565b600060208201905062003039600083018462002a0c565b92915050565b600060208201905081810360008301526200305b818462002a6f565b905092915050565b600060408201905081810360008301526200307f818562002a6f565b905062003090602083018462002a0c565b9392505050565b60006060820190508181036000830152620030b3818662002a6f565b90508181036020830152620030c9818562002a6f565b9050620030da604083018462002dfb565b949350505050565b60006020820190508181036000830152620030fd8162002ae7565b9050919050565b600060208201905081810360008301526200311f8162002b35565b9050919050565b60006020820190508181036000830152620031418162002b83565b9050919050565b60006020820190508181036000830152620031638162002baa565b9050919050565b60006020820190508181036000830152620031858162002bd1565b9050919050565b60006020820190508181036000830152620031a78162002bf8565b9050919050565b60006020820190508181036000830152620031c98162002c1f565b9050919050565b60006020820190508181036000830152620031eb8162002c46565b9050919050565b600060208201905081810360008301526200320d8162002c6d565b9050919050565b600060208201905081810360008301526200322f8162002c94565b9050919050565b60006020820190508181036000830152620032518162002cbb565b9050919050565b60006020820190508181036000830152620032738162002ce2565b9050919050565b60006020820190508181036000830152620032958162002d09565b9050919050565b60006020820190508181036000830152620032b8818462002d30565b905092915050565b6000602082019050620032d7600083018462002dfb565b92915050565b6000604082019050620032f4600083018562002dfb565b818103602083015262003308818462002a6f565b90509392505050565b60006200331d62003330565b90506200332b8282620037e0565b919050565b6000604051905090565b600067ffffffffffffffff8211156200335857620033576200392a565b5b62003363826200396d565b9050602081019050919050565b6000819050602082019050919050565b6000819050602082019050919050565b600081519050919050565b600081519050919050565b600081519050919050565b6000602082019050919050565b6000602082019050919050565b600082825260208201905092915050565b600082825260208201905092915050565b600082825260208201905092915050565b600082825260208201905092915050565b600081905092915050565b600062003427826200373a565b915062003434836200373a565b9250827fffffffffffffffffffffffffffffffffffffffffffffffffffffffffffffffff038211156200346c576200346b6200386e565b5b828201905092915050565b6000620034848262003710565b9150620034918362003710565b925082620034a457620034a36200389d565b5b600160000383147f800000000000000000000000000000000000000000000000000000000000000083141615620034e057620034df6200386e565b5b828205905092915050565b6000620034f8826200373a565b915062003505836200373a565b9250826200351857620035176200389d565b5b828204905092915050565b6000620035308262003710565b91506200353d8362003710565b9250827f7fffffffffffffffffffffffffffffffffffffffffffffffffffffffffffffff04821160008413600084131616156200357f576200357e6200386e565b5b817f80000000000000000000000000000000000000000000000000000000000000000583126000841260008413161615620035bf57620035be6200386e565b5b827f80000000000000000000000000000000000000000000000000000000000000000582126000841360008412161615620035ff57620035fe6200386e565b5b827f7fffffffffffffffffffffffffffffffffffffffffffffffffffffffffffffff05821260008412600084121616156200363f576200363e6200386e565b5b828202905092915050565b600062003657826200373a565b915062003664836200373a565b9250817fffffffffffffffffffffffffffffffffffffffffffffffffffffffffffffffff0483118215151615620036a0576200369f6200386e565b5b828202905092915050565b6000620036b8826200373a565b9150620036c5836200373a565b925082821015620036db57620036da6200386e565b5b828203905092915050565b6000620036f3826200371a565b9050919050565b60008115159050919050565b6000819050919050565b6000819050919050565b600073ffffffffffffffffffffffffffffffffffffffff82169050919050565b6000819050919050565b600060ff82169050919050565b60006200375e826200373a565b9050919050565b82818337600083830152505050565b60005b838110156200379457808201518184015260208101905062003777565b83811115620037a4576000848401525b50505050565b60006002820490506001821680620037c357607f821691505b60208210811415620037da57620037d9620038cc565b5b50919050565b620037eb826200396d565b810181811067ffffffffffffffff821117156200380d576200380c6200392a565b5b80604052505050565b600062003823826200373a565b91507fffffffffffffffffffffffffffffffffffffffffffffffffffffffffffffffff8214156200385957620038586200386e565b5b600182019050919050565b6000819050919050565b7f4e487b7100000000000000000000000000000000000000000000000000000000600052601160045260246000fd5b7f4e487b7100000000000000000000000000000000000000000000000000000000600052601260045260246000fd5b7f4e487b7100000000000000000000000000000000000000000000000000000000600052602260045260246000fd5b7f4e487b7100000000000000000000000000000000000000000000000000000000600052603260045260246000fd5b7f4e487b7100000000000000000000000000000000000000000000000000000000600052604160045260246000fd5b600080fd5b600080fd5b600080fd5b600080fd5b6000601f19601f8301169050919050565b7f696e76616c6964207369676e6174757265000000000000000000000000000000600082015250565b7f19457468657265756d205369676e6564204d6573736167653a0a333200000000600082015250565b7f4f776e61626c653a206e6577206f776e657220697320746865207a65726f206160008201527f6464726573730000000000000000000000000000000000000000000000000000602082015250565b7f5349474e00000000000000000000000000000000000000000000000000000000600082015250565b7f50726f6475637420416c72656164792045786973742100000000000000000000600082015250565b7f496e697469616c697a61626c653a20636f6e747261637420697320616c72656160008201527f647920696e697469616c697a6564000000000000000000000000000000000000602082015250565b7f4f776e61626c653a2063616c6c6572206973206e6f7420746865206f776e6572600082015250565b7f596f75206861766520746f2073656c65637420746865207369676e207365727660008201527f6963652070726f64756374000000000000000000000000000000000000000000602082015250565b7f7468652062616c616e63652068617320746f206265203e203000000000000000600082015250565b7f50726f64756374204e6f74204578697374210000000000000000000000000000600082015250565b7f50726f64756374204e6f7420466f756e64000000000000000000000000000000600082015250565b7f566f6c6174696c69747920746f20686967680000000000000000000000000000600082015250565b7f496e697469616c697a61626c653a20636f6e7472616374206973206e6f74206960008201527f6e697469616c697a696e67000000000000000000000000000000000000000000602082015250565b7f4361736869657220697320636c6f73656420616e642077696c6c206e6f74206160008201527f7661696c61626c6520616e796d6f726500000000000000000000000000000000602082015250565b7f4973206e6f7420616c6c6f77656420746865207573657220746f207369676e00600082015250565b62003cae81620036e6565b811462003cba57600080fd5b50565b62003cc88162003706565b811462003cd457600080fd5b50565b62003ce28162003710565b811462003cee57600080fd5b50565b62003cfc816200373a565b811462003d0857600080fd5b50565b62003d168162003744565b811462003d2257600080fd5b5056fe608060405234801561001057600080fd5b506040516103af3803806103af8339818101604052810190610032919061008d565b806000806101000a81548173ffffffffffffffffffffffffffffffffffffffff021916908373ffffffffffffffffffffffffffffffffffffffff16021790555050610108565b600081519050610087816100f1565b92915050565b6000602082840312156100a3576100a26100ec565b5b60006100b184828501610078565b91505092915050565b60006100c5826100cc565b9050919050565b600073ffffffffffffffffffffffffffffffffffffffff82169050919050565b600080fd5b6100fa816100ba565b811461010557600080fd5b50565b610298806101176000396000f3fe608060405234801561001057600080fd5b506004361061002b5760003560e01c80638e15f47314610030575b600080fd5b61003861004e565b60405161004591906101d3565b60405180910390f35b60008060008060008060008054906101000a900473ffffffffffffffffffffffffffffffffffffffff1673ffffffffffffffffffffffffffffffffffffffff1663feaf968c6040518163ffffffff1660e01b815260040160a06040518083038186803b1580156100bd57600080fd5b505afa1580156100d1573d6000803e3d6000fd5b505050506040513d601f19601f820116820180604052508101906100f59190610149565b94509450945094509450839550505050505090565b6000815190506101198161021d565b92915050565b60008151905061012e81610234565b92915050565b6000815190506101438161024b565b92915050565b600080600080600060a0868803121561016557610164610218565b5b600061017388828901610134565b95505060206101848882890161010a565b94505060406101958882890161011f565b93505060606101a68882890161011f565b92505060806101b788828901610134565b9150509295509295909350565b6101cd816101ee565b82525050565b60006020820190506101e860008301846101c4565b92915050565b6000819050919050565b6000819050919050565b600069ffffffffffffffffffff82169050919050565b600080fd5b610226816101ee565b811461023157600080fd5b50565b61023d816101f8565b811461024857600080fd5b50565b61025481610202565b811461025f57600080fd5b5056fea264697066735822122089890dbc76f1fa4fe47b093de8c4d1f584132f4e3353b94eccf50aa02b07b53764736f6c63430008070033a2646970667358221220f87042072d0b22dd4730f768ed730a6641ca2c7879cf99002e97455b0620a6e164736f6c63430008070033608060405234801561001057600080fd5b506040516103af3803806103af8339818101604052810190610032919061008d565b806000806101000a81548173ffffffffffffffffffffffffffffffffffffffff021916908373ffffffffffffffffffffffffffffffffffffffff16021790555050610108565b600081519050610087816100f1565b92915050565b6000602082840312156100a3576100a26100ec565b5b60006100b184828501610078565b91505092915050565b60006100c5826100cc565b9050919050565b600073ffffffffffffffffffffffffffffffffffffffff82169050919050565b600080fd5b6100fa816100ba565b811461010557600080fd5b50565b610298806101176000396000f3fe608060405234801561001057600080fd5b506004361061002b5760003560e01c80638e15f47314610030575b600080fd5b61003861004e565b60405161004591906101d3565b60405180910390f35b60008060008060008060008054906101000a900473ffffffffffffffffffffffffffffffffffffffff1673ffffffffffffffffffffffffffffffffffffffff1663feaf968c6040518163ffffffff1660e01b815260040160a06040518083038186803b1580156100bd57600080fd5b505afa1580156100d1573d6000803e3d6000fd5b505050506040513d601f19601f820116820180604052508101906100f59190610149565b94509450945094509450839550505050505090565b6000815190506101198161021d565b92915050565b60008151905061012e81610234565b92915050565b6000815190506101438161024b565b92915050565b600080600080600060a0868803121561016557610164610218565b5b600061017388828901610134565b95505060206101848882890161010a565b94505060406101958882890161011f565b93505060606101a68882890161011f565b92505060806101b788828901610134565b9150509295509295909350565b6101cd816101ee565b82525050565b60006020820190506101e860008301846101c4565b92915050565b6000819050919050565b6000819050919050565b600069ffffffffffffffffffff82169050919050565b600080fd5b610226816101ee565b811461023157600080fd5b50565b61023d816101f8565b811461024857600080fd5b50565b61025481610202565b811461025f57600080fd5b5056fea264697066735822122089890dbc76f1fa4fe47b093de8c4d1f584132f4e3353b94eccf50aa02b07b53764736f6c63430008070033",
			"opcodes": "PUSH1 0x80 PUSH1 0x40 MSTORE PUSH1 0x0 PUSH1 0x69 SSTORE CALLVALUE DUP1 ISZERO PUSH3 0x16 JUMPI PUSH1 0x0 DUP1 REVERT JUMPDEST POP PUSH1 0x0 PUSH1 0x1 SWAP1 SLOAD SWAP1 PUSH2 0x100 EXP SWAP1 DIV PUSH1 0xFF AND PUSH3 0x41 JUMPI PUSH1 0x0 DUP1 SLOAD SWAP1 PUSH2 0x100 EXP SWAP1 DIV PUSH1 0xFF AND ISZERO PUSH3 0x52 JUMP JUMPDEST PUSH3 0x51 PUSH3 0x11E PUSH1 0x20 SHL PUSH1 0x20 SHR JUMP JUMPDEST JUMPDEST PUSH3 0x94 JUMPI PUSH1 0x40 MLOAD PUSH32 0x8C379A000000000000000000000000000000000000000000000000000000000 DUP2 MSTORE PUSH1 0x4 ADD PUSH3 0x8B SWAP1 PUSH3 0x542 JUMP JUMPDEST PUSH1 0x40 MLOAD DUP1 SWAP2 SUB SWAP1 REVERT JUMPDEST PUSH1 0x0 DUP1 PUSH1 0x1 SWAP1 SLOAD SWAP1 PUSH2 0x100 EXP SWAP1 DIV PUSH1 0xFF AND ISZERO SWAP1 POP DUP1 ISZERO PUSH3 0xE5 JUMPI PUSH1 0x1 PUSH1 0x0 PUSH1 0x1 PUSH2 0x100 EXP DUP2 SLOAD DUP2 PUSH1 0xFF MUL NOT AND SWAP1 DUP4 ISZERO ISZERO MUL OR SWAP1 SSTORE POP PUSH1 0x1 PUSH1 0x0 DUP1 PUSH2 0x100 EXP DUP2 SLOAD DUP2 PUSH1 0xFF MUL NOT AND SWAP1 DUP4 ISZERO ISZERO MUL OR SWAP1 SSTORE POP JUMPDEST PUSH3 0xF5 PUSH3 0x13C PUSH1 0x20 SHL PUSH1 0x20 SHR JUMP JUMPDEST DUP1 ISZERO PUSH3 0x117 JUMPI PUSH1 0x0 DUP1 PUSH1 0x1 PUSH2 0x100 EXP DUP2 SLOAD DUP2 PUSH1 0xFF MUL NOT AND SWAP1 DUP4 ISZERO ISZERO MUL OR SWAP1 SSTORE POP JUMPDEST POP PUSH3 0x669 JUMP JUMPDEST PUSH1 0x0 PUSH3 0x136 ADDRESS PUSH3 0x2EF PUSH1 0x20 SHL PUSH3 0x2067 OR PUSH1 0x20 SHR JUMP JUMPDEST ISZERO SWAP1 POP SWAP1 JUMP JUMPDEST PUSH1 0x0 PUSH1 0x1 SWAP1 SLOAD SWAP1 PUSH2 0x100 EXP SWAP1 DIV PUSH1 0xFF AND PUSH3 0x166 JUMPI PUSH1 0x0 DUP1 SLOAD SWAP1 PUSH2 0x100 EXP SWAP1 DIV PUSH1 0xFF AND ISZERO PUSH3 0x177 JUMP JUMPDEST PUSH3 0x176 PUSH3 0x11E PUSH1 0x20 SHL PUSH1 0x20 SHR JUMP JUMPDEST JUMPDEST PUSH3 0x1B9 JUMPI PUSH1 0x40 MLOAD PUSH32 0x8C379A000000000000000000000000000000000000000000000000000000000 DUP2 MSTORE PUSH1 0x4 ADD PUSH3 0x1B0 SWAP1 PUSH3 0x542 JUMP JUMPDEST PUSH1 0x40 MLOAD DUP1 SWAP2 SUB SWAP1 REVERT JUMPDEST PUSH1 0x0 DUP1 PUSH1 0x1 SWAP1 SLOAD SWAP1 PUSH2 0x100 EXP SWAP1 DIV PUSH1 0xFF AND ISZERO SWAP1 POP DUP1 ISZERO PUSH3 0x20A JUMPI PUSH1 0x1 PUSH1 0x0 PUSH1 0x1 PUSH2 0x100 EXP DUP2 SLOAD DUP2 PUSH1 0xFF MUL NOT AND SWAP1 DUP4 ISZERO ISZERO MUL OR SWAP1 SSTORE POP PUSH1 0x1 PUSH1 0x0 DUP1 PUSH2 0x100 EXP DUP2 SLOAD DUP2 PUSH1 0xFF MUL NOT AND SWAP1 DUP4 ISZERO ISZERO MUL OR SWAP1 SSTORE POP JUMPDEST PUSH3 0x21A PUSH3 0x312 PUSH1 0x20 SHL PUSH1 0x20 SHR JUMP JUMPDEST PUSH20 0xD0D5E3DB44DE05E9F294BB0A3BEEAF030DE24ADA PUSH1 0x40 MLOAD PUSH3 0x23D SWAP1 PUSH3 0x4B8 JUMP JUMPDEST PUSH3 0x249 SWAP2 SWAP1 PUSH3 0x525 JUMP JUMPDEST PUSH1 0x40 MLOAD DUP1 SWAP2 SUB SWAP1 PUSH1 0x0 CREATE DUP1 ISZERO DUP1 ISZERO PUSH3 0x266 JUMPI RETURNDATASIZE PUSH1 0x0 DUP1 RETURNDATACOPY RETURNDATASIZE PUSH1 0x0 REVERT JUMPDEST POP PUSH1 0x65 PUSH1 0x0 PUSH2 0x100 EXP DUP2 SLOAD DUP2 PUSH20 0xFFFFFFFFFFFFFFFFFFFFFFFFFFFFFFFFFFFFFFFF MUL NOT AND SWAP1 DUP4 PUSH20 0xFFFFFFFFFFFFFFFFFFFFFFFFFFFFFFFFFFFFFFFF AND MUL OR SWAP1 SSTORE POP PUSH1 0x63 PUSH1 0x66 DUP2 SWAP1 SSTORE POP PUSH1 0x0 PUSH1 0x68 PUSH1 0x0 PUSH2 0x100 EXP DUP2 SLOAD DUP2 PUSH1 0xFF MUL NOT AND SWAP1 DUP4 ISZERO ISZERO MUL OR SWAP1 SSTORE POP DUP1 ISZERO PUSH3 0x2EC JUMPI PUSH1 0x0 DUP1 PUSH1 0x1 PUSH2 0x100 EXP DUP2 SLOAD DUP2 PUSH1 0xFF MUL NOT AND SWAP1 DUP4 ISZERO ISZERO MUL OR SWAP1 SSTORE POP JUMPDEST POP JUMP JUMPDEST PUSH1 0x0 DUP1 DUP3 PUSH20 0xFFFFFFFFFFFFFFFFFFFFFFFFFFFFFFFFFFFFFFFF AND EXTCODESIZE GT SWAP1 POP SWAP2 SWAP1 POP JUMP JUMPDEST PUSH1 0x0 PUSH1 0x1 SWAP1 SLOAD SWAP1 PUSH2 0x100 EXP SWAP1 DIV PUSH1 0xFF AND PUSH3 0x364 JUMPI PUSH1 0x40 MLOAD PUSH32 0x8C379A000000000000000000000000000000000000000000000000000000000 DUP2 MSTORE PUSH1 0x4 ADD PUSH3 0x35B SWAP1 PUSH3 0x564 JUMP JUMPDEST PUSH1 0x40 MLOAD DUP1 SWAP2 SUB SWAP1 REVERT JUMPDEST PUSH3 0x374 PUSH3 0x376 PUSH1 0x20 SHL PUSH1 0x20 SHR JUMP JUMPDEST JUMP JUMPDEST PUSH1 0x0 PUSH1 0x1 SWAP1 SLOAD SWAP1 PUSH2 0x100 EXP SWAP1 DIV PUSH1 0xFF AND PUSH3 0x3C8 JUMPI PUSH1 0x40 MLOAD PUSH32 0x8C379A000000000000000000000000000000000000000000000000000000000 DUP2 MSTORE PUSH1 0x4 ADD PUSH3 0x3BF SWAP1 PUSH3 0x564 JUMP JUMPDEST PUSH1 0x40 MLOAD DUP1 SWAP2 SUB SWAP1 REVERT JUMPDEST PUSH3 0x3E8 PUSH3 0x3DC PUSH3 0x3EA PUSH1 0x20 SHL PUSH1 0x20 SHR JUMP JUMPDEST PUSH3 0x3F2 PUSH1 0x20 SHL PUSH1 0x20 SHR JUMP JUMPDEST JUMP JUMPDEST PUSH1 0x0 CALLER SWAP1 POP SWAP1 JUMP JUMPDEST PUSH1 0x0 PUSH1 0x33 PUSH1 0x0 SWAP1 SLOAD SWAP1 PUSH2 0x100 EXP SWAP1 DIV PUSH20 0xFFFFFFFFFFFFFFFFFFFFFFFFFFFFFFFFFFFFFFFF AND SWAP1 POP DUP2 PUSH1 0x33 PUSH1 0x0 PUSH2 0x100 EXP DUP2 SLOAD DUP2 PUSH20 0xFFFFFFFFFFFFFFFFFFFFFFFFFFFFFFFFFFFFFFFF MUL NOT AND SWAP1 DUP4 PUSH20 0xFFFFFFFFFFFFFFFFFFFFFFFFFFFFFFFFFFFFFFFF AND MUL OR SWAP1 SSTORE POP DUP2 PUSH20 0xFFFFFFFFFFFFFFFFFFFFFFFFFFFFFFFFFFFFFFFF AND DUP2 PUSH20 0xFFFFFFFFFFFFFFFFFFFFFFFFFFFFFFFFFFFFFFFF AND PUSH32 0x8BE0079C531659141344CD1FD0A4F28419497F9722A3DAAFE3B4186F6B6457E0 PUSH1 0x40 MLOAD PUSH1 0x40 MLOAD DUP1 SWAP2 SUB SWAP1 LOG3 POP POP JUMP JUMPDEST PUSH2 0x3AF DUP1 PUSH3 0x4783 DUP4 CODECOPY ADD SWAP1 JUMP JUMPDEST PUSH3 0x4D1 DUP2 PUSH3 0x597 JUMP JUMPDEST DUP3 MSTORE POP POP JUMP JUMPDEST PUSH1 0x0 PUSH3 0x4E6 PUSH1 0x2E DUP4 PUSH3 0x586 JUMP JUMPDEST SWAP2 POP PUSH3 0x4F3 DUP3 PUSH3 0x5CB JUMP JUMPDEST PUSH1 0x40 DUP3 ADD SWAP1 POP SWAP2 SWAP1 POP JUMP JUMPDEST PUSH1 0x0 PUSH3 0x50D PUSH1 0x2B DUP4 PUSH3 0x586 JUMP JUMPDEST SWAP2 POP PUSH3 0x51A DUP3 PUSH3 0x61A JUMP JUMPDEST PUSH1 0x40 DUP3 ADD SWAP1 POP SWAP2 SWAP1 POP JUMP JUMPDEST PUSH1 0x0 PUSH1 0x20 DUP3 ADD SWAP1 POP PUSH3 0x53C PUSH1 0x0 DUP4 ADD DUP5 PUSH3 0x4C6 JUMP JUMPDEST SWAP3 SWAP2 POP POP JUMP JUMPDEST PUSH1 0x0 PUSH1 0x20 DUP3 ADD SWAP1 POP DUP2 DUP2 SUB PUSH1 0x0 DUP4 ADD MSTORE PUSH3 0x55D DUP2 PUSH3 0x4D7 JUMP JUMPDEST SWAP1 POP SWAP2 SWAP1 POP JUMP JUMPDEST PUSH1 0x0 PUSH1 0x20 DUP3 ADD SWAP1 POP DUP2 DUP2 SUB PUSH1 0x0 DUP4 ADD MSTORE PUSH3 0x57F DUP2 PUSH3 0x4FE JUMP JUMPDEST SWAP1 POP SWAP2 SWAP1 POP JUMP JUMPDEST PUSH1 0x0 DUP3 DUP3 MSTORE PUSH1 0x20 DUP3 ADD SWAP1 POP SWAP3 SWAP2 POP POP JUMP JUMPDEST PUSH1 0x0 PUSH3 0x5A4 DUP3 PUSH3 0x5AB JUMP JUMPDEST SWAP1 POP SWAP2 SWAP1 POP JUMP JUMPDEST PUSH1 0x0 PUSH20 0xFFFFFFFFFFFFFFFFFFFFFFFFFFFFFFFFFFFFFFFF DUP3 AND SWAP1 POP SWAP2 SWAP1 POP JUMP JUMPDEST PUSH32 0x496E697469616C697A61626C653A20636F6E747261637420697320616C726561 PUSH1 0x0 DUP3 ADD MSTORE PUSH32 0x647920696E697469616C697A6564000000000000000000000000000000000000 PUSH1 0x20 DUP3 ADD MSTORE POP JUMP JUMPDEST PUSH32 0x496E697469616C697A61626C653A20636F6E7472616374206973206E6F742069 PUSH1 0x0 DUP3 ADD MSTORE PUSH32 0x6E697469616C697A696E67000000000000000000000000000000000000000000 PUSH1 0x20 DUP3 ADD MSTORE POP JUMP JUMPDEST PUSH2 0x410A DUP1 PUSH3 0x679 PUSH1 0x0 CODECOPY PUSH1 0x0 RETURN INVALID PUSH1 0x80 PUSH1 0x40 MSTORE PUSH1 0x4 CALLDATASIZE LT PUSH3 0x1A6 JUMPI PUSH1 0x0 CALLDATALOAD PUSH1 0xE0 SHR DUP1 PUSH4 0x7FCDEF0D GT PUSH3 0xE5 JUMPI DUP1 PUSH4 0xDB6C613B GT PUSH3 0x97 JUMPI DUP1 PUSH4 0xE89704C7 GT PUSH3 0x6D JUMPI DUP1 PUSH4 0xE89704C7 EQ PUSH3 0x5C4 JUMPI DUP1 PUSH4 0xED6449FF EQ PUSH3 0x5F2 JUMPI DUP1 PUSH4 0xF2FDE38B EQ PUSH3 0x620 JUMPI DUP1 PUSH4 0xF4ECCB8F EQ PUSH3 0x64E JUMPI PUSH3 0x1A6 JUMP JUMPDEST DUP1 PUSH4 0xDB6C613B EQ PUSH3 0x538 JUMPI DUP1 PUSH4 0xE083C576 EQ PUSH3 0x566 JUMPI DUP1 PUSH4 0xE5269C40 EQ PUSH3 0x594 JUMPI PUSH3 0x1A6 JUMP JUMPDEST DUP1 PUSH4 0x7FCDEF0D EQ PUSH3 0x41D JUMPI DUP1 PUSH4 0x8129FC1C EQ PUSH3 0x437 JUMPI DUP1 PUSH4 0x8DA5CB5B EQ PUSH3 0x451 JUMPI DUP1 PUSH4 0xC2ED2B05 EQ PUSH3 0x481 JUMPI DUP1 PUSH4 0xD3CB5E28 EQ PUSH3 0x4C6 JUMPI DUP1 PUSH4 0xD7A7CA6F EQ PUSH3 0x50A JUMPI PUSH3 0x1A6 JUMP JUMPDEST DUP1 PUSH4 0x419AD06D GT PUSH3 0x15D JUMPI DUP1 PUSH4 0x69614847 GT PUSH3 0x133 JUMPI DUP1 PUSH4 0x69614847 EQ PUSH3 0x361 JUMPI DUP1 PUSH4 0x6CE34661 EQ PUSH3 0x3A5 JUMPI DUP1 PUSH4 0x6E87FC34 EQ PUSH3 0x3D5 JUMPI DUP1 PUSH4 0x715018A6 EQ PUSH3 0x403 JUMPI PUSH3 0x1A6 JUMP JUMPDEST DUP1 PUSH4 0x419AD06D EQ PUSH3 0x2BD JUMPI DUP1 PUSH4 0x4D2B1978 EQ PUSH3 0x2ED JUMPI DUP1 PUSH4 0x54A02F9E EQ PUSH3 0x31B JUMPI PUSH3 0x1A6 JUMP JUMPDEST DUP1 PUSH4 0xC1C5DD2 EQ PUSH3 0x1AB JUMPI DUP1 PUSH4 0xCC20050 EQ PUSH3 0x1DB JUMPI DUP1 PUSH4 0xEB89428 EQ PUSH3 0x1F5 JUMPI DUP1 PUSH4 0x280B8511 EQ PUSH3 0x239 JUMPI DUP1 PUSH4 0x353B106F EQ PUSH3 0x259 JUMPI DUP1 PUSH4 0x3FEBCE85 EQ PUSH3 0x279 JUMPI JUMPDEST PUSH1 0x0 DUP1 REVERT JUMPDEST CALLVALUE DUP1 ISZERO PUSH3 0x1B8 JUMPI PUSH1 0x0 DUP1 REVERT JUMPDEST POP PUSH3 0x1C3 PUSH3 0x692 JUMP JUMPDEST PUSH1 0x40 MLOAD PUSH3 0x1D2 SWAP2 SWAP1 PUSH3 0x32C0 JUMP JUMPDEST PUSH1 0x40 MLOAD DUP1 SWAP2 SUB SWAP1 RETURN JUMPDEST CALLVALUE DUP1 ISZERO PUSH3 0x1E8 JUMPI PUSH1 0x0 DUP1 REVERT JUMPDEST POP PUSH3 0x1F3 PUSH3 0x698 JUMP JUMPDEST STOP JUMPDEST CALLVALUE DUP1 ISZERO PUSH3 0x202 JUMPI PUSH1 0x0 DUP1 REVERT JUMPDEST POP PUSH3 0x221 PUSH1 0x4 DUP1 CALLDATASIZE SUB DUP2 ADD SWAP1 PUSH3 0x21B SWAP2 SWAP1 PUSH3 0x26BE JUMP JUMPDEST PUSH3 0x7AB JUMP JUMPDEST PUSH1 0x40 MLOAD PUSH3 0x230 SWAP2 SWAP1 PUSH3 0x3022 JUMP JUMPDEST PUSH1 0x40 MLOAD DUP1 SWAP2 SUB SWAP1 RETURN JUMPDEST PUSH3 0x257 PUSH1 0x4 DUP1 CALLDATASIZE SUB DUP2 ADD SWAP1 PUSH3 0x251 SWAP2 SWAP1 PUSH3 0x27FA JUMP JUMPDEST PUSH3 0x877 JUMP JUMPDEST STOP JUMPDEST PUSH3 0x277 PUSH1 0x4 DUP1 CALLDATASIZE SUB DUP2 ADD SWAP1 PUSH3 0x271 SWAP2 SWAP1 PUSH3 0x26BE JUMP JUMPDEST PUSH3 0xAAE JUMP JUMPDEST STOP JUMPDEST CALLVALUE DUP1 ISZERO PUSH3 0x286 JUMPI PUSH1 0x0 DUP1 REVERT JUMPDEST POP PUSH3 0x2A5 PUSH1 0x4 DUP1 CALLDATASIZE SUB DUP2 ADD SWAP1 PUSH3 0x29F SWAP2 SWAP1 PUSH3 0x26BE JUMP JUMPDEST PUSH3 0xBB5 JUMP JUMPDEST PUSH1 0x40 MLOAD PUSH3 0x2B4 SWAP2 SWAP1 PUSH3 0x3022 JUMP JUMPDEST PUSH1 0x40 MLOAD DUP1 SWAP2 SUB SWAP1 RETURN JUMPDEST CALLVALUE DUP1 ISZERO PUSH3 0x2CA JUMPI PUSH1 0x0 DUP1 REVERT JUMPDEST POP PUSH3 0x2D5 PUSH3 0xBE3 JUMP JUMPDEST PUSH1 0x40 MLOAD PUSH3 0x2E4 SWAP2 SWAP1 PUSH3 0x2F1C JUMP JUMPDEST PUSH1 0x40 MLOAD DUP1 SWAP2 SUB SWAP1 RETURN JUMPDEST CALLVALUE DUP1 ISZERO PUSH3 0x2FA JUMPI PUSH1 0x0 DUP1 REVERT JUMPDEST POP PUSH3 0x319 PUSH1 0x4 DUP1 CALLDATASIZE SUB DUP2 ADD SWAP1 PUSH3 0x313 SWAP2 SWAP1 PUSH3 0x2775 JUMP JUMPDEST PUSH3 0xDBF JUMP JUMPDEST STOP JUMPDEST CALLVALUE DUP1 ISZERO PUSH3 0x328 JUMPI PUSH1 0x0 DUP1 REVERT JUMPDEST POP PUSH3 0x347 PUSH1 0x4 DUP1 CALLDATASIZE SUB DUP2 ADD SWAP1 PUSH3 0x341 SWAP2 SWAP1 PUSH3 0x24D9 JUMP JUMPDEST PUSH3 0x11F6 JUMP JUMPDEST PUSH1 0x40 MLOAD PUSH3 0x358 SWAP4 SWAP3 SWAP2 SWAP1 PUSH3 0x3097 JUMP JUMPDEST PUSH1 0x40 MLOAD DUP1 SWAP2 SUB SWAP1 RETURN JUMPDEST CALLVALUE DUP1 ISZERO PUSH3 0x36E JUMPI PUSH1 0x0 DUP1 REVERT JUMPDEST POP PUSH3 0x38D PUSH1 0x4 DUP1 CALLDATASIZE SUB DUP2 ADD SWAP1 PUSH3 0x387 SWAP2 SWAP1 PUSH3 0x24A7 JUMP JUMPDEST PUSH3 0x135E JUMP JUMPDEST PUSH1 0x40 MLOAD PUSH3 0x39C SWAP2 SWAP1 PUSH3 0x32C0 JUMP JUMPDEST PUSH1 0x40 MLOAD DUP1 SWAP2 SUB SWAP1 RETURN JUMPDEST CALLVALUE DUP1 ISZERO PUSH3 0x3B2 JUMPI PUSH1 0x0 DUP1 REVERT JUMPDEST POP PUSH3 0x3BD PUSH3 0x1376 JUMP JUMPDEST PUSH1 0x40 MLOAD PUSH3 0x3CC SWAP2 SWAP1 PUSH3 0x2F40 JUMP JUMPDEST PUSH1 0x40 MLOAD DUP1 SWAP2 SUB SWAP1 RETURN JUMPDEST CALLVALUE DUP1 ISZERO PUSH3 0x3E2 JUMPI PUSH1 0x0 DUP1 REVERT JUMPDEST POP PUSH3 0x401 PUSH1 0x4 DUP1 CALLDATASIZE SUB DUP2 ADD SWAP1 PUSH3 0x3FB SWAP2 SWAP1 PUSH3 0x2520 JUMP JUMPDEST PUSH3 0x1389 JUMP JUMPDEST STOP JUMPDEST CALLVALUE DUP1 ISZERO PUSH3 0x410 JUMPI PUSH1 0x0 DUP1 REVERT JUMPDEST POP PUSH3 0x41B PUSH3 0x13CB JUMP JUMPDEST STOP JUMPDEST CALLVALUE DUP1 ISZERO PUSH3 0x42A JUMPI PUSH1 0x0 DUP1 REVERT JUMPDEST POP PUSH3 0x435 PUSH3 0x145C JUMP JUMPDEST STOP JUMPDEST CALLVALUE DUP1 ISZERO PUSH3 0x444 JUMPI PUSH1 0x0 DUP1 REVERT JUMPDEST POP PUSH3 0x44F PUSH3 0x14FC JUMP JUMPDEST STOP JUMPDEST CALLVALUE DUP1 ISZERO PUSH3 0x45E JUMPI PUSH1 0x0 DUP1 REVERT JUMPDEST POP PUSH3 0x469 PUSH3 0x16A3 JUMP JUMPDEST PUSH1 0x40 MLOAD PUSH3 0x478 SWAP2 SWAP1 PUSH3 0x2E77 JUMP JUMPDEST PUSH1 0x40 MLOAD DUP1 SWAP2 SUB SWAP1 RETURN JUMPDEST CALLVALUE DUP1 ISZERO PUSH3 0x48E JUMPI PUSH1 0x0 DUP1 REVERT JUMPDEST POP PUSH3 0x4AD PUSH1 0x4 DUP1 CALLDATASIZE SUB DUP2 ADD SWAP1 PUSH3 0x4A7 SWAP2 SWAP1 PUSH3 0x2860 JUMP JUMPDEST PUSH3 0x16CD JUMP JUMPDEST PUSH1 0x40 MLOAD PUSH3 0x4BD SWAP3 SWAP2 SWAP1 PUSH3 0x32DD JUMP JUMPDEST PUSH1 0x40 MLOAD DUP1 SWAP2 SUB SWAP1 RETURN JUMPDEST CALLVALUE DUP1 ISZERO PUSH3 0x4D3 JUMPI PUSH1 0x0 DUP1 REVERT JUMPDEST POP PUSH3 0x4F2 PUSH1 0x4 DUP1 CALLDATASIZE SUB DUP2 ADD SWAP1 PUSH3 0x4EC SWAP2 SWAP1 PUSH3 0x24A7 JUMP JUMPDEST PUSH3 0x1781 JUMP JUMPDEST PUSH1 0x40 MLOAD PUSH3 0x501 SWAP2 SWAP1 PUSH3 0x32C0 JUMP JUMPDEST PUSH1 0x40 MLOAD DUP1 SWAP2 SUB SWAP1 RETURN JUMPDEST CALLVALUE DUP1 ISZERO PUSH3 0x517 JUMPI PUSH1 0x0 DUP1 REVERT JUMPDEST POP PUSH3 0x536 PUSH1 0x4 DUP1 CALLDATASIZE SUB DUP2 ADD SWAP1 PUSH3 0x530 SWAP2 SWAP1 PUSH3 0x26BE JUMP JUMPDEST PUSH3 0x1799 JUMP JUMPDEST STOP JUMPDEST CALLVALUE DUP1 ISZERO PUSH3 0x545 JUMPI PUSH1 0x0 DUP1 REVERT JUMPDEST POP PUSH3 0x564 PUSH1 0x4 DUP1 CALLDATASIZE SUB DUP2 ADD SWAP1 PUSH3 0x55E SWAP2 SWAP1 PUSH3 0x270F JUMP JUMPDEST PUSH3 0x18E5 JUMP JUMPDEST STOP JUMPDEST CALLVALUE DUP1 ISZERO PUSH3 0x573 JUMPI PUSH1 0x0 DUP1 REVERT JUMPDEST POP PUSH3 0x592 PUSH1 0x4 DUP1 CALLDATASIZE SUB DUP2 ADD SWAP1 PUSH3 0x58C SWAP2 SWAP1 PUSH3 0x2860 JUMP JUMPDEST PUSH3 0x1A32 JUMP JUMPDEST STOP JUMPDEST CALLVALUE DUP1 ISZERO PUSH3 0x5A1 JUMPI PUSH1 0x0 DUP1 REVERT JUMPDEST POP PUSH3 0x5AC PUSH3 0x1ABF JUMP JUMPDEST PUSH1 0x40 MLOAD PUSH3 0x5BB SWAP2 SWAP1 PUSH3 0x3022 JUMP JUMPDEST PUSH1 0x40 MLOAD DUP1 SWAP2 SUB SWAP1 RETURN JUMPDEST CALLVALUE DUP1 ISZERO PUSH3 0x5D1 JUMPI PUSH1 0x0 DUP1 REVERT JUMPDEST POP PUSH3 0x5F0 PUSH1 0x4 DUP1 CALLDATASIZE SUB DUP2 ADD SWAP1 PUSH3 0x5EA SWAP2 SWAP1 PUSH3 0x270F JUMP JUMPDEST PUSH3 0x1B6A JUMP JUMPDEST STOP JUMPDEST CALLVALUE DUP1 ISZERO PUSH3 0x5FF JUMPI PUSH1 0x0 DUP1 REVERT JUMPDEST POP PUSH3 0x61E PUSH1 0x4 DUP1 CALLDATASIZE SUB DUP2 ADD SWAP1 PUSH3 0x618 SWAP2 SWAP1 PUSH3 0x259B JUMP JUMPDEST PUSH3 0x1CB8 JUMP JUMPDEST STOP JUMPDEST CALLVALUE DUP1 ISZERO PUSH3 0x62D JUMPI PUSH1 0x0 DUP1 REVERT JUMPDEST POP PUSH3 0x64C PUSH1 0x4 DUP1 CALLDATASIZE SUB DUP2 ADD SWAP1 PUSH3 0x646 SWAP2 SWAP1 PUSH3 0x24A7 JUMP JUMPDEST PUSH3 0x1E00 JUMP JUMPDEST STOP JUMPDEST CALLVALUE DUP1 ISZERO PUSH3 0x65B JUMPI PUSH1 0x0 DUP1 REVERT JUMPDEST POP PUSH3 0x67A PUSH1 0x4 DUP1 CALLDATASIZE SUB DUP2 ADD SWAP1 PUSH3 0x674 SWAP2 SWAP1 PUSH3 0x2860 JUMP JUMPDEST PUSH3 0x1F04 JUMP JUMPDEST PUSH1 0x40 MLOAD PUSH3 0x689 SWAP2 SWAP1 PUSH3 0x329C JUMP JUMPDEST PUSH1 0x40 MLOAD DUP1 SWAP2 SUB SWAP1 RETURN JUMPDEST PUSH1 0x66 SLOAD DUP2 JUMP JUMPDEST PUSH3 0x6A2 PUSH3 0x208A JUMP JUMPDEST PUSH20 0xFFFFFFFFFFFFFFFFFFFFFFFFFFFFFFFFFFFFFFFF AND PUSH3 0x6C2 PUSH3 0x16A3 JUMP JUMPDEST PUSH20 0xFFFFFFFFFFFFFFFFFFFFFFFFFFFFFFFFFFFFFFFF AND EQ PUSH3 0x71B JUMPI PUSH1 0x40 MLOAD PUSH32 0x8C379A000000000000000000000000000000000000000000000000000000000 DUP2 MSTORE PUSH1 0x4 ADD PUSH3 0x712 SWAP1 PUSH3 0x316A JUMP JUMPDEST PUSH1 0x40 MLOAD DUP1 SWAP2 SUB SWAP1 REVERT JUMPDEST PUSH1 0x0 SELFBALANCE GT PUSH3 0x761 JUMPI PUSH1 0x40 MLOAD PUSH32 0x8C379A000000000000000000000000000000000000000000000000000000000 DUP2 MSTORE PUSH1 0x4 ADD PUSH3 0x758 SWAP1 PUSH3 0x31AE JUMP JUMPDEST PUSH1 0x40 MLOAD DUP1 SWAP2 SUB SWAP1 REVERT JUMPDEST CALLER PUSH20 0xFFFFFFFFFFFFFFFFFFFFFFFFFFFFFFFFFFFFFFFF AND PUSH2 0x8FC SELFBALANCE SWAP1 DUP2 ISZERO MUL SWAP1 PUSH1 0x40 MLOAD PUSH1 0x0 PUSH1 0x40 MLOAD DUP1 DUP4 SUB DUP2 DUP6 DUP9 DUP9 CALL SWAP4 POP POP POP POP ISZERO DUP1 ISZERO PUSH3 0x7A8 JUMPI RETURNDATASIZE PUSH1 0x0 DUP1 RETURNDATACOPY RETURNDATASIZE PUSH1 0x0 REVERT JUMPDEST POP JUMP JUMPDEST PUSH1 0x0 DUP1 PUSH1 0x67 DUP4 PUSH1 0x40 MLOAD PUSH3 0x7C0 SWAP2 SWAP1 PUSH3 0x2E1D JUMP JUMPDEST SWAP1 DUP2 MSTORE PUSH1 0x20 ADD PUSH1 0x40 MLOAD DUP1 SWAP2 SUB SWAP1 KECCAK256 SLOAD EQ ISZERO PUSH3 0x813 JUMPI PUSH1 0x40 MLOAD PUSH32 0x8C379A000000000000000000000000000000000000000000000000000000000 DUP2 MSTORE PUSH1 0x4 ADD PUSH3 0x80A SWAP1 PUSH3 0x31F2 JUMP JUMPDEST PUSH1 0x40 MLOAD DUP1 SWAP2 SUB SWAP1 REVERT JUMPDEST PUSH3 0x81D PUSH3 0x1ABF JUMP JUMPDEST PUSH4 0x5F5E100 PUSH8 0xDE0B6B3A7640000 PUSH1 0x67 DUP6 PUSH1 0x40 MLOAD PUSH3 0x83D SWAP2 SWAP1 PUSH3 0x2E1D JUMP JUMPDEST SWAP1 DUP2 MSTORE PUSH1 0x20 ADD PUSH1 0x40 MLOAD DUP1 SWAP2 SUB SWAP1 KECCAK256 SLOAD PUSH3 0x858 SWAP2 SWAP1 PUSH3 0x3523 JUMP JUMPDEST PUSH3 0x864 SWAP2 SWAP1 PUSH3 0x3523 JUMP JUMPDEST PUSH3 0x870 SWAP2 SWAP1 PUSH3 0x3477 JUMP JUMPDEST SWAP1 POP SWAP2 SWAP1 POP JUMP JUMPDEST PUSH1 0x0 ISZERO ISZERO PUSH1 0x68 PUSH1 0x0 SWAP1 SLOAD SWAP1 PUSH2 0x100 EXP SWAP1 DIV PUSH1 0xFF AND ISZERO ISZERO EQ PUSH3 0x8D0 JUMPI PUSH1 0x40 MLOAD PUSH32 0x8C379A000000000000000000000000000000000000000000000000000000000 DUP2 MSTORE PUSH1 0x4 ADD PUSH3 0x8C7 SWAP1 PUSH3 0x3258 JUMP JUMPDEST PUSH1 0x40 MLOAD DUP1 SWAP2 SUB SWAP1 REVERT JUMPDEST PUSH1 0x64 PUSH1 0x66 SLOAD DUP3 PUSH3 0x8E1 DUP6 PUSH3 0x7AB JUMP JUMPDEST PUSH3 0x8ED SWAP2 SWAP1 PUSH3 0x364A JUMP JUMPDEST PUSH3 0x8F9 SWAP2 SWAP1 PUSH3 0x364A JUMP JUMPDEST PUSH3 0x905 SWAP2 SWAP1 PUSH3 0x34EB JUMP JUMPDEST CALLVALUE LT ISZERO PUSH3 0x94A JUMPI PUSH1 0x40 MLOAD PUSH32 0x8C379A000000000000000000000000000000000000000000000000000000000 DUP2 MSTORE PUSH1 0x4 ADD PUSH3 0x941 SWAP1 PUSH3 0x3214 JUMP JUMPDEST PUSH1 0x40 MLOAD DUP1 SWAP2 SUB SWAP1 REVERT JUMPDEST PUSH1 0x40 MLOAD PUSH1 0x20 ADD PUSH3 0x95B SWAP1 PUSH3 0x2E60 JUMP JUMPDEST PUSH1 0x40 MLOAD PUSH1 0x20 DUP2 DUP4 SUB SUB DUP2 MSTORE SWAP1 PUSH1 0x40 MSTORE DUP1 MLOAD SWAP1 PUSH1 0x20 ADD KECCAK256 DUP3 PUSH1 0x40 MLOAD PUSH1 0x20 ADD PUSH3 0x984 SWAP2 SWAP1 PUSH3 0x2E1D JUMP JUMPDEST PUSH1 0x40 MLOAD PUSH1 0x20 DUP2 DUP4 SUB SUB DUP2 MSTORE SWAP1 PUSH1 0x40 MSTORE DUP1 MLOAD SWAP1 PUSH1 0x20 ADD KECCAK256 EQ PUSH3 0x9DD JUMPI PUSH1 0x40 MLOAD PUSH32 0x8C379A000000000000000000000000000000000000000000000000000000000 DUP2 MSTORE PUSH1 0x4 ADD PUSH3 0x9D4 SWAP1 PUSH3 0x318C JUMP JUMPDEST PUSH1 0x40 MLOAD DUP1 SWAP2 SUB SWAP1 REVERT JUMPDEST DUP1 PUSH1 0x6C PUSH1 0x0 CALLER PUSH20 0xFFFFFFFFFFFFFFFFFFFFFFFFFFFFFFFFFFFFFFFF AND PUSH20 0xFFFFFFFFFFFFFFFFFFFFFFFFFFFFFFFFFFFFFFFF AND DUP2 MSTORE PUSH1 0x20 ADD SWAP1 DUP2 MSTORE PUSH1 0x20 ADD PUSH1 0x0 KECCAK256 SLOAD PUSH3 0xA2A SWAP2 SWAP1 PUSH3 0x341A JUMP JUMPDEST PUSH1 0x6C PUSH1 0x0 CALLER PUSH20 0xFFFFFFFFFFFFFFFFFFFFFFFFFFFFFFFFFFFFFFFF AND PUSH20 0xFFFFFFFFFFFFFFFFFFFFFFFFFFFFFFFFFFFFFFFF AND DUP2 MSTORE PUSH1 0x20 ADD SWAP1 DUP2 MSTORE PUSH1 0x20 ADD PUSH1 0x0 KECCAK256 DUP2 SWAP1 SSTORE POP PUSH32 0x6B9A951E0A80635C35364F8EB65FD15126B67040E818E599C7EA99CC0BAA5300 CALLER DUP4 DUP4 PUSH1 0x40 MLOAD PUSH3 0xAA2 SWAP4 SWAP3 SWAP2 SWAP1 PUSH3 0x2ED8 JUMP JUMPDEST PUSH1 0x40 MLOAD DUP1 SWAP2 SUB SWAP1 LOG1 POP POP JUMP JUMPDEST PUSH1 0x0 ISZERO ISZERO PUSH1 0x68 PUSH1 0x0 SWAP1 SLOAD SWAP1 PUSH2 0x100 EXP SWAP1 DIV PUSH1 0xFF AND ISZERO ISZERO EQ PUSH3 0xB07 JUMPI PUSH1 0x40 MLOAD PUSH32 0x8C379A000000000000000000000000000000000000000000000000000000000 DUP2 MSTORE PUSH1 0x4 ADD PUSH3 0xAFE SWAP1 PUSH3 0x3258 JUMP JUMPDEST PUSH1 0x40 MLOAD DUP1 SWAP2 SUB SWAP1 REVERT JUMPDEST PUSH1 0x64 PUSH1 0x66 SLOAD PUSH3 0xB17 DUP4 PUSH3 0x7AB JUMP JUMPDEST PUSH3 0xB23 SWAP2 SWAP1 PUSH3 0x364A JUMP JUMPDEST PUSH3 0xB2F SWAP2 SWAP1 PUSH3 0x34EB JUMP JUMPDEST CALLVALUE LT ISZERO PUSH3 0xB74 JUMPI PUSH1 0x40 MLOAD PUSH32 0x8C379A000000000000000000000000000000000000000000000000000000000 DUP2 MSTORE PUSH1 0x4 ADD PUSH3 0xB6B SWAP1 PUSH3 0x3214 JUMP JUMPDEST PUSH1 0x40 MLOAD DUP1 SWAP2 SUB SWAP1 REVERT JUMPDEST PUSH32 0x6B9A951E0A80635C35364F8EB65FD15126B67040E818E599C7EA99CC0BAA5300 CALLER DUP3 PUSH1 0x0 PUSH1 0x40 MLOAD PUSH3 0xBAA SWAP4 SWAP3 SWAP2 SWAP1 PUSH3 0x2E94 JUMP JUMPDEST PUSH1 0x40 MLOAD DUP1 SWAP2 SUB SWAP1 LOG1 POP JUMP JUMPDEST PUSH1 0x67 DUP2 DUP1 MLOAD PUSH1 0x20 DUP2 ADD DUP3 ADD DUP1 MLOAD DUP5 DUP3 MSTORE PUSH1 0x20 DUP4 ADD PUSH1 0x20 DUP6 ADD KECCAK256 DUP2 DUP4 MSTORE DUP1 SWAP6 POP POP POP POP POP POP PUSH1 0x0 SWAP2 POP SWAP1 POP SLOAD DUP2 JUMP JUMPDEST PUSH1 0x60 PUSH1 0x6B PUSH1 0x0 CALLER PUSH20 0xFFFFFFFFFFFFFFFFFFFFFFFFFFFFFFFFFFFFFFFF AND PUSH20 0xFFFFFFFFFFFFFFFFFFFFFFFFFFFFFFFFFFFFFFFF AND DUP2 MSTORE PUSH1 0x20 ADD SWAP1 DUP2 MSTORE PUSH1 0x20 ADD PUSH1 0x0 KECCAK256 DUP1 SLOAD DUP1 PUSH1 0x20 MUL PUSH1 0x20 ADD PUSH1 0x40 MLOAD SWAP1 DUP2 ADD PUSH1 0x40 MSTORE DUP1 SWAP3 SWAP2 SWAP1 DUP2 DUP2 MSTORE PUSH1 0x20 ADD PUSH1 0x0 SWAP1 JUMPDEST DUP3 DUP3 LT ISZERO PUSH3 0xDB6 JUMPI DUP4 DUP3 SWAP1 PUSH1 0x0 MSTORE PUSH1 0x20 PUSH1 0x0 KECCAK256 SWAP1 PUSH1 0x3 MUL ADD PUSH1 0x40 MLOAD DUP1 PUSH1 0x60 ADD PUSH1 0x40 MSTORE SWAP1 DUP2 PUSH1 0x0 DUP3 ADD DUP1 SLOAD PUSH3 0xC7A SWAP1 PUSH3 0x37AA JUMP JUMPDEST DUP1 PUSH1 0x1F ADD PUSH1 0x20 DUP1 SWAP2 DIV MUL PUSH1 0x20 ADD PUSH1 0x40 MLOAD SWAP1 DUP2 ADD PUSH1 0x40 MSTORE DUP1 SWAP3 SWAP2 SWAP1 DUP2 DUP2 MSTORE PUSH1 0x20 ADD DUP3 DUP1 SLOAD PUSH3 0xCA8 SWAP1 PUSH3 0x37AA JUMP JUMPDEST DUP1 ISZERO PUSH3 0xCF9 JUMPI DUP1 PUSH1 0x1F LT PUSH3 0xCCD JUMPI PUSH2 0x100 DUP1 DUP4 SLOAD DIV MUL DUP4 MSTORE SWAP2 PUSH1 0x20 ADD SWAP2 PUSH3 0xCF9 JUMP JUMPDEST DUP3 ADD SWAP2 SWAP1 PUSH1 0x0 MSTORE PUSH1 0x20 PUSH1 0x0 KECCAK256 SWAP1 JUMPDEST DUP2 SLOAD DUP2 MSTORE SWAP1 PUSH1 0x1 ADD SWAP1 PUSH1 0x20 ADD DUP1 DUP4 GT PUSH3 0xCDB JUMPI DUP3 SWAP1 SUB PUSH1 0x1F AND DUP3 ADD SWAP2 JUMPDEST POP POP POP POP POP DUP2 MSTORE PUSH1 0x20 ADD PUSH1 0x1 DUP3 ADD DUP1 SLOAD PUSH3 0xD14 SWAP1 PUSH3 0x37AA JUMP JUMPDEST DUP1 PUSH1 0x1F ADD PUSH1 0x20 DUP1 SWAP2 DIV MUL PUSH1 0x20 ADD PUSH1 0x40 MLOAD SWAP1 DUP2 ADD PUSH1 0x40 MSTORE DUP1 SWAP3 SWAP2 SWAP1 DUP2 DUP2 MSTORE PUSH1 0x20 ADD DUP3 DUP1 SLOAD PUSH3 0xD42 SWAP1 PUSH3 0x37AA JUMP JUMPDEST DUP1 ISZERO PUSH3 0xD93 JUMPI DUP1 PUSH1 0x1F LT PUSH3 0xD67 JUMPI PUSH2 0x100 DUP1 DUP4 SLOAD DIV MUL DUP4 MSTORE SWAP2 PUSH1 0x20 ADD SWAP2 PUSH3 0xD93 JUMP JUMPDEST DUP3 ADD SWAP2 SWAP1 PUSH1 0x0 MSTORE PUSH1 0x20 PUSH1 0x0 KECCAK256 SWAP1 JUMPDEST DUP2 SLOAD DUP2 MSTORE SWAP1 PUSH1 0x1 ADD SWAP1 PUSH1 0x20 ADD DUP1 DUP4 GT PUSH3 0xD75 JUMPI DUP3 SWAP1 SUB PUSH1 0x1F AND DUP3 ADD SWAP2 JUMPDEST POP POP POP POP POP DUP2 MSTORE PUSH1 0x20 ADD PUSH1 0x2 DUP3 ADD SLOAD DUP2 MSTORE POP POP DUP2 MSTORE PUSH1 0x20 ADD SWAP1 PUSH1 0x1 ADD SWAP1 PUSH3 0xC44 JUMP JUMPDEST POP POP POP POP SWAP1 POP SWAP1 JUMP JUMPDEST PUSH1 0x0 PUSH1 0x6C PUSH1 0x0 CALLER PUSH20 0xFFFFFFFFFFFFFFFFFFFFFFFFFFFFFFFFFFFFFFFF AND PUSH20 0xFFFFFFFFFFFFFFFFFFFFFFFFFFFFFFFFFFFFFFFF AND DUP2 MSTORE PUSH1 0x20 ADD SWAP1 DUP2 MSTORE PUSH1 0x20 ADD PUSH1 0x0 KECCAK256 SLOAD GT PUSH3 0xE44 JUMPI PUSH1 0x40 MLOAD PUSH32 0x8C379A000000000000000000000000000000000000000000000000000000000 DUP2 MSTORE PUSH1 0x4 ADD PUSH3 0xE3B SWAP1 PUSH3 0x327A JUMP JUMPDEST PUSH1 0x40 MLOAD DUP1 SWAP2 SUB SWAP1 REVERT JUMPDEST PUSH1 0x4 PUSH1 0x6D PUSH1 0x0 CALLER PUSH20 0xFFFFFFFFFFFFFFFFFFFFFFFFFFFFFFFFFFFFFFFF AND PUSH20 0xFFFFFFFFFFFFFFFFFFFFFFFFFFFFFFFFFFFFFFFF AND DUP2 MSTORE PUSH1 0x20 ADD SWAP1 DUP2 MSTORE PUSH1 0x20 ADD PUSH1 0x0 KECCAK256 SLOAD LT PUSH3 0xEC9 JUMPI PUSH1 0x40 MLOAD PUSH32 0x8C379A000000000000000000000000000000000000000000000000000000000 DUP2 MSTORE PUSH1 0x4 ADD PUSH3 0xEC0 SWAP1 PUSH3 0x327A JUMP JUMPDEST PUSH1 0x40 MLOAD DUP1 SWAP2 SUB SWAP1 REVERT JUMPDEST PUSH1 0x1 PUSH1 0x6D PUSH1 0x0 CALLER PUSH20 0xFFFFFFFFFFFFFFFFFFFFFFFFFFFFFFFFFFFFFFFF AND PUSH20 0xFFFFFFFFFFFFFFFFFFFFFFFFFFFFFFFFFFFFFFFF AND DUP2 MSTORE PUSH1 0x20 ADD SWAP1 DUP2 MSTORE PUSH1 0x20 ADD PUSH1 0x0 KECCAK256 SLOAD PUSH3 0xF17 SWAP2 SWAP1 PUSH3 0x341A JUMP JUMPDEST PUSH1 0x6D PUSH1 0x0 CALLER PUSH20 0xFFFFFFFFFFFFFFFFFFFFFFFFFFFFFFFFFFFFFFFF AND PUSH20 0xFFFFFFFFFFFFFFFFFFFFFFFFFFFFFFFFFFFFFFFF AND DUP2 MSTORE PUSH1 0x20 ADD SWAP1 DUP2 MSTORE PUSH1 0x20 ADD PUSH1 0x0 KECCAK256 DUP2 SWAP1 SSTORE POP PUSH1 0x1 PUSH1 0x6C PUSH1 0x0 CALLER PUSH20 0xFFFFFFFFFFFFFFFFFFFFFFFFFFFFFFFFFFFFFFFF AND PUSH20 0xFFFFFFFFFFFFFFFFFFFFFFFFFFFFFFFFFFFFFFFF AND DUP2 MSTORE PUSH1 0x20 ADD SWAP1 DUP2 MSTORE PUSH1 0x20 ADD PUSH1 0x0 KECCAK256 SLOAD PUSH3 0xFA8 SWAP2 SWAP1 PUSH3 0x36AB JUMP JUMPDEST PUSH1 0x6C PUSH1 0x0 CALLER PUSH20 0xFFFFFFFFFFFFFFFFFFFFFFFFFFFFFFFFFFFFFFFF AND PUSH20 0xFFFFFFFFFFFFFFFFFFFFFFFFFFFFFFFFFFFFFFFF AND DUP2 MSTORE PUSH1 0x20 ADD SWAP1 DUP2 MSTORE PUSH1 0x20 ADD PUSH1 0x0 KECCAK256 DUP2 SWAP1 SSTORE POP PUSH1 0x6B PUSH1 0x0 CALLER PUSH20 0xFFFFFFFFFFFFFFFFFFFFFFFFFFFFFFFFFFFFFFFF AND PUSH20 0xFFFFFFFFFFFFFFFFFFFFFFFFFFFFFFFFFFFFFFFF AND DUP2 MSTORE PUSH1 0x20 ADD SWAP1 DUP2 MSTORE PUSH1 0x20 ADD PUSH1 0x0 KECCAK256 PUSH1 0x40 MLOAD DUP1 PUSH1 0x60 ADD PUSH1 0x40 MSTORE DUP1 DUP5 DUP2 MSTORE PUSH1 0x20 ADD DUP4 DUP2 MSTORE PUSH1 0x20 ADD TIMESTAMP DUP2 MSTORE POP SWAP1 DUP1 PUSH1 0x1 DUP2 SLOAD ADD DUP1 DUP3 SSTORE DUP1 SWAP2 POP POP PUSH1 0x1 SWAP1 SUB SWAP1 PUSH1 0x0 MSTORE PUSH1 0x20 PUSH1 0x0 KECCAK256 SWAP1 PUSH1 0x3 MUL ADD PUSH1 0x0 SWAP1 SWAP2 SWAP1 SWAP2 SWAP1 SWAP2 POP PUSH1 0x0 DUP3 ADD MLOAD DUP2 PUSH1 0x0 ADD SWAP1 DUP1 MLOAD SWAP1 PUSH1 0x20 ADD SWAP1 PUSH3 0x108C SWAP3 SWAP2 SWAP1 PUSH3 0x2231 JUMP JUMPDEST POP PUSH1 0x20 DUP3 ADD MLOAD DUP2 PUSH1 0x1 ADD SWAP1 DUP1 MLOAD SWAP1 PUSH1 0x20 ADD SWAP1 PUSH3 0x10AB SWAP3 SWAP2 SWAP1 PUSH3 0x2231 JUMP JUMPDEST POP PUSH1 0x40 DUP3 ADD MLOAD DUP2 PUSH1 0x2 ADD SSTORE POP POP PUSH1 0x0 PUSH1 0x1 PUSH8 0xFFFFFFFFFFFFFFFF DUP2 GT ISZERO PUSH3 0x10D8 JUMPI PUSH3 0x10D7 PUSH3 0x392A JUMP JUMPDEST JUMPDEST PUSH1 0x40 MLOAD SWAP1 DUP1 DUP3 MSTORE DUP1 PUSH1 0x20 MUL PUSH1 0x20 ADD DUP3 ADD PUSH1 0x40 MSTORE DUP1 ISZERO PUSH3 0x1107 JUMPI DUP2 PUSH1 0x20 ADD PUSH1 0x20 DUP3 MUL DUP1 CALLDATASIZE DUP4 CALLDATACOPY DUP1 DUP3 ADD SWAP2 POP POP SWAP1 POP JUMPDEST POP SWAP1 POP CALLER DUP2 PUSH1 0x0 DUP2 MLOAD DUP2 LT PUSH3 0x1122 JUMPI PUSH3 0x1121 PUSH3 0x38FB JUMP JUMPDEST JUMPDEST PUSH1 0x20 MUL PUSH1 0x20 ADD ADD SWAP1 PUSH20 0xFFFFFFFFFFFFFFFFFFFFFFFFFFFFFFFFFFFFFFFF AND SWAP1 DUP2 PUSH20 0xFFFFFFFFFFFFFFFFFFFFFFFFFFFFFFFFFFFFFFFF AND DUP2 MSTORE POP POP PUSH1 0x69 PUSH1 0x0 DUP2 SLOAD DUP1 SWAP3 SWAP2 SWAP1 PUSH3 0x1171 SWAP1 PUSH3 0x3816 JUMP JUMPDEST SWAP2 SWAP1 POP SSTORE POP PUSH1 0x40 MLOAD DUP1 PUSH1 0x60 ADD PUSH1 0x40 MSTORE DUP1 TIMESTAMP DUP2 MSTORE PUSH1 0x20 ADD DUP4 DUP2 MSTORE PUSH1 0x20 ADD DUP3 DUP2 MSTORE POP PUSH1 0x6A PUSH1 0x0 PUSH1 0x69 SLOAD DUP2 MSTORE PUSH1 0x20 ADD SWAP1 DUP2 MSTORE PUSH1 0x20 ADD PUSH1 0x0 KECCAK256 PUSH1 0x0 DUP3 ADD MLOAD DUP2 PUSH1 0x0 ADD SSTORE PUSH1 0x20 DUP3 ADD MLOAD DUP2 PUSH1 0x1 ADD SWAP1 DUP1 MLOAD SWAP1 PUSH1 0x20 ADD SWAP1 PUSH3 0x11CE SWAP3 SWAP2 SWAP1 PUSH3 0x2231 JUMP JUMPDEST POP PUSH1 0x40 DUP3 ADD MLOAD DUP2 PUSH1 0x2 ADD SWAP1 DUP1 MLOAD SWAP1 PUSH1 0x20 ADD SWAP1 PUSH3 0x11ED SWAP3 SWAP2 SWAP1 PUSH3 0x22C2 JUMP JUMPDEST POP SWAP1 POP POP POP POP POP JUMP JUMPDEST PUSH1 0x6B PUSH1 0x20 MSTORE DUP2 PUSH1 0x0 MSTORE PUSH1 0x40 PUSH1 0x0 KECCAK256 DUP2 DUP2 SLOAD DUP2 LT PUSH3 0x1213 JUMPI PUSH1 0x0 DUP1 REVERT JUMPDEST SWAP1 PUSH1 0x0 MSTORE PUSH1 0x20 PUSH1 0x0 KECCAK256 SWAP1 PUSH1 0x3 MUL ADD PUSH1 0x0 SWAP2 POP SWAP2 POP POP DUP1 PUSH1 0x0 ADD DUP1 SLOAD PUSH3 0x1239 SWAP1 PUSH3 0x37AA JUMP JUMPDEST DUP1 PUSH1 0x1F ADD PUSH1 0x20 DUP1 SWAP2 DIV MUL PUSH1 0x20 ADD PUSH1 0x40 MLOAD SWAP1 DUP2 ADD PUSH1 0x40 MSTORE DUP1 SWAP3 SWAP2 SWAP1 DUP2 DUP2 MSTORE PUSH1 0x20 ADD DUP3 DUP1 SLOAD PUSH3 0x1267 SWAP1 PUSH3 0x37AA JUMP JUMPDEST DUP1 ISZERO PUSH3 0x12B8 JUMPI DUP1 PUSH1 0x1F LT PUSH3 0x128C JUMPI PUSH2 0x100 DUP1 DUP4 SLOAD DIV MUL DUP4 MSTORE SWAP2 PUSH1 0x20 ADD SWAP2 PUSH3 0x12B8 JUMP JUMPDEST DUP3 ADD SWAP2 SWAP1 PUSH1 0x0 MSTORE PUSH1 0x20 PUSH1 0x0 KECCAK256 SWAP1 JUMPDEST DUP2 SLOAD DUP2 MSTORE SWAP1 PUSH1 0x1 ADD SWAP1 PUSH1 0x20 ADD DUP1 DUP4 GT PUSH3 0x129A JUMPI DUP3 SWAP1 SUB PUSH1 0x1F AND DUP3 ADD SWAP2 JUMPDEST POP POP POP POP POP SWAP1 DUP1 PUSH1 0x1 ADD DUP1 SLOAD PUSH3 0x12CF SWAP1 PUSH3 0x37AA JUMP JUMPDEST DUP1 PUSH1 0x1F ADD PUSH1 0x20 DUP1 SWAP2 DIV MUL PUSH1 0x20 ADD PUSH1 0x40 MLOAD SWAP1 DUP2 ADD PUSH1 0x40 MSTORE DUP1 SWAP3 SWAP2 SWAP1 DUP2 DUP2 MSTORE PUSH1 0x20 ADD DUP3 DUP1 SLOAD PUSH3 0x12FD SWAP1 PUSH3 0x37AA JUMP JUMPDEST DUP1 ISZERO PUSH3 0x134E JUMPI DUP1 PUSH1 0x1F LT PUSH3 0x1322 JUMPI PUSH2 0x100 DUP1 DUP4 SLOAD DIV MUL DUP4 MSTORE SWAP2 PUSH1 0x20 ADD SWAP2 PUSH3 0x134E JUMP JUMPDEST DUP3 ADD SWAP2 SWAP1 PUSH1 0x0 MSTORE PUSH1 0x20 PUSH1 0x0 KECCAK256 SWAP1 JUMPDEST DUP2 SLOAD DUP2 MSTORE SWAP1 PUSH1 0x1 ADD SWAP1 PUSH1 0x20 ADD DUP1 DUP4 GT PUSH3 0x1330 JUMPI DUP3 SWAP1 SUB PUSH1 0x1F AND DUP3 ADD SWAP2 JUMPDEST POP POP POP POP POP SWAP1 DUP1 PUSH1 0x2 ADD SLOAD SWAP1 POP DUP4 JUMP JUMPDEST PUSH1 0x6C PUSH1 0x20 MSTORE DUP1 PUSH1 0x0 MSTORE PUSH1 0x40 PUSH1 0x0 KECCAK256 PUSH1 0x0 SWAP2 POP SWAP1 POP SLOAD DUP2 JUMP JUMPDEST PUSH1 0x68 PUSH1 0x0 SWAP1 SLOAD SWAP1 PUSH2 0x100 EXP SWAP1 DIV PUSH1 0xFF AND DUP2 JUMP JUMPDEST PUSH32 0xD33D0562157A60742332E64B44A9829C8A0BF0D9739CF23D6BB4DBD505798465 DUP4 DUP4 DUP4 PUSH1 0x40 MLOAD PUSH3 0x13BE SWAP4 SWAP3 SWAP2 SWAP1 PUSH3 0x2F91 JUMP JUMPDEST PUSH1 0x40 MLOAD DUP1 SWAP2 SUB SWAP1 LOG1 POP POP POP JUMP JUMPDEST PUSH3 0x13D5 PUSH3 0x208A JUMP JUMPDEST PUSH20 0xFFFFFFFFFFFFFFFFFFFFFFFFFFFFFFFFFFFFFFFF AND PUSH3 0x13F5 PUSH3 0x16A3 JUMP JUMPDEST PUSH20 0xFFFFFFFFFFFFFFFFFFFFFFFFFFFFFFFFFFFFFFFF AND EQ PUSH3 0x144E JUMPI PUSH1 0x40 MLOAD PUSH32 0x8C379A000000000000000000000000000000000000000000000000000000000 DUP2 MSTORE PUSH1 0x4 ADD PUSH3 0x1445 SWAP1 PUSH3 0x316A JUMP JUMPDEST PUSH1 0x40 MLOAD DUP1 SWAP2 SUB SWAP1 REVERT JUMPDEST PUSH3 0x145A PUSH1 0x0 PUSH3 0x2092 JUMP JUMPDEST JUMP JUMPDEST PUSH3 0x1466 PUSH3 0x208A JUMP JUMPDEST PUSH20 0xFFFFFFFFFFFFFFFFFFFFFFFFFFFFFFFFFFFFFFFF AND PUSH3 0x1486 PUSH3 0x16A3 JUMP JUMPDEST PUSH20 0xFFFFFFFFFFFFFFFFFFFFFFFFFFFFFFFFFFFFFFFF AND EQ PUSH3 0x14DF JUMPI PUSH1 0x40 MLOAD PUSH32 0x8C379A000000000000000000000000000000000000000000000000000000000 DUP2 MSTORE PUSH1 0x4 ADD PUSH3 0x14D6 SWAP1 PUSH3 0x316A JUMP JUMPDEST PUSH1 0x40 MLOAD DUP1 SWAP2 SUB SWAP1 REVERT JUMPDEST PUSH1 0x1 PUSH1 0x68 PUSH1 0x0 PUSH2 0x100 EXP DUP2 SLOAD DUP2 PUSH1 0xFF MUL NOT AND SWAP1 DUP4 ISZERO ISZERO MUL OR SWAP1 SSTORE POP JUMP JUMPDEST PUSH1 0x0 PUSH1 0x1 SWAP1 SLOAD SWAP1 PUSH2 0x100 EXP SWAP1 DIV PUSH1 0xFF AND PUSH3 0x1526 JUMPI PUSH1 0x0 DUP1 SLOAD SWAP1 PUSH2 0x100 EXP SWAP1 DIV PUSH1 0xFF AND ISZERO PUSH3 0x1531 JUMP JUMPDEST PUSH3 0x1530 PUSH3 0x2158 JUMP JUMPDEST JUMPDEST PUSH3 0x1573 JUMPI PUSH1 0x40 MLOAD PUSH32 0x8C379A000000000000000000000000000000000000000000000000000000000 DUP2 MSTORE PUSH1 0x4 ADD PUSH3 0x156A SWAP1 PUSH3 0x3148 JUMP JUMPDEST PUSH1 0x40 MLOAD DUP1 SWAP2 SUB SWAP1 REVERT JUMPDEST PUSH1 0x0 DUP1 PUSH1 0x1 SWAP1 SLOAD SWAP1 PUSH2 0x100 EXP SWAP1 DIV PUSH1 0xFF AND ISZERO SWAP1 POP DUP1 ISZERO PUSH3 0x15C4 JUMPI PUSH1 0x1 PUSH1 0x0 PUSH1 0x1 PUSH2 0x100 EXP DUP2 SLOAD DUP2 PUSH1 0xFF MUL NOT AND SWAP1 DUP4 ISZERO ISZERO MUL OR SWAP1 SSTORE POP PUSH1 0x1 PUSH1 0x0 DUP1 PUSH2 0x100 EXP DUP2 SLOAD DUP2 PUSH1 0xFF MUL NOT AND SWAP1 DUP4 ISZERO ISZERO MUL OR SWAP1 SSTORE POP JUMPDEST PUSH3 0x15CE PUSH3 0x216B JUMP JUMPDEST PUSH20 0xD0D5E3DB44DE05E9F294BB0A3BEEAF030DE24ADA PUSH1 0x40 MLOAD PUSH3 0x15F1 SWAP1 PUSH3 0x2351 JUMP JUMPDEST PUSH3 0x15FD SWAP2 SWAP1 PUSH3 0x2E77 JUMP JUMPDEST PUSH1 0x40 MLOAD DUP1 SWAP2 SUB SWAP1 PUSH1 0x0 CREATE DUP1 ISZERO DUP1 ISZERO PUSH3 0x161A JUMPI RETURNDATASIZE PUSH1 0x0 DUP1 RETURNDATACOPY RETURNDATASIZE PUSH1 0x0 REVERT JUMPDEST POP PUSH1 0x65 PUSH1 0x0 PUSH2 0x100 EXP DUP2 SLOAD DUP2 PUSH20 0xFFFFFFFFFFFFFFFFFFFFFFFFFFFFFFFFFFFFFFFF MUL NOT AND SWAP1 DUP4 PUSH20 0xFFFFFFFFFFFFFFFFFFFFFFFFFFFFFFFFFFFFFFFF AND MUL OR SWAP1 SSTORE POP PUSH1 0x63 PUSH1 0x66 DUP2 SWAP1 SSTORE POP PUSH1 0x0 PUSH1 0x68 PUSH1 0x0 PUSH2 0x100 EXP DUP2 SLOAD DUP2 PUSH1 0xFF MUL NOT AND SWAP1 DUP4 ISZERO ISZERO MUL OR SWAP1 SSTORE POP DUP1 ISZERO PUSH3 0x16A0 JUMPI PUSH1 0x0 DUP1 PUSH1 0x1 PUSH2 0x100 EXP DUP2 SLOAD DUP2 PUSH1 0xFF MUL NOT AND SWAP1 DUP4 ISZERO ISZERO MUL OR SWAP1 SSTORE POP JUMPDEST POP JUMP JUMPDEST PUSH1 0x0 PUSH1 0x33 PUSH1 0x0 SWAP1 SLOAD SWAP1 PUSH2 0x100 EXP SWAP1 DIV PUSH20 0xFFFFFFFFFFFFFFFFFFFFFFFFFFFFFFFFFFFFFFFF AND SWAP1 POP SWAP1 JUMP JUMPDEST PUSH1 0x6A PUSH1 0x20 MSTORE DUP1 PUSH1 0x0 MSTORE PUSH1 0x40 PUSH1 0x0 KECCAK256 PUSH1 0x0 SWAP2 POP SWAP1 POP DUP1 PUSH1 0x0 ADD SLOAD SWAP1 DUP1 PUSH1 0x1 ADD DUP1 SLOAD PUSH3 0x16F8 SWAP1 PUSH3 0x37AA JUMP JUMPDEST DUP1 PUSH1 0x1F ADD PUSH1 0x20 DUP1 SWAP2 DIV MUL PUSH1 0x20 ADD PUSH1 0x40 MLOAD SWAP1 DUP2 ADD PUSH1 0x40 MSTORE DUP1 SWAP3 SWAP2 SWAP1 DUP2 DUP2 MSTORE PUSH1 0x20 ADD DUP3 DUP1 SLOAD PUSH3 0x1726 SWAP1 PUSH3 0x37AA JUMP JUMPDEST DUP1 ISZERO PUSH3 0x1777 JUMPI DUP1 PUSH1 0x1F LT PUSH3 0x174B JUMPI PUSH2 0x100 DUP1 DUP4 SLOAD DIV MUL DUP4 MSTORE SWAP2 PUSH1 0x20 ADD SWAP2 PUSH3 0x1777 JUMP JUMPDEST DUP3 ADD SWAP2 SWAP1 PUSH1 0x0 MSTORE PUSH1 0x20 PUSH1 0x0 KECCAK256 SWAP1 JUMPDEST DUP2 SLOAD DUP2 MSTORE SWAP1 PUSH1 0x1 ADD SWAP1 PUSH1 0x20 ADD DUP1 DUP4 GT PUSH3 0x1759 JUMPI DUP3 SWAP1 SUB PUSH1 0x1F AND DUP3 ADD SWAP2 JUMPDEST POP POP POP POP POP SWAP1 POP DUP3 JUMP JUMPDEST PUSH1 0x6D PUSH1 0x20 MSTORE DUP1 PUSH1 0x0 MSTORE PUSH1 0x40 PUSH1 0x0 KECCAK256 PUSH1 0x0 SWAP2 POP SWAP1 POP SLOAD DUP2 JUMP JUMPDEST PUSH3 0x17A3 PUSH3 0x208A JUMP JUMPDEST PUSH20 0xFFFFFFFFFFFFFFFFFFFFFFFFFFFFFFFFFFFFFFFF AND PUSH3 0x17C3 PUSH3 0x16A3 JUMP JUMPDEST PUSH20 0xFFFFFFFFFFFFFFFFFFFFFFFFFFFFFFFFFFFFFFFF AND EQ PUSH3 0x181C JUMPI PUSH1 0x40 MLOAD PUSH32 0x8C379A000000000000000000000000000000000000000000000000000000000 DUP2 MSTORE PUSH1 0x4 ADD PUSH3 0x1813 SWAP1 PUSH3 0x316A JUMP JUMPDEST PUSH1 0x40 MLOAD DUP1 SWAP2 SUB SWAP1 REVERT JUMPDEST PUSH1 0x0 PUSH1 0x67 DUP3 PUSH1 0x40 MLOAD PUSH3 0x1830 SWAP2 SWAP1 PUSH3 0x2E1D JUMP JUMPDEST SWAP1 DUP2 MSTORE PUSH1 0x20 ADD PUSH1 0x40 MLOAD DUP1 SWAP2 SUB SWAP1 KECCAK256 SLOAD EQ ISZERO PUSH3 0x1883 JUMPI PUSH1 0x40 MLOAD PUSH32 0x8C379A000000000000000000000000000000000000000000000000000000000 DUP2 MSTORE PUSH1 0x4 ADD PUSH3 0x187A SWAP1 PUSH3 0x31D0 JUMP JUMPDEST PUSH1 0x40 MLOAD DUP1 SWAP2 SUB SWAP1 REVERT JUMPDEST PUSH1 0x0 PUSH1 0x67 DUP3 PUSH1 0x40 MLOAD PUSH3 0x1897 SWAP2 SWAP1 PUSH3 0x2E1D JUMP JUMPDEST SWAP1 DUP2 MSTORE PUSH1 0x20 ADD PUSH1 0x40 MLOAD DUP1 SWAP2 SUB SWAP1 KECCAK256 DUP2 SWAP1 SSTORE POP PUSH32 0x1C40E49688E963884D475FEDA3DDB42C17AEC5D2A82706904BA014EE7CE54A2A DUP2 PUSH1 0x40 MLOAD PUSH3 0x18DA SWAP2 SWAP1 PUSH3 0x303F JUMP JUMPDEST PUSH1 0x40 MLOAD DUP1 SWAP2 SUB SWAP1 LOG1 POP JUMP JUMPDEST PUSH3 0x18EF PUSH3 0x208A JUMP JUMPDEST PUSH20 0xFFFFFFFFFFFFFFFFFFFFFFFFFFFFFFFFFFFFFFFF AND PUSH3 0x190F PUSH3 0x16A3 JUMP JUMPDEST PUSH20 0xFFFFFFFFFFFFFFFFFFFFFFFFFFFFFFFFFFFFFFFF AND EQ PUSH3 0x1968 JUMPI PUSH1 0x40 MLOAD PUSH32 0x8C379A000000000000000000000000000000000000000000000000000000000 DUP2 MSTORE PUSH1 0x4 ADD PUSH3 0x195F SWAP1 PUSH3 0x316A JUMP JUMPDEST PUSH1 0x40 MLOAD DUP1 SWAP2 SUB SWAP1 REVERT JUMPDEST PUSH1 0x0 PUSH1 0x67 DUP4 PUSH1 0x40 MLOAD PUSH3 0x197C SWAP2 SWAP1 PUSH3 0x2E1D JUMP JUMPDEST SWAP1 DUP2 MSTORE PUSH1 0x20 ADD PUSH1 0x40 MLOAD DUP1 SWAP2 SUB SWAP1 KECCAK256 SLOAD EQ PUSH3 0x19CE JUMPI PUSH1 0x40 MLOAD PUSH32 0x8C379A000000000000000000000000000000000000000000000000000000000 DUP2 MSTORE PUSH1 0x4 ADD PUSH3 0x19C5 SWAP1 PUSH3 0x3126 JUMP JUMPDEST PUSH1 0x40 MLOAD DUP1 SWAP2 SUB SWAP1 REVERT JUMPDEST DUP1 PUSH1 0x67 DUP4 PUSH1 0x40 MLOAD PUSH3 0x19E1 SWAP2 SWAP1 PUSH3 0x2E1D JUMP JUMPDEST SWAP1 DUP2 MSTORE PUSH1 0x20 ADD PUSH1 0x40 MLOAD DUP1 SWAP2 SUB SWAP1 KECCAK256 DUP2 SWAP1 SSTORE POP PUSH32 0xF4B08CC3E0A40010C33B8FF2C72A0DD4F2A833269CF43CEE1A7D94B70B0010CF DUP3 DUP3 PUSH1 0x40 MLOAD PUSH3 0x1A26 SWAP3 SWAP2 SWAP1 PUSH3 0x3063 JUMP JUMPDEST PUSH1 0x40 MLOAD DUP1 SWAP2 SUB SWAP1 LOG1 POP POP JUMP JUMPDEST PUSH3 0x1A3C PUSH3 0x208A JUMP JUMPDEST PUSH20 0xFFFFFFFFFFFFFFFFFFFFFFFFFFFFFFFFFFFFFFFF AND PUSH3 0x1A5C PUSH3 0x16A3 JUMP JUMPDEST PUSH20 0xFFFFFFFFFFFFFFFFFFFFFFFFFFFFFFFFFFFFFFFF AND EQ PUSH3 0x1AB5 JUMPI PUSH1 0x40 MLOAD PUSH32 0x8C379A000000000000000000000000000000000000000000000000000000000 DUP2 MSTORE PUSH1 0x4 ADD PUSH3 0x1AAC SWAP1 PUSH3 0x316A JUMP JUMPDEST PUSH1 0x40 MLOAD DUP1 SWAP2 SUB SWAP1 REVERT JUMPDEST DUP1 PUSH1 0x66 DUP2 SWAP1 SSTORE POP POP JUMP JUMPDEST PUSH1 0x0 PUSH1 0x65 PUSH1 0x0 SWAP1 SLOAD SWAP1 PUSH2 0x100 EXP SWAP1 DIV PUSH20 0xFFFFFFFFFFFFFFFFFFFFFFFFFFFFFFFFFFFFFFFF AND PUSH20 0xFFFFFFFFFFFFFFFFFFFFFFFFFFFFFFFFFFFFFFFF AND PUSH4 0x8E15F473 PUSH1 0x40 MLOAD DUP2 PUSH4 0xFFFFFFFF AND PUSH1 0xE0 SHL DUP2 MSTORE PUSH1 0x4 ADD PUSH1 0x20 PUSH1 0x40 MLOAD DUP1 DUP4 SUB DUP2 DUP7 DUP1 EXTCODESIZE ISZERO DUP1 ISZERO PUSH3 0x1B2A JUMPI PUSH1 0x0 DUP1 REVERT JUMPDEST POP GAS STATICCALL ISZERO DUP1 ISZERO PUSH3 0x1B3F JUMPI RETURNDATASIZE PUSH1 0x0 DUP1 RETURNDATACOPY RETURNDATASIZE PUSH1 0x0 REVERT JUMPDEST POP POP POP POP PUSH1 0x40 MLOAD RETURNDATASIZE PUSH1 0x1F NOT PUSH1 0x1F DUP3 ADD AND DUP3 ADD DUP1 PUSH1 0x40 MSTORE POP DUP2 ADD SWAP1 PUSH3 0x1B65 SWAP2 SWAP1 PUSH3 0x268C JUMP JUMPDEST SWAP1 POP SWAP1 JUMP JUMPDEST PUSH3 0x1B74 PUSH3 0x208A JUMP JUMPDEST PUSH20 0xFFFFFFFFFFFFFFFFFFFFFFFFFFFFFFFFFFFFFFFF AND PUSH3 0x1B94 PUSH3 0x16A3 JUMP JUMPDEST PUSH20 0xFFFFFFFFFFFFFFFFFFFFFFFFFFFFFFFFFFFFFFFF AND EQ PUSH3 0x1BED JUMPI PUSH1 0x40 MLOAD PUSH32 0x8C379A000000000000000000000000000000000000000000000000000000000 DUP2 MSTORE PUSH1 0x4 ADD PUSH3 0x1BE4 SWAP1 PUSH3 0x316A JUMP JUMPDEST PUSH1 0x40 MLOAD DUP1 SWAP2 SUB SWAP1 REVERT JUMPDEST PUSH1 0x0 PUSH1 0x67 DUP4 PUSH1 0x40 MLOAD PUSH3 0x1C01 SWAP2 SWAP1 PUSH3 0x2E1D JUMP JUMPDEST SWAP1 DUP2 MSTORE PUSH1 0x20 ADD PUSH1 0x40 MLOAD DUP1 SWAP2 SUB SWAP1 KECCAK256 SLOAD EQ ISZERO PUSH3 0x1C54 JUMPI PUSH1 0x40 MLOAD PUSH32 0x8C379A000000000000000000000000000000000000000000000000000000000 DUP2 MSTORE PUSH1 0x4 ADD PUSH3 0x1C4B SWAP1 PUSH3 0x31D0 JUMP JUMPDEST PUSH1 0x40 MLOAD DUP1 SWAP2 SUB SWAP1 REVERT JUMPDEST DUP1 PUSH1 0x67 DUP4 PUSH1 0x40 MLOAD PUSH3 0x1C67 SWAP2 SWAP1 PUSH3 0x2E1D JUMP JUMPDEST SWAP1 DUP2 MSTORE PUSH1 0x20 ADD PUSH1 0x40 MLOAD DUP1 SWAP2 SUB SWAP1 KECCAK256 DUP2 SWAP1 SSTORE POP PUSH32 0x903216719CA59A2B59C1BF0212C8CAD2A6AE6E8DA3576EBF8AB07343F3FECA84 DUP3 DUP3 PUSH1 0x40 MLOAD PUSH3 0x1CAC SWAP3 SWAP2 SWAP1 PUSH3 0x3063 JUMP JUMPDEST PUSH1 0x40 MLOAD DUP1 SWAP2 SUB SWAP1 LOG1 POP POP JUMP JUMPDEST PUSH1 0x0 DUP8 DUP8 PUSH1 0x40 MLOAD PUSH1 0x20 ADD PUSH3 0x1CCF SWAP3 SWAP2 SWAP1 PUSH3 0x2F5D JUMP JUMPDEST PUSH1 0x40 MLOAD PUSH1 0x20 DUP2 DUP4 SUB SUB DUP2 MSTORE SWAP1 PUSH1 0x40 MSTORE DUP1 MLOAD SWAP1 PUSH1 0x20 ADD KECCAK256 SWAP1 POP PUSH1 0x0 DUP2 PUSH1 0x40 MLOAD PUSH1 0x20 ADD PUSH3 0x1CFC SWAP2 SWAP1 PUSH3 0x2E36 JUMP JUMPDEST PUSH1 0x40 MLOAD PUSH1 0x20 DUP2 DUP4 SUB SUB DUP2 MSTORE SWAP1 PUSH1 0x40 MSTORE DUP1 MLOAD SWAP1 PUSH1 0x20 ADD KECCAK256 SWAP1 POP PUSH1 0x0 PUSH1 0x1 DUP3 DUP8 DUP8 DUP8 PUSH1 0x40 MLOAD PUSH1 0x0 DUP2 MSTORE PUSH1 0x20 ADD PUSH1 0x40 MSTORE PUSH1 0x40 MLOAD PUSH3 0x1D3B SWAP5 SWAP4 SWAP3 SWAP2 SWAP1 PUSH3 0x2FD5 JUMP JUMPDEST PUSH1 0x20 PUSH1 0x40 MLOAD PUSH1 0x20 DUP2 SUB SWAP1 DUP1 DUP5 SUB SWAP1 DUP6 GAS STATICCALL ISZERO DUP1 ISZERO PUSH3 0x1D5E JUMPI RETURNDATASIZE PUSH1 0x0 DUP1 RETURNDATACOPY RETURNDATASIZE PUSH1 0x0 REVERT JUMPDEST POP POP POP PUSH1 0x20 PUSH1 0x40 MLOAD SUB MLOAD SWAP1 POP DUP1 PUSH20 0xFFFFFFFFFFFFFFFFFFFFFFFFFFFFFFFFFFFFFFFF AND DUP8 PUSH20 0xFFFFFFFFFFFFFFFFFFFFFFFFFFFFFFFFFFFFFFFF AND EQ PUSH3 0x1DDB JUMPI PUSH1 0x40 MLOAD PUSH32 0x8C379A000000000000000000000000000000000000000000000000000000000 DUP2 MSTORE PUSH1 0x4 ADD PUSH3 0x1DD2 SWAP1 PUSH3 0x30E2 JUMP JUMPDEST PUSH1 0x40 MLOAD DUP1 SWAP2 SUB SWAP1 REVERT JUMPDEST PUSH3 0x1DE7 DUP10 DUP10 PUSH3 0xDBF JUMP JUMPDEST PUSH3 0x1DF4 DUP11 DUP11 DUP4 PUSH3 0x1389 JUMP JUMPDEST POP POP POP POP POP POP POP POP POP POP JUMP JUMPDEST PUSH3 0x1E0A PUSH3 0x208A JUMP JUMPDEST PUSH20 0xFFFFFFFFFFFFFFFFFFFFFFFFFFFFFFFFFFFFFFFF AND PUSH3 0x1E2A PUSH3 0x16A3 JUMP JUMPDEST PUSH20 0xFFFFFFFFFFFFFFFFFFFFFFFFFFFFFFFFFFFFFFFF AND EQ PUSH3 0x1E83 JUMPI PUSH1 0x40 MLOAD PUSH32 0x8C379A000000000000000000000000000000000000000000000000000000000 DUP2 MSTORE PUSH1 0x4 ADD PUSH3 0x1E7A SWAP1 PUSH3 0x316A JUMP JUMPDEST PUSH1 0x40 MLOAD DUP1 SWAP2 SUB SWAP1 REVERT JUMPDEST PUSH1 0x0 PUSH20 0xFFFFFFFFFFFFFFFFFFFFFFFFFFFFFFFFFFFFFFFF AND DUP2 PUSH20 0xFFFFFFFFFFFFFFFFFFFFFFFFFFFFFFFFFFFFFFFF AND EQ ISZERO PUSH3 0x1EF6 JUMPI PUSH1 0x40 MLOAD PUSH32 0x8C379A000000000000000000000000000000000000000000000000000000000 DUP2 MSTORE PUSH1 0x4 ADD PUSH3 0x1EED SWAP1 PUSH3 0x3104 JUMP JUMPDEST PUSH1 0x40 MLOAD DUP1 SWAP2 SUB SWAP1 REVERT JUMPDEST PUSH3 0x1F01 DUP2 PUSH3 0x2092 JUMP JUMPDEST POP JUMP JUMPDEST PUSH3 0x1F0E PUSH3 0x235F JUMP JUMPDEST PUSH1 0x6A PUSH1 0x0 DUP4 DUP2 MSTORE PUSH1 0x20 ADD SWAP1 DUP2 MSTORE PUSH1 0x20 ADD PUSH1 0x0 KECCAK256 PUSH1 0x40 MLOAD DUP1 PUSH1 0x60 ADD PUSH1 0x40 MSTORE SWAP1 DUP2 PUSH1 0x0 DUP3 ADD SLOAD DUP2 MSTORE PUSH1 0x20 ADD PUSH1 0x1 DUP3 ADD DUP1 SLOAD PUSH3 0x1F48 SWAP1 PUSH3 0x37AA JUMP JUMPDEST DUP1 PUSH1 0x1F ADD PUSH1 0x20 DUP1 SWAP2 DIV MUL PUSH1 0x20 ADD PUSH1 0x40 MLOAD SWAP1 DUP2 ADD PUSH1 0x40 MSTORE DUP1 SWAP3 SWAP2 SWAP1 DUP2 DUP2 MSTORE PUSH1 0x20 ADD DUP3 DUP1 SLOAD PUSH3 0x1F76 SWAP1 PUSH3 0x37AA JUMP JUMPDEST DUP1 ISZERO PUSH3 0x1FC7 JUMPI DUP1 PUSH1 0x1F LT PUSH3 0x1F9B JUMPI PUSH2 0x100 DUP1 DUP4 SLOAD DIV MUL DUP4 MSTORE SWAP2 PUSH1 0x20 ADD SWAP2 PUSH3 0x1FC7 JUMP JUMPDEST DUP3 ADD SWAP2 SWAP1 PUSH1 0x0 MSTORE PUSH1 0x20 PUSH1 0x0 KECCAK256 SWAP1 JUMPDEST DUP2 SLOAD DUP2 MSTORE SWAP1 PUSH1 0x1 ADD SWAP1 PUSH1 0x20 ADD DUP1 DUP4 GT PUSH3 0x1FA9 JUMPI DUP3 SWAP1 SUB PUSH1 0x1F AND DUP3 ADD SWAP2 JUMPDEST POP POP POP POP POP DUP2 MSTORE PUSH1 0x20 ADD PUSH1 0x2 DUP3 ADD DUP1 SLOAD DUP1 PUSH1 0x20 MUL PUSH1 0x20 ADD PUSH1 0x40 MLOAD SWAP1 DUP2 ADD PUSH1 0x40 MSTORE DUP1 SWAP3 SWAP2 SWAP1 DUP2 DUP2 MSTORE PUSH1 0x20 ADD DUP3 DUP1 SLOAD DUP1 ISZERO PUSH3 0x2057 JUMPI PUSH1 0x20 MUL DUP3 ADD SWAP2 SWAP1 PUSH1 0x0 MSTORE PUSH1 0x20 PUSH1 0x0 KECCAK256 SWAP1 JUMPDEST DUP2 PUSH1 0x0 SWAP1 SLOAD SWAP1 PUSH2 0x100 EXP SWAP1 DIV PUSH20 0xFFFFFFFFFFFFFFFFFFFFFFFFFFFFFFFFFFFFFFFF AND PUSH20 0xFFFFFFFFFFFFFFFFFFFFFFFFFFFFFFFFFFFFFFFF AND DUP2 MSTORE PUSH1 0x20 ADD SWAP1 PUSH1 0x1 ADD SWAP1 DUP1 DUP4 GT PUSH3 0x200C JUMPI JUMPDEST POP POP POP POP POP DUP2 MSTORE POP POP SWAP1 POP SWAP2 SWAP1 POP JUMP JUMPDEST PUSH1 0x0 DUP1 DUP3 PUSH20 0xFFFFFFFFFFFFFFFFFFFFFFFFFFFFFFFFFFFFFFFF AND EXTCODESIZE GT SWAP1 POP SWAP2 SWAP1 POP JUMP JUMPDEST PUSH1 0x0 CALLER SWAP1 POP SWAP1 JUMP JUMPDEST PUSH1 0x0 PUSH1 0x33 PUSH1 0x0 SWAP1 SLOAD SWAP1 PUSH2 0x100 EXP SWAP1 DIV PUSH20 0xFFFFFFFFFFFFFFFFFFFFFFFFFFFFFFFFFFFFFFFF AND SWAP1 POP DUP2 PUSH1 0x33 PUSH1 0x0 PUSH2 0x100 EXP DUP2 SLOAD DUP2 PUSH20 0xFFFFFFFFFFFFFFFFFFFFFFFFFFFFFFFFFFFFFFFF MUL NOT AND SWAP1 DUP4 PUSH20 0xFFFFFFFFFFFFFFFFFFFFFFFFFFFFFFFFFFFFFFFF AND MUL OR SWAP1 SSTORE POP DUP2 PUSH20 0xFFFFFFFFFFFFFFFFFFFFFFFFFFFFFFFFFFFFFFFF AND DUP2 PUSH20 0xFFFFFFFFFFFFFFFFFFFFFFFFFFFFFFFFFFFFFFFF AND PUSH32 0x8BE0079C531659141344CD1FD0A4F28419497F9722A3DAAFE3B4186F6B6457E0 PUSH1 0x40 MLOAD PUSH1 0x40 MLOAD DUP1 SWAP2 SUB SWAP1 LOG3 POP POP JUMP JUMPDEST PUSH1 0x0 PUSH3 0x2165 ADDRESS PUSH3 0x2067 JUMP JUMPDEST ISZERO SWAP1 POP SWAP1 JUMP JUMPDEST PUSH1 0x0 PUSH1 0x1 SWAP1 SLOAD SWAP1 PUSH2 0x100 EXP SWAP1 DIV PUSH1 0xFF AND PUSH3 0x21BD JUMPI PUSH1 0x40 MLOAD PUSH32 0x8C379A000000000000000000000000000000000000000000000000000000000 DUP2 MSTORE PUSH1 0x4 ADD PUSH3 0x21B4 SWAP1 PUSH3 0x3236 JUMP JUMPDEST PUSH1 0x40 MLOAD DUP1 SWAP2 SUB SWAP1 REVERT JUMPDEST PUSH3 0x21C7 PUSH3 0x21C9 JUMP JUMPDEST JUMP JUMPDEST PUSH1 0x0 PUSH1 0x1 SWAP1 SLOAD SWAP1 PUSH2 0x100 EXP SWAP1 DIV PUSH1 0xFF AND PUSH3 0x221B JUMPI PUSH1 0x40 MLOAD PUSH32 0x8C379A000000000000000000000000000000000000000000000000000000000 DUP2 MSTORE PUSH1 0x4 ADD PUSH3 0x2212 SWAP1 PUSH3 0x3236 JUMP JUMPDEST PUSH1 0x40 MLOAD DUP1 SWAP2 SUB SWAP1 REVERT JUMPDEST PUSH3 0x222F PUSH3 0x2229 PUSH3 0x208A JUMP JUMPDEST PUSH3 0x2092 JUMP JUMPDEST JUMP JUMPDEST DUP3 DUP1 SLOAD PUSH3 0x223F SWAP1 PUSH3 0x37AA JUMP JUMPDEST SWAP1 PUSH1 0x0 MSTORE PUSH1 0x20 PUSH1 0x0 KECCAK256 SWAP1 PUSH1 0x1F ADD PUSH1 0x20 SWAP1 DIV DUP2 ADD SWAP3 DUP3 PUSH3 0x2263 JUMPI PUSH1 0x0 DUP6 SSTORE PUSH3 0x22AF JUMP JUMPDEST DUP3 PUSH1 0x1F LT PUSH3 0x227E JUMPI DUP1 MLOAD PUSH1 0xFF NOT AND DUP4 DUP1 ADD OR DUP6 SSTORE PUSH3 0x22AF JUMP JUMPDEST DUP3 DUP1 ADD PUSH1 0x1 ADD DUP6 SSTORE DUP3 ISZERO PUSH3 0x22AF JUMPI SWAP2 DUP3 ADD JUMPDEST DUP3 DUP2 GT ISZERO PUSH3 0x22AE JUMPI DUP3 MLOAD DUP3 SSTORE SWAP2 PUSH1 0x20 ADD SWAP2 SWAP1 PUSH1 0x1 ADD SWAP1 PUSH3 0x2291 JUMP JUMPDEST JUMPDEST POP SWAP1 POP PUSH3 0x22BE SWAP2 SWAP1 PUSH3 0x2380 JUMP JUMPDEST POP SWAP1 JUMP JUMPDEST DUP3 DUP1 SLOAD DUP3 DUP3 SSTORE SWAP1 PUSH1 0x0 MSTORE PUSH1 0x20 PUSH1 0x0 KECCAK256 SWAP1 DUP2 ADD SWAP3 DUP3 ISZERO PUSH3 0x233E JUMPI SWAP2 PUSH1 0x20 MUL DUP3 ADD JUMPDEST DUP3 DUP2 GT ISZERO PUSH3 0x233D JUMPI DUP3 MLOAD DUP3 PUSH1 0x0 PUSH2 0x100 EXP DUP2 SLOAD DUP2 PUSH20 0xFFFFFFFFFFFFFFFFFFFFFFFFFFFFFFFFFFFFFFFF MUL NOT AND SWAP1 DUP4 PUSH20 0xFFFFFFFFFFFFFFFFFFFFFFFFFFFFFFFFFFFFFFFF AND MUL OR SWAP1 SSTORE POP SWAP2 PUSH1 0x20 ADD SWAP2 SWAP1 PUSH1 0x1 ADD SWAP1 PUSH3 0x22E3 JUMP JUMPDEST JUMPDEST POP SWAP1 POP PUSH3 0x234D SWAP2 SWAP1 PUSH3 0x2380 JUMP JUMPDEST POP SWAP1 JUMP JUMPDEST PUSH2 0x3AF DUP1 PUSH3 0x3D26 DUP4 CODECOPY ADD SWAP1 JUMP JUMPDEST PUSH1 0x40 MLOAD DUP1 PUSH1 0x60 ADD PUSH1 0x40 MSTORE DUP1 PUSH1 0x0 DUP2 MSTORE PUSH1 0x20 ADD PUSH1 0x60 DUP2 MSTORE PUSH1 0x20 ADD PUSH1 0x60 DUP2 MSTORE POP SWAP1 JUMP JUMPDEST JUMPDEST DUP1 DUP3 GT ISZERO PUSH3 0x239B JUMPI PUSH1 0x0 DUP2 PUSH1 0x0 SWAP1 SSTORE POP PUSH1 0x1 ADD PUSH3 0x2381 JUMP JUMPDEST POP SWAP1 JUMP JUMPDEST PUSH1 0x0 PUSH3 0x23B6 PUSH3 0x23B0 DUP5 PUSH3 0x333A JUMP JUMPDEST PUSH3 0x3311 JUMP JUMPDEST SWAP1 POP DUP3 DUP2 MSTORE PUSH1 0x20 DUP2 ADD DUP5 DUP5 DUP5 ADD GT ISZERO PUSH3 0x23D5 JUMPI PUSH3 0x23D4 PUSH3 0x395E JUMP JUMPDEST JUMPDEST PUSH3 0x23E2 DUP5 DUP3 DUP6 PUSH3 0x3765 JUMP JUMPDEST POP SWAP4 SWAP3 POP POP POP JUMP JUMPDEST PUSH1 0x0 DUP2 CALLDATALOAD SWAP1 POP PUSH3 0x23FB DUP2 PUSH3 0x3CA3 JUMP JUMPDEST SWAP3 SWAP2 POP POP JUMP JUMPDEST PUSH1 0x0 DUP2 CALLDATALOAD SWAP1 POP PUSH3 0x2412 DUP2 PUSH3 0x3CBD JUMP JUMPDEST SWAP3 SWAP2 POP POP JUMP JUMPDEST PUSH1 0x0 DUP2 CALLDATALOAD SWAP1 POP PUSH3 0x2429 DUP2 PUSH3 0x3CD7 JUMP JUMPDEST SWAP3 SWAP2 POP POP JUMP JUMPDEST PUSH1 0x0 DUP2 MLOAD SWAP1 POP PUSH3 0x2440 DUP2 PUSH3 0x3CD7 JUMP JUMPDEST SWAP3 SWAP2 POP POP JUMP JUMPDEST PUSH1 0x0 DUP3 PUSH1 0x1F DUP4 ADD SLT PUSH3 0x245E JUMPI PUSH3 0x245D PUSH3 0x3959 JUMP JUMPDEST JUMPDEST DUP2 CALLDATALOAD PUSH3 0x2470 DUP5 DUP3 PUSH1 0x20 DUP7 ADD PUSH3 0x239F JUMP JUMPDEST SWAP2 POP POP SWAP3 SWAP2 POP POP JUMP JUMPDEST PUSH1 0x0 DUP2 CALLDATALOAD SWAP1 POP PUSH3 0x248A DUP2 PUSH3 0x3CF1 JUMP JUMPDEST SWAP3 SWAP2 POP POP JUMP JUMPDEST PUSH1 0x0 DUP2 CALLDATALOAD SWAP1 POP PUSH3 0x24A1 DUP2 PUSH3 0x3D0B JUMP JUMPDEST SWAP3 SWAP2 POP POP JUMP JUMPDEST PUSH1 0x0 PUSH1 0x20 DUP3 DUP5 SUB SLT ISZERO PUSH3 0x24C0 JUMPI PUSH3 0x24BF PUSH3 0x3968 JUMP JUMPDEST JUMPDEST PUSH1 0x0 PUSH3 0x24D0 DUP5 DUP3 DUP6 ADD PUSH3 0x23EA JUMP JUMPDEST SWAP2 POP POP SWAP3 SWAP2 POP POP JUMP JUMPDEST PUSH1 0x0 DUP1 PUSH1 0x40 DUP4 DUP6 SUB SLT ISZERO PUSH3 0x24F3 JUMPI PUSH3 0x24F2 PUSH3 0x3968 JUMP JUMPDEST JUMPDEST PUSH1 0x0 PUSH3 0x2503 DUP6 DUP3 DUP7 ADD PUSH3 0x23EA JUMP JUMPDEST SWAP3 POP POP PUSH1 0x20 PUSH3 0x2516 DUP6 DUP3 DUP7 ADD PUSH3 0x2479 JUMP JUMPDEST SWAP2 POP POP SWAP3 POP SWAP3 SWAP1 POP JUMP JUMPDEST PUSH1 0x0 DUP1 PUSH1 0x0 PUSH1 0x60 DUP5 DUP7 SUB SLT ISZERO PUSH3 0x253C JUMPI PUSH3 0x253B PUSH3 0x3968 JUMP JUMPDEST JUMPDEST PUSH1 0x0 PUSH3 0x254C DUP7 DUP3 DUP8 ADD PUSH3 0x2401 JUMP JUMPDEST SWAP4 POP POP PUSH1 0x20 DUP5 ADD CALLDATALOAD PUSH8 0xFFFFFFFFFFFFFFFF DUP2 GT ISZERO PUSH3 0x2570 JUMPI PUSH3 0x256F PUSH3 0x3963 JUMP JUMPDEST JUMPDEST PUSH3 0x257E DUP7 DUP3 DUP8 ADD PUSH3 0x2446 JUMP JUMPDEST SWAP3 POP POP PUSH1 0x40 PUSH3 0x2591 DUP7 DUP3 DUP8 ADD PUSH3 0x23EA JUMP JUMPDEST SWAP2 POP POP SWAP3 POP SWAP3 POP SWAP3 JUMP JUMPDEST PUSH1 0x0 DUP1 PUSH1 0x0 DUP1 PUSH1 0x0 DUP1 PUSH1 0x0 PUSH1 0xE0 DUP9 DUP11 SUB SLT ISZERO PUSH3 0x25BD JUMPI PUSH3 0x25BC PUSH3 0x3968 JUMP JUMPDEST JUMPDEST PUSH1 0x0 PUSH3 0x25CD DUP11 DUP3 DUP12 ADD PUSH3 0x2401 JUMP JUMPDEST SWAP8 POP POP PUSH1 0x20 DUP9 ADD CALLDATALOAD PUSH8 0xFFFFFFFFFFFFFFFF DUP2 GT ISZERO PUSH3 0x25F1 JUMPI PUSH3 0x25F0 PUSH3 0x3963 JUMP JUMPDEST JUMPDEST PUSH3 0x25FF DUP11 DUP3 DUP12 ADD PUSH3 0x2446 JUMP JUMPDEST SWAP7 POP POP PUSH1 0x40 DUP9 ADD CALLDATALOAD PUSH8 0xFFFFFFFFFFFFFFFF DUP2 GT ISZERO PUSH3 0x2623 JUMPI PUSH3 0x2622 PUSH3 0x3963 JUMP JUMPDEST JUMPDEST PUSH3 0x2631 DUP11 DUP3 DUP12 ADD PUSH3 0x2446 JUMP JUMPDEST SWAP6 POP POP PUSH1 0x60 PUSH3 0x2644 DUP11 DUP3 DUP12 ADD PUSH3 0x23EA JUMP JUMPDEST SWAP5 POP POP PUSH1 0x80 PUSH3 0x2657 DUP11 DUP3 DUP12 ADD PUSH3 0x2490 JUMP JUMPDEST SWAP4 POP POP PUSH1 0xA0 PUSH3 0x266A DUP11 DUP3 DUP12 ADD PUSH3 0x2401 JUMP JUMPDEST SWAP3 POP POP PUSH1 0xC0 PUSH3 0x267D DUP11 DUP3 DUP12 ADD PUSH3 0x2401 JUMP JUMPDEST SWAP2 POP POP SWAP3 SWAP6 SWAP9 SWAP2 SWAP5 SWAP8 POP SWAP3 SWAP6 POP JUMP JUMPDEST PUSH1 0x0 PUSH1 0x20 DUP3 DUP5 SUB SLT ISZERO PUSH3 0x26A5 JUMPI PUSH3 0x26A4 PUSH3 0x3968 JUMP JUMPDEST JUMPDEST PUSH1 0x0 PUSH3 0x26B5 DUP5 DUP3 DUP6 ADD PUSH3 0x242F JUMP JUMPDEST SWAP2 POP POP SWAP3 SWAP2 POP POP JUMP JUMPDEST PUSH1 0x0 PUSH1 0x20 DUP3 DUP5 SUB SLT ISZERO PUSH3 0x26D7 JUMPI PUSH3 0x26D6 PUSH3 0x3968 JUMP JUMPDEST JUMPDEST PUSH1 0x0 DUP3 ADD CALLDATALOAD PUSH8 0xFFFFFFFFFFFFFFFF DUP2 GT ISZERO PUSH3 0x26F8 JUMPI PUSH3 0x26F7 PUSH3 0x3963 JUMP JUMPDEST JUMPDEST PUSH3 0x2706 DUP5 DUP3 DUP6 ADD PUSH3 0x2446 JUMP JUMPDEST SWAP2 POP POP SWAP3 SWAP2 POP POP JUMP JUMPDEST PUSH1 0x0 DUP1 PUSH1 0x40 DUP4 DUP6 SUB SLT ISZERO PUSH3 0x2729 JUMPI PUSH3 0x2728 PUSH3 0x3968 JUMP JUMPDEST JUMPDEST PUSH1 0x0 DUP4 ADD CALLDATALOAD PUSH8 0xFFFFFFFFFFFFFFFF DUP2 GT ISZERO PUSH3 0x274A JUMPI PUSH3 0x2749 PUSH3 0x3963 JUMP JUMPDEST JUMPDEST PUSH3 0x2758 DUP6 DUP3 DUP7 ADD PUSH3 0x2446 JUMP JUMPDEST SWAP3 POP POP PUSH1 0x20 PUSH3 0x276B DUP6 DUP3 DUP7 ADD PUSH3 0x2418 JUMP JUMPDEST SWAP2 POP POP SWAP3 POP SWAP3 SWAP1 POP JUMP JUMPDEST PUSH1 0x0 DUP1 PUSH1 0x40 DUP4 DUP6 SUB SLT ISZERO PUSH3 0x278F JUMPI PUSH3 0x278E PUSH3 0x3968 JUMP JUMPDEST JUMPDEST PUSH1 0x0 DUP4 ADD CALLDATALOAD PUSH8 0xFFFFFFFFFFFFFFFF DUP2 GT ISZERO PUSH3 0x27B0 JUMPI PUSH3 0x27AF PUSH3 0x3963 JUMP JUMPDEST JUMPDEST PUSH3 0x27BE DUP6 DUP3 DUP7 ADD PUSH3 0x2446 JUMP JUMPDEST SWAP3 POP POP PUSH1 0x20 DUP4 ADD CALLDATALOAD PUSH8 0xFFFFFFFFFFFFFFFF DUP2 GT ISZERO PUSH3 0x27E2 JUMPI PUSH3 0x27E1 PUSH3 0x3963 JUMP JUMPDEST JUMPDEST PUSH3 0x27F0 DUP6 DUP3 DUP7 ADD PUSH3 0x2446 JUMP JUMPDEST SWAP2 POP POP SWAP3 POP SWAP3 SWAP1 POP JUMP JUMPDEST PUSH1 0x0 DUP1 PUSH1 0x40 DUP4 DUP6 SUB SLT ISZERO PUSH3 0x2814 JUMPI PUSH3 0x2813 PUSH3 0x3968 JUMP JUMPDEST JUMPDEST PUSH1 0x0 DUP4 ADD CALLDATALOAD PUSH8 0xFFFFFFFFFFFFFFFF DUP2 GT ISZERO PUSH3 0x2835 JUMPI PUSH3 0x2834 PUSH3 0x3963 JUMP JUMPDEST JUMPDEST PUSH3 0x2843 DUP6 DUP3 DUP7 ADD PUSH3 0x2446 JUMP JUMPDEST SWAP3 POP POP PUSH1 0x20 PUSH3 0x2856 DUP6 DUP3 DUP7 ADD PUSH3 0x2479 JUMP JUMPDEST SWAP2 POP POP SWAP3 POP SWAP3 SWAP1 POP JUMP JUMPDEST PUSH1 0x0 PUSH1 0x20 DUP3 DUP5 SUB SLT ISZERO PUSH3 0x2879 JUMPI PUSH3 0x2878 PUSH3 0x3968 JUMP JUMPDEST JUMPDEST PUSH1 0x0 PUSH3 0x2889 DUP5 DUP3 DUP6 ADD PUSH3 0x2479 JUMP JUMPDEST SWAP2 POP POP SWAP3 SWAP2 POP POP JUMP JUMPDEST PUSH1 0x0 PUSH3 0x28A0 DUP4 DUP4 PUSH3 0x28C2 JUMP JUMPDEST PUSH1 0x20 DUP4 ADD SWAP1 POP SWAP3 SWAP2 POP POP JUMP JUMPDEST PUSH1 0x0 PUSH3 0x28BA DUP4 DUP4 PUSH3 0x2D8D JUMP JUMPDEST SWAP1 POP SWAP3 SWAP2 POP POP JUMP JUMPDEST PUSH3 0x28CD DUP2 PUSH3 0x36E6 JUMP JUMPDEST DUP3 MSTORE POP POP JUMP JUMPDEST PUSH3 0x28DE DUP2 PUSH3 0x36E6 JUMP JUMPDEST DUP3 MSTORE POP POP JUMP JUMPDEST PUSH1 0x0 PUSH3 0x28F1 DUP3 PUSH3 0x3390 JUMP JUMPDEST PUSH3 0x28FD DUP2 DUP6 PUSH3 0x33CB JUMP JUMPDEST SWAP4 POP PUSH3 0x290A DUP4 PUSH3 0x3370 JUMP JUMPDEST DUP1 PUSH1 0x0 JUMPDEST DUP4 DUP2 LT ISZERO PUSH3 0x2941 JUMPI DUP2 MLOAD PUSH3 0x2925 DUP9 DUP3 PUSH3 0x2892 JUMP JUMPDEST SWAP8 POP PUSH3 0x2932 DUP4 PUSH3 0x33B1 JUMP JUMPDEST SWAP3 POP POP PUSH1 0x1 DUP2 ADD SWAP1 POP PUSH3 0x290E JUMP JUMPDEST POP DUP6 SWAP4 POP POP POP POP SWAP3 SWAP2 POP POP JUMP JUMPDEST PUSH1 0x0 PUSH3 0x295B DUP3 PUSH3 0x339B JUMP JUMPDEST PUSH3 0x2967 DUP2 DUP6 PUSH3 0x33DC JUMP JUMPDEST SWAP4 POP DUP4 PUSH1 0x20 DUP3 MUL DUP6 ADD PUSH3 0x297B DUP6 PUSH3 0x3380 JUMP JUMPDEST DUP1 PUSH1 0x0 JUMPDEST DUP6 DUP2 LT ISZERO PUSH3 0x29BD JUMPI DUP5 DUP5 SUB DUP10 MSTORE DUP2 MLOAD PUSH3 0x299B DUP6 DUP3 PUSH3 0x28AC JUMP JUMPDEST SWAP5 POP PUSH3 0x29A8 DUP4 PUSH3 0x33BE JUMP JUMPDEST SWAP3 POP PUSH1 0x20 DUP11 ADD SWAP10 POP POP PUSH1 0x1 DUP2 ADD SWAP1 POP PUSH3 0x297F JUMP JUMPDEST POP DUP3 SWAP8 POP DUP8 SWAP6 POP POP POP POP POP POP SWAP3 SWAP2 POP POP JUMP JUMPDEST PUSH3 0x29DA DUP2 PUSH3 0x36FA JUMP JUMPDEST DUP3 MSTORE POP POP JUMP JUMPDEST PUSH3 0x29EB DUP2 PUSH3 0x3706 JUMP JUMPDEST DUP3 MSTORE POP POP JUMP JUMPDEST PUSH3 0x2A06 PUSH3 0x2A00 DUP3 PUSH3 0x3706 JUMP JUMPDEST PUSH3 0x3864 JUMP JUMPDEST DUP3 MSTORE POP POP JUMP JUMPDEST PUSH3 0x2A17 DUP2 PUSH3 0x3710 JUMP JUMPDEST DUP3 MSTORE POP POP JUMP JUMPDEST PUSH3 0x2A28 DUP2 PUSH3 0x3751 JUMP JUMPDEST DUP3 MSTORE POP POP JUMP JUMPDEST PUSH1 0x0 PUSH3 0x2A3B DUP3 PUSH3 0x33A6 JUMP JUMPDEST PUSH3 0x2A47 DUP2 DUP6 PUSH3 0x33ED JUMP JUMPDEST SWAP4 POP PUSH3 0x2A59 DUP2 DUP6 PUSH1 0x20 DUP7 ADD PUSH3 0x3774 JUMP JUMPDEST PUSH3 0x2A64 DUP2 PUSH3 0x396D JUMP JUMPDEST DUP5 ADD SWAP2 POP POP SWAP3 SWAP2 POP POP JUMP JUMPDEST PUSH1 0x0 PUSH3 0x2A7C DUP3 PUSH3 0x33A6 JUMP JUMPDEST PUSH3 0x2A88 DUP2 DUP6 PUSH3 0x33FE JUMP JUMPDEST SWAP4 POP PUSH3 0x2A9A DUP2 DUP6 PUSH1 0x20 DUP7 ADD PUSH3 0x3774 JUMP JUMPDEST PUSH3 0x2AA5 DUP2 PUSH3 0x396D JUMP JUMPDEST DUP5 ADD SWAP2 POP POP SWAP3 SWAP2 POP POP JUMP JUMPDEST PUSH1 0x0 PUSH3 0x2ABD DUP3 PUSH3 0x33A6 JUMP JUMPDEST PUSH3 0x2AC9 DUP2 DUP6 PUSH3 0x340F JUMP JUMPDEST SWAP4 POP PUSH3 0x2ADB DUP2 DUP6 PUSH1 0x20 DUP7 ADD PUSH3 0x3774 JUMP JUMPDEST DUP1 DUP5 ADD SWAP2 POP POP SWAP3 SWAP2 POP POP JUMP JUMPDEST PUSH1 0x0 PUSH3 0x2AF6 PUSH1 0x11 DUP4 PUSH3 0x33FE JUMP JUMPDEST SWAP2 POP PUSH3 0x2B03 DUP3 PUSH3 0x397E JUMP JUMPDEST PUSH1 0x20 DUP3 ADD SWAP1 POP SWAP2 SWAP1 POP JUMP JUMPDEST PUSH1 0x0 PUSH3 0x2B1D PUSH1 0x1C DUP4 PUSH3 0x340F JUMP JUMPDEST SWAP2 POP PUSH3 0x2B2A DUP3 PUSH3 0x39A7 JUMP JUMPDEST PUSH1 0x1C DUP3 ADD SWAP1 POP SWAP2 SWAP1 POP JUMP JUMPDEST PUSH1 0x0 PUSH3 0x2B44 PUSH1 0x26 DUP4 PUSH3 0x33FE JUMP JUMPDEST SWAP2 POP PUSH3 0x2B51 DUP3 PUSH3 0x39D0 JUMP JUMPDEST PUSH1 0x40 DUP3 ADD SWAP1 POP SWAP2 SWAP1 POP JUMP JUMPDEST PUSH1 0x0 PUSH3 0x2B6B PUSH1 0x4 DUP4 PUSH3 0x340F JUMP JUMPDEST SWAP2 POP PUSH3 0x2B78 DUP3 PUSH3 0x3A1F JUMP JUMPDEST PUSH1 0x4 DUP3 ADD SWAP1 POP SWAP2 SWAP1 POP JUMP JUMPDEST PUSH1 0x0 PUSH3 0x2B92 PUSH1 0x16 DUP4 PUSH3 0x33FE JUMP JUMPDEST SWAP2 POP PUSH3 0x2B9F DUP3 PUSH3 0x3A48 JUMP JUMPDEST PUSH1 0x20 DUP3 ADD SWAP1 POP SWAP2 SWAP1 POP JUMP JUMPDEST PUSH1 0x0 PUSH3 0x2BB9 PUSH1 0x2E DUP4 PUSH3 0x33FE JUMP JUMPDEST SWAP2 POP PUSH3 0x2BC6 DUP3 PUSH3 0x3A71 JUMP JUMPDEST PUSH1 0x40 DUP3 ADD SWAP1 POP SWAP2 SWAP1 POP JUMP JUMPDEST PUSH1 0x0 PUSH3 0x2BE0 PUSH1 0x20 DUP4 PUSH3 0x33FE JUMP JUMPDEST SWAP2 POP PUSH3 0x2BED DUP3 PUSH3 0x3AC0 JUMP JUMPDEST PUSH1 0x20 DUP3 ADD SWAP1 POP SWAP2 SWAP1 POP JUMP JUMPDEST PUSH1 0x0 PUSH3 0x2C07 PUSH1 0x2B DUP4 PUSH3 0x33FE JUMP JUMPDEST SWAP2 POP PUSH3 0x2C14 DUP3 PUSH3 0x3AE9 JUMP JUMPDEST PUSH1 0x40 DUP3 ADD SWAP1 POP SWAP2 SWAP1 POP JUMP JUMPDEST PUSH1 0x0 PUSH3 0x2C2E PUSH1 0x19 DUP4 PUSH3 0x33FE JUMP JUMPDEST SWAP2 POP PUSH3 0x2C3B DUP3 PUSH3 0x3B38 JUMP JUMPDEST PUSH1 0x20 DUP3 ADD SWAP1 POP SWAP2 SWAP1 POP JUMP JUMPDEST PUSH1 0x0 PUSH3 0x2C55 PUSH1 0x12 DUP4 PUSH3 0x33FE JUMP JUMPDEST SWAP2 POP PUSH3 0x2C62 DUP3 PUSH3 0x3B61 JUMP JUMPDEST PUSH1 0x20 DUP3 ADD SWAP1 POP SWAP2 SWAP1 POP JUMP JUMPDEST PUSH1 0x0 PUSH3 0x2C7C PUSH1 0x11 DUP4 PUSH3 0x33FE JUMP JUMPDEST SWAP2 POP PUSH3 0x2C89 DUP3 PUSH3 0x3B8A JUMP JUMPDEST PUSH1 0x20 DUP3 ADD SWAP1 POP SWAP2 SWAP1 POP JUMP JUMPDEST PUSH1 0x0 PUSH3 0x2CA3 PUSH1 0x12 DUP4 PUSH3 0x33FE JUMP JUMPDEST SWAP2 POP PUSH3 0x2CB0 DUP3 PUSH3 0x3BB3 JUMP JUMPDEST PUSH1 0x20 DUP3 ADD SWAP1 POP SWAP2 SWAP1 POP JUMP JUMPDEST PUSH1 0x0 PUSH3 0x2CCA PUSH1 0x2B DUP4 PUSH3 0x33FE JUMP JUMPDEST SWAP2 POP PUSH3 0x2CD7 DUP3 PUSH3 0x3BDC JUMP JUMPDEST PUSH1 0x40 DUP3 ADD SWAP1 POP SWAP2 SWAP1 POP JUMP JUMPDEST PUSH1 0x0 PUSH3 0x2CF1 PUSH1 0x30 DUP4 PUSH3 0x33FE JUMP JUMPDEST SWAP2 POP PUSH3 0x2CFE DUP3 PUSH3 0x3C2B JUMP JUMPDEST PUSH1 0x40 DUP3 ADD SWAP1 POP SWAP2 SWAP1 POP JUMP JUMPDEST PUSH1 0x0 PUSH3 0x2D18 PUSH1 0x1F DUP4 PUSH3 0x33FE JUMP JUMPDEST SWAP2 POP PUSH3 0x2D25 DUP3 PUSH3 0x3C7A JUMP JUMPDEST PUSH1 0x20 DUP3 ADD SWAP1 POP SWAP2 SWAP1 POP JUMP JUMPDEST PUSH1 0x0 PUSH1 0x60 DUP4 ADD PUSH1 0x0 DUP4 ADD MLOAD PUSH3 0x2D4A PUSH1 0x0 DUP7 ADD DUP3 PUSH3 0x2DEA JUMP JUMPDEST POP PUSH1 0x20 DUP4 ADD MLOAD DUP5 DUP3 SUB PUSH1 0x20 DUP7 ADD MSTORE PUSH3 0x2D64 DUP3 DUP3 PUSH3 0x2A2E JUMP JUMPDEST SWAP2 POP POP PUSH1 0x40 DUP4 ADD MLOAD DUP5 DUP3 SUB PUSH1 0x40 DUP7 ADD MSTORE PUSH3 0x2D80 DUP3 DUP3 PUSH3 0x28E4 JUMP JUMPDEST SWAP2 POP POP DUP1 SWAP2 POP POP SWAP3 SWAP2 POP POP JUMP JUMPDEST PUSH1 0x0 PUSH1 0x60 DUP4 ADD PUSH1 0x0 DUP4 ADD MLOAD DUP5 DUP3 SUB PUSH1 0x0 DUP7 ADD MSTORE PUSH3 0x2DAC DUP3 DUP3 PUSH3 0x2A2E JUMP JUMPDEST SWAP2 POP POP PUSH1 0x20 DUP4 ADD MLOAD DUP5 DUP3 SUB PUSH1 0x20 DUP7 ADD MSTORE PUSH3 0x2DC8 DUP3 DUP3 PUSH3 0x2A2E JUMP JUMPDEST SWAP2 POP POP PUSH1 0x40 DUP4 ADD MLOAD PUSH3 0x2DDF PUSH1 0x40 DUP7 ADD DUP3 PUSH3 0x2DEA JUMP JUMPDEST POP DUP1 SWAP2 POP POP SWAP3 SWAP2 POP POP JUMP JUMPDEST PUSH3 0x2DF5 DUP2 PUSH3 0x373A JUMP JUMPDEST DUP3 MSTORE POP POP JUMP JUMPDEST PUSH3 0x2E06 DUP2 PUSH3 0x373A JUMP JUMPDEST DUP3 MSTORE POP POP JUMP JUMPDEST PUSH3 0x2E17 DUP2 PUSH3 0x3744 JUMP JUMPDEST DUP3 MSTORE POP POP JUMP JUMPDEST PUSH1 0x0 PUSH3 0x2E2B DUP3 DUP5 PUSH3 0x2AB0 JUMP JUMPDEST SWAP2 POP DUP2 SWAP1 POP SWAP3 SWAP2 POP POP JUMP JUMPDEST PUSH1 0x0 PUSH3 0x2E43 DUP3 PUSH3 0x2B0E JUMP JUMPDEST SWAP2 POP PUSH3 0x2E51 DUP3 DUP5 PUSH3 0x29F1 JUMP JUMPDEST PUSH1 0x20 DUP3 ADD SWAP2 POP DUP2 SWAP1 POP SWAP3 SWAP2 POP POP JUMP JUMPDEST PUSH1 0x0 PUSH3 0x2E6D DUP3 PUSH3 0x2B5C JUMP JUMPDEST SWAP2 POP DUP2 SWAP1 POP SWAP2 SWAP1 POP JUMP JUMPDEST PUSH1 0x0 PUSH1 0x20 DUP3 ADD SWAP1 POP PUSH3 0x2E8E PUSH1 0x0 DUP4 ADD DUP5 PUSH3 0x28D3 JUMP JUMPDEST SWAP3 SWAP2 POP POP JUMP JUMPDEST PUSH1 0x0 PUSH1 0x60 DUP3 ADD SWAP1 POP PUSH3 0x2EAB PUSH1 0x0 DUP4 ADD DUP7 PUSH3 0x28D3 JUMP JUMPDEST DUP2 DUP2 SUB PUSH1 0x20 DUP4 ADD MSTORE PUSH3 0x2EBF DUP2 DUP6 PUSH3 0x2A6F JUMP JUMPDEST SWAP1 POP PUSH3 0x2ED0 PUSH1 0x40 DUP4 ADD DUP5 PUSH3 0x2A1D JUMP JUMPDEST SWAP5 SWAP4 POP POP POP POP JUMP JUMPDEST PUSH1 0x0 PUSH1 0x60 DUP3 ADD SWAP1 POP PUSH3 0x2EEF PUSH1 0x0 DUP4 ADD DUP7 PUSH3 0x28D3 JUMP JUMPDEST DUP2 DUP2 SUB PUSH1 0x20 DUP4 ADD MSTORE PUSH3 0x2F03 DUP2 DUP6 PUSH3 0x2A6F JUMP JUMPDEST SWAP1 POP PUSH3 0x2F14 PUSH1 0x40 DUP4 ADD DUP5 PUSH3 0x2DFB JUMP JUMPDEST SWAP5 SWAP4 POP POP POP POP JUMP JUMPDEST PUSH1 0x0 PUSH1 0x20 DUP3 ADD SWAP1 POP DUP2 DUP2 SUB PUSH1 0x0 DUP4 ADD MSTORE PUSH3 0x2F38 DUP2 DUP5 PUSH3 0x294E JUMP JUMPDEST SWAP1 POP SWAP3 SWAP2 POP POP JUMP JUMPDEST PUSH1 0x0 PUSH1 0x20 DUP3 ADD SWAP1 POP PUSH3 0x2F57 PUSH1 0x0 DUP4 ADD DUP5 PUSH3 0x29CF JUMP JUMPDEST SWAP3 SWAP2 POP POP JUMP JUMPDEST PUSH1 0x0 PUSH1 0x40 DUP3 ADD SWAP1 POP PUSH3 0x2F74 PUSH1 0x0 DUP4 ADD DUP6 PUSH3 0x29E0 JUMP JUMPDEST DUP2 DUP2 SUB PUSH1 0x20 DUP4 ADD MSTORE PUSH3 0x2F88 DUP2 DUP5 PUSH3 0x2A6F JUMP JUMPDEST SWAP1 POP SWAP4 SWAP3 POP POP POP JUMP JUMPDEST PUSH1 0x0 PUSH1 0x60 DUP3 ADD SWAP1 POP PUSH3 0x2FA8 PUSH1 0x0 DUP4 ADD DUP7 PUSH3 0x29E0 JUMP JUMPDEST DUP2 DUP2 SUB PUSH1 0x20 DUP4 ADD MSTORE PUSH3 0x2FBC DUP2 DUP6 PUSH3 0x2A6F JUMP JUMPDEST SWAP1 POP PUSH3 0x2FCD PUSH1 0x40 DUP4 ADD DUP5 PUSH3 0x28D3 JUMP JUMPDEST SWAP5 SWAP4 POP POP POP POP JUMP JUMPDEST PUSH1 0x0 PUSH1 0x80 DUP3 ADD SWAP1 POP PUSH3 0x2FEC PUSH1 0x0 DUP4 ADD DUP8 PUSH3 0x29E0 JUMP JUMPDEST PUSH3 0x2FFB PUSH1 0x20 DUP4 ADD DUP7 PUSH3 0x2E0C JUMP JUMPDEST PUSH3 0x300A PUSH1 0x40 DUP4 ADD DUP6 PUSH3 0x29E0 JUMP JUMPDEST PUSH3 0x3019 PUSH1 0x60 DUP4 ADD DUP5 PUSH3 0x29E0 JUMP JUMPDEST SWAP6 SWAP5 POP POP POP POP POP JUMP JUMPDEST PUSH1 0x0 PUSH1 0x20 DUP3 ADD SWAP1 POP PUSH3 0x3039 PUSH1 0x0 DUP4 ADD DUP5 PUSH3 0x2A0C JUMP JUMPDEST SWAP3 SWAP2 POP POP JUMP JUMPDEST PUSH1 0x0 PUSH1 0x20 DUP3 ADD SWAP1 POP DUP2 DUP2 SUB PUSH1 0x0 DUP4 ADD MSTORE PUSH3 0x305B DUP2 DUP5 PUSH3 0x2A6F JUMP JUMPDEST SWAP1 POP SWAP3 SWAP2 POP POP JUMP JUMPDEST PUSH1 0x0 PUSH1 0x40 DUP3 ADD SWAP1 POP DUP2 DUP2 SUB PUSH1 0x0 DUP4 ADD MSTORE PUSH3 0x307F DUP2 DUP6 PUSH3 0x2A6F JUMP JUMPDEST SWAP1 POP PUSH3 0x3090 PUSH1 0x20 DUP4 ADD DUP5 PUSH3 0x2A0C JUMP JUMPDEST SWAP4 SWAP3 POP POP POP JUMP JUMPDEST PUSH1 0x0 PUSH1 0x60 DUP3 ADD SWAP1 POP DUP2 DUP2 SUB PUSH1 0x0 DUP4 ADD MSTORE PUSH3 0x30B3 DUP2 DUP7 PUSH3 0x2A6F JUMP JUMPDEST SWAP1 POP DUP2 DUP2 SUB PUSH1 0x20 DUP4 ADD MSTORE PUSH3 0x30C9 DUP2 DUP6 PUSH3 0x2A6F JUMP JUMPDEST SWAP1 POP PUSH3 0x30DA PUSH1 0x40 DUP4 ADD DUP5 PUSH3 0x2DFB JUMP JUMPDEST SWAP5 SWAP4 POP POP POP POP JUMP JUMPDEST PUSH1 0x0 PUSH1 0x20 DUP3 ADD SWAP1 POP DUP2 DUP2 SUB PUSH1 0x0 DUP4 ADD MSTORE PUSH3 0x30FD DUP2 PUSH3 0x2AE7 JUMP JUMPDEST SWAP1 POP SWAP2 SWAP1 POP JUMP JUMPDEST PUSH1 0x0 PUSH1 0x20 DUP3 ADD SWAP1 POP DUP2 DUP2 SUB PUSH1 0x0 DUP4 ADD MSTORE PUSH3 0x311F DUP2 PUSH3 0x2B35 JUMP JUMPDEST SWAP1 POP SWAP2 SWAP1 POP JUMP JUMPDEST PUSH1 0x0 PUSH1 0x20 DUP3 ADD SWAP1 POP DUP2 DUP2 SUB PUSH1 0x0 DUP4 ADD MSTORE PUSH3 0x3141 DUP2 PUSH3 0x2B83 JUMP JUMPDEST SWAP1 POP SWAP2 SWAP1 POP JUMP JUMPDEST PUSH1 0x0 PUSH1 0x20 DUP3 ADD SWAP1 POP DUP2 DUP2 SUB PUSH1 0x0 DUP4 ADD MSTORE PUSH3 0x3163 DUP2 PUSH3 0x2BAA JUMP JUMPDEST SWAP1 POP SWAP2 SWAP1 POP JUMP JUMPDEST PUSH1 0x0 PUSH1 0x20 DUP3 ADD SWAP1 POP DUP2 DUP2 SUB PUSH1 0x0 DUP4 ADD MSTORE PUSH3 0x3185 DUP2 PUSH3 0x2BD1 JUMP JUMPDEST SWAP1 POP SWAP2 SWAP1 POP JUMP JUMPDEST PUSH1 0x0 PUSH1 0x20 DUP3 ADD SWAP1 POP DUP2 DUP2 SUB PUSH1 0x0 DUP4 ADD MSTORE PUSH3 0x31A7 DUP2 PUSH3 0x2BF8 JUMP JUMPDEST SWAP1 POP SWAP2 SWAP1 POP JUMP JUMPDEST PUSH1 0x0 PUSH1 0x20 DUP3 ADD SWAP1 POP DUP2 DUP2 SUB PUSH1 0x0 DUP4 ADD MSTORE PUSH3 0x31C9 DUP2 PUSH3 0x2C1F JUMP JUMPDEST SWAP1 POP SWAP2 SWAP1 POP JUMP JUMPDEST PUSH1 0x0 PUSH1 0x20 DUP3 ADD SWAP1 POP DUP2 DUP2 SUB PUSH1 0x0 DUP4 ADD MSTORE PUSH3 0x31EB DUP2 PUSH3 0x2C46 JUMP JUMPDEST SWAP1 POP SWAP2 SWAP1 POP JUMP JUMPDEST PUSH1 0x0 PUSH1 0x20 DUP3 ADD SWAP1 POP DUP2 DUP2 SUB PUSH1 0x0 DUP4 ADD MSTORE PUSH3 0x320D DUP2 PUSH3 0x2C6D JUMP JUMPDEST SWAP1 POP SWAP2 SWAP1 POP JUMP JUMPDEST PUSH1 0x0 PUSH1 0x20 DUP3 ADD SWAP1 POP DUP2 DUP2 SUB PUSH1 0x0 DUP4 ADD MSTORE PUSH3 0x322F DUP2 PUSH3 0x2C94 JUMP JUMPDEST SWAP1 POP SWAP2 SWAP1 POP JUMP JUMPDEST PUSH1 0x0 PUSH1 0x20 DUP3 ADD SWAP1 POP DUP2 DUP2 SUB PUSH1 0x0 DUP4 ADD MSTORE PUSH3 0x3251 DUP2 PUSH3 0x2CBB JUMP JUMPDEST SWAP1 POP SWAP2 SWAP1 POP JUMP JUMPDEST PUSH1 0x0 PUSH1 0x20 DUP3 ADD SWAP1 POP DUP2 DUP2 SUB PUSH1 0x0 DUP4 ADD MSTORE PUSH3 0x3273 DUP2 PUSH3 0x2CE2 JUMP JUMPDEST SWAP1 POP SWAP2 SWAP1 POP JUMP JUMPDEST PUSH1 0x0 PUSH1 0x20 DUP3 ADD SWAP1 POP DUP2 DUP2 SUB PUSH1 0x0 DUP4 ADD MSTORE PUSH3 0x3295 DUP2 PUSH3 0x2D09 JUMP JUMPDEST SWAP1 POP SWAP2 SWAP1 POP JUMP JUMPDEST PUSH1 0x0 PUSH1 0x20 DUP3 ADD SWAP1 POP DUP2 DUP2 SUB PUSH1 0x0 DUP4 ADD MSTORE PUSH3 0x32B8 DUP2 DUP5 PUSH3 0x2D30 JUMP JUMPDEST SWAP1 POP SWAP3 SWAP2 POP POP JUMP JUMPDEST PUSH1 0x0 PUSH1 0x20 DUP3 ADD SWAP1 POP PUSH3 0x32D7 PUSH1 0x0 DUP4 ADD DUP5 PUSH3 0x2DFB JUMP JUMPDEST SWAP3 SWAP2 POP POP JUMP JUMPDEST PUSH1 0x0 PUSH1 0x40 DUP3 ADD SWAP1 POP PUSH3 0x32F4 PUSH1 0x0 DUP4 ADD DUP6 PUSH3 0x2DFB JUMP JUMPDEST DUP2 DUP2 SUB PUSH1 0x20 DUP4 ADD MSTORE PUSH3 0x3308 DUP2 DUP5 PUSH3 0x2A6F JUMP JUMPDEST SWAP1 POP SWAP4 SWAP3 POP POP POP JUMP JUMPDEST PUSH1 0x0 PUSH3 0x331D PUSH3 0x3330 JUMP JUMPDEST SWAP1 POP PUSH3 0x332B DUP3 DUP3 PUSH3 0x37E0 JUMP JUMPDEST SWAP2 SWAP1 POP JUMP JUMPDEST PUSH1 0x0 PUSH1 0x40 MLOAD SWAP1 POP SWAP1 JUMP JUMPDEST PUSH1 0x0 PUSH8 0xFFFFFFFFFFFFFFFF DUP3 GT ISZERO PUSH3 0x3358 JUMPI PUSH3 0x3357 PUSH3 0x392A JUMP JUMPDEST JUMPDEST PUSH3 0x3363 DUP3 PUSH3 0x396D JUMP JUMPDEST SWAP1 POP PUSH1 0x20 DUP2 ADD SWAP1 POP SWAP2 SWAP1 POP JUMP JUMPDEST PUSH1 0x0 DUP2 SWAP1 POP PUSH1 0x20 DUP3 ADD SWAP1 POP SWAP2 SWAP1 POP JUMP JUMPDEST PUSH1 0x0 DUP2 SWAP1 POP PUSH1 0x20 DUP3 ADD SWAP1 POP SWAP2 SWAP1 POP JUMP JUMPDEST PUSH1 0x0 DUP2 MLOAD SWAP1 POP SWAP2 SWAP1 POP JUMP JUMPDEST PUSH1 0x0 DUP2 MLOAD SWAP1 POP SWAP2 SWAP1 POP JUMP JUMPDEST PUSH1 0x0 DUP2 MLOAD SWAP1 POP SWAP2 SWAP1 POP JUMP JUMPDEST PUSH1 0x0 PUSH1 0x20 DUP3 ADD SWAP1 POP SWAP2 SWAP1 POP JUMP JUMPDEST PUSH1 0x0 PUSH1 0x20 DUP3 ADD SWAP1 POP SWAP2 SWAP1 POP JUMP JUMPDEST PUSH1 0x0 DUP3 DUP3 MSTORE PUSH1 0x20 DUP3 ADD SWAP1 POP SWAP3 SWAP2 POP POP JUMP JUMPDEST PUSH1 0x0 DUP3 DUP3 MSTORE PUSH1 0x20 DUP3 ADD SWAP1 POP SWAP3 SWAP2 POP POP JUMP JUMPDEST PUSH1 0x0 DUP3 DUP3 MSTORE PUSH1 0x20 DUP3 ADD SWAP1 POP SWAP3 SWAP2 POP POP JUMP JUMPDEST PUSH1 0x0 DUP3 DUP3 MSTORE PUSH1 0x20 DUP3 ADD SWAP1 POP SWAP3 SWAP2 POP POP JUMP JUMPDEST PUSH1 0x0 DUP2 SWAP1 POP SWAP3 SWAP2 POP POP JUMP JUMPDEST PUSH1 0x0 PUSH3 0x3427 DUP3 PUSH3 0x373A JUMP JUMPDEST SWAP2 POP PUSH3 0x3434 DUP4 PUSH3 0x373A JUMP JUMPDEST SWAP3 POP DUP3 PUSH32 0xFFFFFFFFFFFFFFFFFFFFFFFFFFFFFFFFFFFFFFFFFFFFFFFFFFFFFFFFFFFFFFFF SUB DUP3 GT ISZERO PUSH3 0x346C JUMPI PUSH3 0x346B PUSH3 0x386E JUMP JUMPDEST JUMPDEST DUP3 DUP3 ADD SWAP1 POP SWAP3 SWAP2 POP POP JUMP JUMPDEST PUSH1 0x0 PUSH3 0x3484 DUP3 PUSH3 0x3710 JUMP JUMPDEST SWAP2 POP PUSH3 0x3491 DUP4 PUSH3 0x3710 JUMP JUMPDEST SWAP3 POP DUP3 PUSH3 0x34A4 JUMPI PUSH3 0x34A3 PUSH3 0x389D JUMP JUMPDEST JUMPDEST PUSH1 0x1 PUSH1 0x0 SUB DUP4 EQ PUSH32 0x8000000000000000000000000000000000000000000000000000000000000000 DUP4 EQ AND ISZERO PUSH3 0x34E0 JUMPI PUSH3 0x34DF PUSH3 0x386E JUMP JUMPDEST JUMPDEST DUP3 DUP3 SDIV SWAP1 POP SWAP3 SWAP2 POP POP JUMP JUMPDEST PUSH1 0x0 PUSH3 0x34F8 DUP3 PUSH3 0x373A JUMP JUMPDEST SWAP2 POP PUSH3 0x3505 DUP4 PUSH3 0x373A JUMP JUMPDEST SWAP3 POP DUP3 PUSH3 0x3518 JUMPI PUSH3 0x3517 PUSH3 0x389D JUMP JUMPDEST JUMPDEST DUP3 DUP3 DIV SWAP1 POP SWAP3 SWAP2 POP POP JUMP JUMPDEST PUSH1 0x0 PUSH3 0x3530 DUP3 PUSH3 0x3710 JUMP JUMPDEST SWAP2 POP PUSH3 0x353D DUP4 PUSH3 0x3710 JUMP JUMPDEST SWAP3 POP DUP3 PUSH32 0x7FFFFFFFFFFFFFFFFFFFFFFFFFFFFFFFFFFFFFFFFFFFFFFFFFFFFFFFFFFFFFFF DIV DUP3 GT PUSH1 0x0 DUP5 SGT PUSH1 0x0 DUP5 SGT AND AND ISZERO PUSH3 0x357F JUMPI PUSH3 0x357E PUSH3 0x386E JUMP JUMPDEST JUMPDEST DUP2 PUSH32 0x8000000000000000000000000000000000000000000000000000000000000000 SDIV DUP4 SLT PUSH1 0x0 DUP5 SLT PUSH1 0x0 DUP5 SGT AND AND ISZERO PUSH3 0x35BF JUMPI PUSH3 0x35BE PUSH3 0x386E JUMP JUMPDEST JUMPDEST DUP3 PUSH32 0x8000000000000000000000000000000000000000000000000000000000000000 SDIV DUP3 SLT PUSH1 0x0 DUP5 SGT PUSH1 0x0 DUP5 SLT AND AND ISZERO PUSH3 0x35FF JUMPI PUSH3 0x35FE PUSH3 0x386E JUMP JUMPDEST JUMPDEST DUP3 PUSH32 0x7FFFFFFFFFFFFFFFFFFFFFFFFFFFFFFFFFFFFFFFFFFFFFFFFFFFFFFFFFFFFFFF SDIV DUP3 SLT PUSH1 0x0 DUP5 SLT PUSH1 0x0 DUP5 SLT AND AND ISZERO PUSH3 0x363F JUMPI PUSH3 0x363E PUSH3 0x386E JUMP JUMPDEST JUMPDEST DUP3 DUP3 MUL SWAP1 POP SWAP3 SWAP2 POP POP JUMP JUMPDEST PUSH1 0x0 PUSH3 0x3657 DUP3 PUSH3 0x373A JUMP JUMPDEST SWAP2 POP PUSH3 0x3664 DUP4 PUSH3 0x373A JUMP JUMPDEST SWAP3 POP DUP2 PUSH32 0xFFFFFFFFFFFFFFFFFFFFFFFFFFFFFFFFFFFFFFFFFFFFFFFFFFFFFFFFFFFFFFFF DIV DUP4 GT DUP3 ISZERO ISZERO AND ISZERO PUSH3 0x36A0 JUMPI PUSH3 0x369F PUSH3 0x386E JUMP JUMPDEST JUMPDEST DUP3 DUP3 MUL SWAP1 POP SWAP3 SWAP2 POP POP JUMP JUMPDEST PUSH1 0x0 PUSH3 0x36B8 DUP3 PUSH3 0x373A JUMP JUMPDEST SWAP2 POP PUSH3 0x36C5 DUP4 PUSH3 0x373A JUMP JUMPDEST SWAP3 POP DUP3 DUP3 LT ISZERO PUSH3 0x36DB JUMPI PUSH3 0x36DA PUSH3 0x386E JUMP JUMPDEST JUMPDEST DUP3 DUP3 SUB SWAP1 POP SWAP3 SWAP2 POP POP JUMP JUMPDEST PUSH1 0x0 PUSH3 0x36F3 DUP3 PUSH3 0x371A JUMP JUMPDEST SWAP1 POP SWAP2 SWAP1 POP JUMP JUMPDEST PUSH1 0x0 DUP2 ISZERO ISZERO SWAP1 POP SWAP2 SWAP1 POP JUMP JUMPDEST PUSH1 0x0 DUP2 SWAP1 POP SWAP2 SWAP1 POP JUMP JUMPDEST PUSH1 0x0 DUP2 SWAP1 POP SWAP2 SWAP1 POP JUMP JUMPDEST PUSH1 0x0 PUSH20 0xFFFFFFFFFFFFFFFFFFFFFFFFFFFFFFFFFFFFFFFF DUP3 AND SWAP1 POP SWAP2 SWAP1 POP JUMP JUMPDEST PUSH1 0x0 DUP2 SWAP1 POP SWAP2 SWAP1 POP JUMP JUMPDEST PUSH1 0x0 PUSH1 0xFF DUP3 AND SWAP1 POP SWAP2 SWAP1 POP JUMP JUMPDEST PUSH1 0x0 PUSH3 0x375E DUP3 PUSH3 0x373A JUMP JUMPDEST SWAP1 POP SWAP2 SWAP1 POP JUMP JUMPDEST DUP3 DUP2 DUP4 CALLDATACOPY PUSH1 0x0 DUP4 DUP4 ADD MSTORE POP POP POP JUMP JUMPDEST PUSH1 0x0 JUMPDEST DUP4 DUP2 LT ISZERO PUSH3 0x3794 JUMPI DUP1 DUP3 ADD MLOAD DUP2 DUP5 ADD MSTORE PUSH1 0x20 DUP2 ADD SWAP1 POP PUSH3 0x3777 JUMP JUMPDEST DUP4 DUP2 GT ISZERO PUSH3 0x37A4 JUMPI PUSH1 0x0 DUP5 DUP5 ADD MSTORE JUMPDEST POP POP POP POP JUMP JUMPDEST PUSH1 0x0 PUSH1 0x2 DUP3 DIV SWAP1 POP PUSH1 0x1 DUP3 AND DUP1 PUSH3 0x37C3 JUMPI PUSH1 0x7F DUP3 AND SWAP2 POP JUMPDEST PUSH1 0x20 DUP3 LT DUP2 EQ ISZERO PUSH3 0x37DA JUMPI PUSH3 0x37D9 PUSH3 0x38CC JUMP JUMPDEST JUMPDEST POP SWAP2 SWAP1 POP JUMP JUMPDEST PUSH3 0x37EB DUP3 PUSH3 0x396D JUMP JUMPDEST DUP2 ADD DUP2 DUP2 LT PUSH8 0xFFFFFFFFFFFFFFFF DUP3 GT OR ISZERO PUSH3 0x380D JUMPI PUSH3 0x380C PUSH3 0x392A JUMP JUMPDEST JUMPDEST DUP1 PUSH1 0x40 MSTORE POP POP POP JUMP JUMPDEST PUSH1 0x0 PUSH3 0x3823 DUP3 PUSH3 0x373A JUMP JUMPDEST SWAP2 POP PUSH32 0xFFFFFFFFFFFFFFFFFFFFFFFFFFFFFFFFFFFFFFFFFFFFFFFFFFFFFFFFFFFFFFFF DUP3 EQ ISZERO PUSH3 0x3859 JUMPI PUSH3 0x3858 PUSH3 0x386E JUMP JUMPDEST JUMPDEST PUSH1 0x1 DUP3 ADD SWAP1 POP SWAP2 SWAP1 POP JUMP JUMPDEST PUSH1 0x0 DUP2 SWAP1 POP SWAP2 SWAP1 POP JUMP JUMPDEST PUSH32 0x4E487B7100000000000000000000000000000000000000000000000000000000 PUSH1 0x0 MSTORE PUSH1 0x11 PUSH1 0x4 MSTORE PUSH1 0x24 PUSH1 0x0 REVERT JUMPDEST PUSH32 0x4E487B7100000000000000000000000000000000000000000000000000000000 PUSH1 0x0 MSTORE PUSH1 0x12 PUSH1 0x4 MSTORE PUSH1 0x24 PUSH1 0x0 REVERT JUMPDEST PUSH32 0x4E487B7100000000000000000000000000000000000000000000000000000000 PUSH1 0x0 MSTORE PUSH1 0x22 PUSH1 0x4 MSTORE PUSH1 0x24 PUSH1 0x0 REVERT JUMPDEST PUSH32 0x4E487B7100000000000000000000000000000000000000000000000000000000 PUSH1 0x0 MSTORE PUSH1 0x32 PUSH1 0x4 MSTORE PUSH1 0x24 PUSH1 0x0 REVERT JUMPDEST PUSH32 0x4E487B7100000000000000000000000000000000000000000000000000000000 PUSH1 0x0 MSTORE PUSH1 0x41 PUSH1 0x4 MSTORE PUSH1 0x24 PUSH1 0x0 REVERT JUMPDEST PUSH1 0x0 DUP1 REVERT JUMPDEST PUSH1 0x0 DUP1 REVERT JUMPDEST PUSH1 0x0 DUP1 REVERT JUMPDEST PUSH1 0x0 DUP1 REVERT JUMPDEST PUSH1 0x0 PUSH1 0x1F NOT PUSH1 0x1F DUP4 ADD AND SWAP1 POP SWAP2 SWAP1 POP JUMP JUMPDEST PUSH32 0x696E76616C6964207369676E6174757265000000000000000000000000000000 PUSH1 0x0 DUP3 ADD MSTORE POP JUMP JUMPDEST PUSH32 0x19457468657265756D205369676E6564204D6573736167653A0A333200000000 PUSH1 0x0 DUP3 ADD MSTORE POP JUMP JUMPDEST PUSH32 0x4F776E61626C653A206E6577206F776E657220697320746865207A65726F2061 PUSH1 0x0 DUP3 ADD MSTORE PUSH32 0x6464726573730000000000000000000000000000000000000000000000000000 PUSH1 0x20 DUP3 ADD MSTORE POP JUMP JUMPDEST PUSH32 0x5349474E00000000000000000000000000000000000000000000000000000000 PUSH1 0x0 DUP3 ADD MSTORE POP JUMP JUMPDEST PUSH32 0x50726F6475637420416C72656164792045786973742100000000000000000000 PUSH1 0x0 DUP3 ADD MSTORE POP JUMP JUMPDEST PUSH32 0x496E697469616C697A61626C653A20636F6E747261637420697320616C726561 PUSH1 0x0 DUP3 ADD MSTORE PUSH32 0x647920696E697469616C697A6564000000000000000000000000000000000000 PUSH1 0x20 DUP3 ADD MSTORE POP JUMP JUMPDEST PUSH32 0x4F776E61626C653A2063616C6C6572206973206E6F7420746865206F776E6572 PUSH1 0x0 DUP3 ADD MSTORE POP JUMP JUMPDEST PUSH32 0x596F75206861766520746F2073656C65637420746865207369676E2073657276 PUSH1 0x0 DUP3 ADD MSTORE PUSH32 0x6963652070726F64756374000000000000000000000000000000000000000000 PUSH1 0x20 DUP3 ADD MSTORE POP JUMP JUMPDEST PUSH32 0x7468652062616C616E63652068617320746F206265203E203000000000000000 PUSH1 0x0 DUP3 ADD MSTORE POP JUMP JUMPDEST PUSH32 0x50726F64756374204E6F74204578697374210000000000000000000000000000 PUSH1 0x0 DUP3 ADD MSTORE POP JUMP JUMPDEST PUSH32 0x50726F64756374204E6F7420466F756E64000000000000000000000000000000 PUSH1 0x0 DUP3 ADD MSTORE POP JUMP JUMPDEST PUSH32 0x566F6C6174696C69747920746F20686967680000000000000000000000000000 PUSH1 0x0 DUP3 ADD MSTORE POP JUMP JUMPDEST PUSH32 0x496E697469616C697A61626C653A20636F6E7472616374206973206E6F742069 PUSH1 0x0 DUP3 ADD MSTORE PUSH32 0x6E697469616C697A696E67000000000000000000000000000000000000000000 PUSH1 0x20 DUP3 ADD MSTORE POP JUMP JUMPDEST PUSH32 0x4361736869657220697320636C6F73656420616E642077696C6C206E6F742061 PUSH1 0x0 DUP3 ADD MSTORE PUSH32 0x7661696C61626C6520616E796D6F726500000000000000000000000000000000 PUSH1 0x20 DUP3 ADD MSTORE POP JUMP JUMPDEST PUSH32 0x4973206E6F7420616C6C6F77656420746865207573657220746F207369676E00 PUSH1 0x0 DUP3 ADD MSTORE POP JUMP JUMPDEST PUSH3 0x3CAE DUP2 PUSH3 0x36E6 JUMP JUMPDEST DUP2 EQ PUSH3 0x3CBA JUMPI PUSH1 0x0 DUP1 REVERT JUMPDEST POP JUMP JUMPDEST PUSH3 0x3CC8 DUP2 PUSH3 0x3706 JUMP JUMPDEST DUP2 EQ PUSH3 0x3CD4 JUMPI PUSH1 0x0 DUP1 REVERT JUMPDEST POP JUMP JUMPDEST PUSH3 0x3CE2 DUP2 PUSH3 0x3710 JUMP JUMPDEST DUP2 EQ PUSH3 0x3CEE JUMPI PUSH1 0x0 DUP1 REVERT JUMPDEST POP JUMP JUMPDEST PUSH3 0x3CFC DUP2 PUSH3 0x373A JUMP JUMPDEST DUP2 EQ PUSH3 0x3D08 JUMPI PUSH1 0x0 DUP1 REVERT JUMPDEST POP JUMP JUMPDEST PUSH3 0x3D16 DUP2 PUSH3 0x3744 JUMP JUMPDEST DUP2 EQ PUSH3 0x3D22 JUMPI PUSH1 0x0 DUP1 REVERT JUMPDEST POP JUMP INVALID PUSH1 0x80 PUSH1 0x40 MSTORE CALLVALUE DUP1 ISZERO PUSH2 0x10 JUMPI PUSH1 0x0 DUP1 REVERT JUMPDEST POP PUSH1 0x40 MLOAD PUSH2 0x3AF CODESIZE SUB DUP1 PUSH2 0x3AF DUP4 CODECOPY DUP2 DUP2 ADD PUSH1 0x40 MSTORE DUP2 ADD SWAP1 PUSH2 0x32 SWAP2 SWAP1 PUSH2 0x8D JUMP JUMPDEST DUP1 PUSH1 0x0 DUP1 PUSH2 0x100 EXP DUP2 SLOAD DUP2 PUSH20 0xFFFFFFFFFFFFFFFFFFFFFFFFFFFFFFFFFFFFFFFF MUL NOT AND SWAP1 DUP4 PUSH20 0xFFFFFFFFFFFFFFFFFFFFFFFFFFFFFFFFFFFFFFFF AND MUL OR SWAP1 SSTORE POP POP PUSH2 0x108 JUMP JUMPDEST PUSH1 0x0 DUP2 MLOAD SWAP1 POP PUSH2 0x87 DUP2 PUSH2 0xF1 JUMP JUMPDEST SWAP3 SWAP2 POP POP JUMP JUMPDEST PUSH1 0x0 PUSH1 0x20 DUP3 DUP5 SUB SLT ISZERO PUSH2 0xA3 JUMPI PUSH2 0xA2 PUSH2 0xEC JUMP JUMPDEST JUMPDEST PUSH1 0x0 PUSH2 0xB1 DUP5 DUP3 DUP6 ADD PUSH2 0x78 JUMP JUMPDEST SWAP2 POP POP SWAP3 SWAP2 POP POP JUMP JUMPDEST PUSH1 0x0 PUSH2 0xC5 DUP3 PUSH2 0xCC JUMP JUMPDEST SWAP1 POP SWAP2 SWAP1 POP JUMP JUMPDEST PUSH1 0x0 PUSH20 0xFFFFFFFFFFFFFFFFFFFFFFFFFFFFFFFFFFFFFFFF DUP3 AND SWAP1 POP SWAP2 SWAP1 POP JUMP JUMPDEST PUSH1 0x0 DUP1 REVERT JUMPDEST PUSH2 0xFA DUP2 PUSH2 0xBA JUMP JUMPDEST DUP2 EQ PUSH2 0x105 JUMPI PUSH1 0x0 DUP1 REVERT JUMPDEST POP JUMP JUMPDEST PUSH2 0x298 DUP1 PUSH2 0x117 PUSH1 0x0 CODECOPY PUSH1 0x0 RETURN INVALID PUSH1 0x80 PUSH1 0x40 MSTORE CALLVALUE DUP1 ISZERO PUSH2 0x10 JUMPI PUSH1 0x0 DUP1 REVERT JUMPDEST POP PUSH1 0x4 CALLDATASIZE LT PUSH2 0x2B JUMPI PUSH1 0x0 CALLDATALOAD PUSH1 0xE0 SHR DUP1 PUSH4 0x8E15F473 EQ PUSH2 0x30 JUMPI JUMPDEST PUSH1 0x0 DUP1 REVERT JUMPDEST PUSH2 0x38 PUSH2 0x4E JUMP JUMPDEST PUSH1 0x40 MLOAD PUSH2 0x45 SWAP2 SWAP1 PUSH2 0x1D3 JUMP JUMPDEST PUSH1 0x40 MLOAD DUP1 SWAP2 SUB SWAP1 RETURN JUMPDEST PUSH1 0x0 DUP1 PUSH1 0x0 DUP1 PUSH1 0x0 DUP1 PUSH1 0x0 DUP1 SLOAD SWAP1 PUSH2 0x100 EXP SWAP1 DIV PUSH20 0xFFFFFFFFFFFFFFFFFFFFFFFFFFFFFFFFFFFFFFFF AND PUSH20 0xFFFFFFFFFFFFFFFFFFFFFFFFFFFFFFFFFFFFFFFF AND PUSH4 0xFEAF968C PUSH1 0x40 MLOAD DUP2 PUSH4 0xFFFFFFFF AND PUSH1 0xE0 SHL DUP2 MSTORE PUSH1 0x4 ADD PUSH1 0xA0 PUSH1 0x40 MLOAD DUP1 DUP4 SUB DUP2 DUP7 DUP1 EXTCODESIZE ISZERO DUP1 ISZERO PUSH2 0xBD JUMPI PUSH1 0x0 DUP1 REVERT JUMPDEST POP GAS STATICCALL ISZERO DUP1 ISZERO PUSH2 0xD1 JUMPI RETURNDATASIZE PUSH1 0x0 DUP1 RETURNDATACOPY RETURNDATASIZE PUSH1 0x0 REVERT JUMPDEST POP POP POP POP PUSH1 0x40 MLOAD RETURNDATASIZE PUSH1 0x1F NOT PUSH1 0x1F DUP3 ADD AND DUP3 ADD DUP1 PUSH1 0x40 MSTORE POP DUP2 ADD SWAP1 PUSH2 0xF5 SWAP2 SWAP1 PUSH2 0x149 JUMP JUMPDEST SWAP5 POP SWAP5 POP SWAP5 POP SWAP5 POP SWAP5 POP DUP4 SWAP6 POP POP POP POP POP POP SWAP1 JUMP JUMPDEST PUSH1 0x0 DUP2 MLOAD SWAP1 POP PUSH2 0x119 DUP2 PUSH2 0x21D JUMP JUMPDEST SWAP3 SWAP2 POP POP JUMP JUMPDEST PUSH1 0x0 DUP2 MLOAD SWAP1 POP PUSH2 0x12E DUP2 PUSH2 0x234 JUMP JUMPDEST SWAP3 SWAP2 POP POP JUMP JUMPDEST PUSH1 0x0 DUP2 MLOAD SWAP1 POP PUSH2 0x143 DUP2 PUSH2 0x24B JUMP JUMPDEST SWAP3 SWAP2 POP POP JUMP JUMPDEST PUSH1 0x0 DUP1 PUSH1 0x0 DUP1 PUSH1 0x0 PUSH1 0xA0 DUP7 DUP9 SUB SLT ISZERO PUSH2 0x165 JUMPI PUSH2 0x164 PUSH2 0x218 JUMP JUMPDEST JUMPDEST PUSH1 0x0 PUSH2 0x173 DUP9 DUP3 DUP10 ADD PUSH2 0x134 JUMP JUMPDEST SWAP6 POP POP PUSH1 0x20 PUSH2 0x184 DUP9 DUP3 DUP10 ADD PUSH2 0x10A JUMP JUMPDEST SWAP5 POP POP PUSH1 0x40 PUSH2 0x195 DUP9 DUP3 DUP10 ADD PUSH2 0x11F JUMP JUMPDEST SWAP4 POP POP PUSH1 0x60 PUSH2 0x1A6 DUP9 DUP3 DUP10 ADD PUSH2 0x11F JUMP JUMPDEST SWAP3 POP POP PUSH1 0x80 PUSH2 0x1B7 DUP9 DUP3 DUP10 ADD PUSH2 0x134 JUMP JUMPDEST SWAP2 POP POP SWAP3 SWAP6 POP SWAP3 SWAP6 SWAP1 SWAP4 POP JUMP JUMPDEST PUSH2 0x1CD DUP2 PUSH2 0x1EE JUMP JUMPDEST DUP3 MSTORE POP POP JUMP JUMPDEST PUSH1 0x0 PUSH1 0x20 DUP3 ADD SWAP1 POP PUSH2 0x1E8 PUSH1 0x0 DUP4 ADD DUP5 PUSH2 0x1C4 JUMP JUMPDEST SWAP3 SWAP2 POP POP JUMP JUMPDEST PUSH1 0x0 DUP2 SWAP1 POP SWAP2 SWAP1 POP JUMP JUMPDEST PUSH1 0x0 DUP2 SWAP1 POP SWAP2 SWAP1 POP JUMP JUMPDEST PUSH1 0x0 PUSH10 0xFFFFFFFFFFFFFFFFFFFF DUP3 AND SWAP1 POP SWAP2 SWAP1 POP JUMP JUMPDEST PUSH1 0x0 DUP1 REVERT JUMPDEST PUSH2 0x226 DUP2 PUSH2 0x1EE JUMP JUMPDEST DUP2 EQ PUSH2 0x231 JUMPI PUSH1 0x0 DUP1 REVERT JUMPDEST POP JUMP JUMPDEST PUSH2 0x23D DUP2 PUSH2 0x1F8 JUMP JUMPDEST DUP2 EQ PUSH2 0x248 JUMPI PUSH1 0x0 DUP1 REVERT JUMPDEST POP JUMP JUMPDEST PUSH2 0x254 DUP2 PUSH2 0x202 JUMP JUMPDEST DUP2 EQ PUSH2 0x25F JUMPI PUSH1 0x0 DUP1 REVERT JUMPDEST POP JUMP INVALID LOG2 PUSH5 0x6970667358 0x22 SLT KECCAK256 DUP10 DUP10 0xD 0xBC PUSH23 0xF1FA4FE47B093DE8C4D1F584132F4E3353B94ECCF50AA0 0x2B SMOD 0xB5 CALLDATACOPY PUSH5 0x736F6C6343 STOP ADDMOD SMOD STOP CALLER LOG2 PUSH5 0x6970667358 0x22 SLT KECCAK256 0xF8 PUSH17 0x42072D0B22DD4730F768ED730A6641CA2C PUSH25 0x79CF99002E97455B0620A6E164736F6C634300080700336080 PUSH1 0x40 MSTORE CALLVALUE DUP1 ISZERO PUSH2 0x10 JUMPI PUSH1 0x0 DUP1 REVERT JUMPDEST POP PUSH1 0x40 MLOAD PUSH2 0x3AF CODESIZE SUB DUP1 PUSH2 0x3AF DUP4 CODECOPY DUP2 DUP2 ADD PUSH1 0x40 MSTORE DUP2 ADD SWAP1 PUSH2 0x32 SWAP2 SWAP1 PUSH2 0x8D JUMP JUMPDEST DUP1 PUSH1 0x0 DUP1 PUSH2 0x100 EXP DUP2 SLOAD DUP2 PUSH20 0xFFFFFFFFFFFFFFFFFFFFFFFFFFFFFFFFFFFFFFFF MUL NOT AND SWAP1 DUP4 PUSH20 0xFFFFFFFFFFFFFFFFFFFFFFFFFFFFFFFFFFFFFFFF AND MUL OR SWAP1 SSTORE POP POP PUSH2 0x108 JUMP JUMPDEST PUSH1 0x0 DUP2 MLOAD SWAP1 POP PUSH2 0x87 DUP2 PUSH2 0xF1 JUMP JUMPDEST SWAP3 SWAP2 POP POP JUMP JUMPDEST PUSH1 0x0 PUSH1 0x20 DUP3 DUP5 SUB SLT ISZERO PUSH2 0xA3 JUMPI PUSH2 0xA2 PUSH2 0xEC JUMP JUMPDEST JUMPDEST PUSH1 0x0 PUSH2 0xB1 DUP5 DUP3 DUP6 ADD PUSH2 0x78 JUMP JUMPDEST SWAP2 POP POP SWAP3 SWAP2 POP POP JUMP JUMPDEST PUSH1 0x0 PUSH2 0xC5 DUP3 PUSH2 0xCC JUMP JUMPDEST SWAP1 POP SWAP2 SWAP1 POP JUMP JUMPDEST PUSH1 0x0 PUSH20 0xFFFFFFFFFFFFFFFFFFFFFFFFFFFFFFFFFFFFFFFF DUP3 AND SWAP1 POP SWAP2 SWAP1 POP JUMP JUMPDEST PUSH1 0x0 DUP1 REVERT JUMPDEST PUSH2 0xFA DUP2 PUSH2 0xBA JUMP JUMPDEST DUP2 EQ PUSH2 0x105 JUMPI PUSH1 0x0 DUP1 REVERT JUMPDEST POP JUMP JUMPDEST PUSH2 0x298 DUP1 PUSH2 0x117 PUSH1 0x0 CODECOPY PUSH1 0x0 RETURN INVALID PUSH1 0x80 PUSH1 0x40 MSTORE CALLVALUE DUP1 ISZERO PUSH2 0x10 JUMPI PUSH1 0x0 DUP1 REVERT JUMPDEST POP PUSH1 0x4 CALLDATASIZE LT PUSH2 0x2B JUMPI PUSH1 0x0 CALLDATALOAD PUSH1 0xE0 SHR DUP1 PUSH4 0x8E15F473 EQ PUSH2 0x30 JUMPI JUMPDEST PUSH1 0x0 DUP1 REVERT JUMPDEST PUSH2 0x38 PUSH2 0x4E JUMP JUMPDEST PUSH1 0x40 MLOAD PUSH2 0x45 SWAP2 SWAP1 PUSH2 0x1D3 JUMP JUMPDEST PUSH1 0x40 MLOAD DUP1 SWAP2 SUB SWAP1 RETURN JUMPDEST PUSH1 0x0 DUP1 PUSH1 0x0 DUP1 PUSH1 0x0 DUP1 PUSH1 0x0 DUP1 SLOAD SWAP1 PUSH2 0x100 EXP SWAP1 DIV PUSH20 0xFFFFFFFFFFFFFFFFFFFFFFFFFFFFFFFFFFFFFFFF AND PUSH20 0xFFFFFFFFFFFFFFFFFFFFFFFFFFFFFFFFFFFFFFFF AND PUSH4 0xFEAF968C PUSH1 0x40 MLOAD DUP2 PUSH4 0xFFFFFFFF AND PUSH1 0xE0 SHL DUP2 MSTORE PUSH1 0x4 ADD PUSH1 0xA0 PUSH1 0x40 MLOAD DUP1 DUP4 SUB DUP2 DUP7 DUP1 EXTCODESIZE ISZERO DUP1 ISZERO PUSH2 0xBD JUMPI PUSH1 0x0 DUP1 REVERT JUMPDEST POP GAS STATICCALL ISZERO DUP1 ISZERO PUSH2 0xD1 JUMPI RETURNDATASIZE PUSH1 0x0 DUP1 RETURNDATACOPY RETURNDATASIZE PUSH1 0x0 REVERT JUMPDEST POP POP POP POP PUSH1 0x40 MLOAD RETURNDATASIZE PUSH1 0x1F NOT PUSH1 0x1F DUP3 ADD AND DUP3 ADD DUP1 PUSH1 0x40 MSTORE POP DUP2 ADD SWAP1 PUSH2 0xF5 SWAP2 SWAP1 PUSH2 0x149 JUMP JUMPDEST SWAP5 POP SWAP5 POP SWAP5 POP SWAP5 POP SWAP5 POP DUP4 SWAP6 POP POP POP POP POP POP SWAP1 JUMP JUMPDEST PUSH1 0x0 DUP2 MLOAD SWAP1 POP PUSH2 0x119 DUP2 PUSH2 0x21D JUMP JUMPDEST SWAP3 SWAP2 POP POP JUMP JUMPDEST PUSH1 0x0 DUP2 MLOAD SWAP1 POP PUSH2 0x12E DUP2 PUSH2 0x234 JUMP JUMPDEST SWAP3 SWAP2 POP POP JUMP JUMPDEST PUSH1 0x0 DUP2 MLOAD SWAP1 POP PUSH2 0x143 DUP2 PUSH2 0x24B JUMP JUMPDEST SWAP3 SWAP2 POP POP JUMP JUMPDEST PUSH1 0x0 DUP1 PUSH1 0x0 DUP1 PUSH1 0x0 PUSH1 0xA0 DUP7 DUP9 SUB SLT ISZERO PUSH2 0x165 JUMPI PUSH2 0x164 PUSH2 0x218 JUMP JUMPDEST JUMPDEST PUSH1 0x0 PUSH2 0x173 DUP9 DUP3 DUP10 ADD PUSH2 0x134 JUMP JUMPDEST SWAP6 POP POP PUSH1 0x20 PUSH2 0x184 DUP9 DUP3 DUP10 ADD PUSH2 0x10A JUMP JUMPDEST SWAP5 POP POP PUSH1 0x40 PUSH2 0x195 DUP9 DUP3 DUP10 ADD PUSH2 0x11F JUMP JUMPDEST SWAP4 POP POP PUSH1 0x60 PUSH2 0x1A6 DUP9 DUP3 DUP10 ADD PUSH2 0x11F JUMP JUMPDEST SWAP3 POP POP PUSH1 0x80 PUSH2 0x1B7 DUP9 DUP3 DUP10 ADD PUSH2 0x134 JUMP JUMPDEST SWAP2 POP POP SWAP3 SWAP6 POP SWAP3 SWAP6 SWAP1 SWAP4 POP JUMP JUMPDEST PUSH2 0x1CD DUP2 PUSH2 0x1EE JUMP JUMPDEST DUP3 MSTORE POP POP JUMP JUMPDEST PUSH1 0x0 PUSH1 0x20 DUP3 ADD SWAP1 POP PUSH2 0x1E8 PUSH1 0x0 DUP4 ADD DUP5 PUSH2 0x1C4 JUMP JUMPDEST SWAP3 SWAP2 POP POP JUMP JUMPDEST PUSH1 0x0 DUP2 SWAP1 POP SWAP2 SWAP1 POP JUMP JUMPDEST PUSH1 0x0 DUP2 SWAP1 POP SWAP2 SWAP1 POP JUMP JUMPDEST PUSH1 0x0 PUSH10 0xFFFFFFFFFFFFFFFFFFFF DUP3 AND SWAP1 POP SWAP2 SWAP1 POP JUMP JUMPDEST PUSH1 0x0 DUP1 REVERT JUMPDEST PUSH2 0x226 DUP2 PUSH2 0x1EE JUMP JUMPDEST DUP2 EQ PUSH2 0x231 JUMPI PUSH1 0x0 DUP1 REVERT JUMPDEST POP JUMP JUMPDEST PUSH2 0x23D DUP2 PUSH2 0x1F8 JUMP JUMPDEST DUP2 EQ PUSH2 0x248 JUMPI PUSH1 0x0 DUP1 REVERT JUMPDEST POP JUMP JUMPDEST PUSH2 0x254 DUP2 PUSH2 0x202 JUMP JUMPDEST DUP2 EQ PUSH2 0x25F JUMPI PUSH1 0x0 DUP1 REVERT JUMPDEST POP JUMP INVALID LOG2 PUSH5 0x6970667358 0x22 SLT KECCAK256 DUP10 DUP10 0xD 0xBC PUSH23 0xF1FA4FE47B093DE8C4D1F584132F4E3353B94ECCF50AA0 0x2B SMOD 0xB5 CALLDATACOPY PUSH5 0x736F6C6343 STOP ADDMOD SMOD STOP CALLER "
		},
		"gasEstimates": {
			"creation": {
				"codeDepositCost": "3330000",
				"executionCost": "infinite",
				"totalCost": "infinite"
			},
			"external": {
				"AddProduct(string,int256)": "infinite",
				"Buy(string)": "infinite",
				"BuySignService(string,uint256)": "infinite",
				"CashierClosed()": "2538",
				"ChangeProductPrice(string,int256)": "infinite",
				"ChangeVolatilityBarrier(uint256)": "24827",
				"CloseCashier()": "26674",
				"GetMaticUsd()": "infinite",
				"GetProductPriceInWei(string)": "infinite",
				"Prices(string)": "infinite",
				"RemoveProduct(string)": "infinite",
				"TransferFunds()": "infinite",
				"VolatilityBarrierPercentage()": "2453",
				"_register(bytes32,string,address)": "infinite",
				"addDocument(string,string)": "infinite",
				"countSigns(address)": "2925",
				"documents(uint256)": "infinite",
				"getDocSignedByUsers()": "infinite",
				"getSignatures(uint256)": "infinite",
				"initialize()": "infinite",
				"owner()": "2589",
				"registerOnBehalfOf(bytes32,string,string,address,uint8,bytes32,bytes32)": "infinite",
				"renounceOwnership()": "30485",
				"signAllowance(address)": "2859",
				"transferOwnership(address)": "30811",
				"users(address,uint256)": "infinite"
			}
		},
		"methodIdentifiers": {
			"AddProduct(string,int256)": "db6c613b",
			"Buy(string)": "353b106f",
			"BuySignService(string,uint256)": "280b8511",
			"CashierClosed()": "6ce34661",
			"ChangeProductPrice(string,int256)": "e89704c7",
			"ChangeVolatilityBarrier(uint256)": "e083c576",
			"CloseCashier()": "7fcdef0d",
			"GetMaticUsd()": "e5269c40",
			"GetProductPriceInWei(string)": "0eb89428",
			"Prices(string)": "3febce85",
			"RemoveProduct(string)": "d7a7ca6f",
			"TransferFunds()": "0cc20050",
			"VolatilityBarrierPercentage()": "0c1c5dd2",
			"_register(bytes32,string,address)": "6e87fc34",
			"addDocument(string,string)": "4d2b1978",
			"countSigns(address)": "d3cb5e28",
			"documents(uint256)": "c2ed2b05",
			"getDocSignedByUsers()": "419ad06d",
			"getSignatures(uint256)": "f4eccb8f",
			"initialize()": "8129fc1c",
			"owner()": "8da5cb5b",
			"registerOnBehalfOf(bytes32,string,string,address,uint8,bytes32,bytes32)": "ed6449ff",
			"renounceOwnership()": "715018a6",
			"signAllowance(address)": "69614847",
			"transferOwnership(address)": "f2fde38b",
			"users(address,uint256)": "54a02f9e"
		}
	},
	"abi": [
		{
			"inputs": [],
			"stateMutability": "nonpayable",
			"type": "constructor"
		},
		{
			"anonymous": false,
			"inputs": [
				{
					"indexed": false,
					"internalType": "address",
					"name": "addr",
					"type": "address"
				},
				{
					"indexed": false,
					"internalType": "string",
					"name": "product",
					"type": "string"
				},
				{
					"indexed": false,
					"internalType": "uint256",
					"name": "docsOrdered",
					"type": "uint256"
				}
			],
			"name": "Bought",
			"type": "event"
		},
		{
			"anonymous": false,
			"inputs": [
				{
					"indexed": true,
					"internalType": "address",
					"name": "previousOwner",
					"type": "address"
				},
				{
					"indexed": true,
					"internalType": "address",
					"name": "newOwner",
					"type": "address"
				}
			],
			"name": "OwnershipTransferred",
			"type": "event"
		},
		{
			"anonymous": false,
			"inputs": [
				{
					"indexed": false,
					"internalType": "string",
					"name": "name",
					"type": "string"
				},
				{
					"indexed": false,
					"internalType": "int256",
					"name": "price",
					"type": "int256"
				}
			],
			"name": "ProductAdded",
			"type": "event"
		},
		{
			"anonymous": false,
			"inputs": [
				{
					"indexed": false,
					"internalType": "string",
					"name": "name",
					"type": "string"
				},
				{
					"indexed": false,
					"internalType": "int256",
					"name": "price",
					"type": "int256"
				}
			],
			"name": "ProductPriceChanged",
			"type": "event"
		},
		{
			"anonymous": false,
			"inputs": [
				{
					"indexed": false,
					"internalType": "string",
					"name": "name",
					"type": "string"
				}
			],
			"name": "ProductRemoved",
			"type": "event"
		},
		{
			"anonymous": false,
			"inputs": [
				{
					"indexed": false,
					"internalType": "bytes32",
					"name": "hash",
					"type": "bytes32"
				},
				{
					"indexed": false,
					"internalType": "string",
					"name": "description",
					"type": "string"
				},
				{
					"indexed": false,
					"internalType": "address",
					"name": "signer",
					"type": "address"
				}
			],
			"name": "Registerd",
			"type": "event"
		},
		{
			"anonymous": false,
			"inputs": [
				{
					"indexed": false,
					"internalType": "address",
					"name": "to",
					"type": "address"
				},
				{
					"indexed": false,
					"internalType": "uint256",
					"name": "amount",
					"type": "uint256"
				},
				{
					"indexed": false,
					"internalType": "bool",
					"name": "sent",
					"type": "bool"
				},
				{
					"indexed": false,
					"internalType": "bytes",
					"name": "callData",
					"type": "bytes"
				}
			],
			"name": "Transfer",
			"type": "event"
		},
		{
			"inputs": [
				{
					"internalType": "string",
					"name": "name",
					"type": "string"
				},
				{
					"internalType": "int256",
					"name": "price",
					"type": "int256"
				}
			],
			"name": "AddProduct",
			"outputs": [],
			"stateMutability": "nonpayable",
			"type": "function"
		},
		{
			"inputs": [
				{
					"internalType": "string",
					"name": "name",
					"type": "string"
				}
			],
			"name": "Buy",
			"outputs": [],
			"stateMutability": "payable",
			"type": "function"
		},
		{
			"inputs": [
				{
					"internalType": "string",
					"name": "name",
					"type": "string"
				},
				{
					"internalType": "uint256",
					"name": "docsOrdered",
					"type": "uint256"
				}
			],
			"name": "BuySignService",
			"outputs": [],
			"stateMutability": "payable",
			"type": "function"
		},
		{
			"inputs": [],
			"name": "CashierClosed",
			"outputs": [
				{
					"internalType": "bool",
					"name": "",
					"type": "bool"
				}
			],
			"stateMutability": "view",
			"type": "function"
		},
		{
			"inputs": [
				{
					"internalType": "string",
					"name": "name",
					"type": "string"
				},
				{
					"internalType": "int256",
					"name": "price",
					"type": "int256"
				}
			],
			"name": "ChangeProductPrice",
			"outputs": [],
			"stateMutability": "nonpayable",
			"type": "function"
		},
		{
			"inputs": [
				{
					"internalType": "uint256",
					"name": "value",
					"type": "uint256"
				}
			],
			"name": "ChangeVolatilityBarrier",
			"outputs": [],
			"stateMutability": "nonpayable",
			"type": "function"
		},
		{
			"inputs": [],
			"name": "CloseCashier",
			"outputs": [],
			"stateMutability": "nonpayable",
			"type": "function"
		},
		{
			"inputs": [],
			"name": "GetMaticUsd",
			"outputs": [
				{
					"internalType": "int256",
					"name": "",
					"type": "int256"
				}
			],
			"stateMutability": "view",
			"type": "function"
		},
		{
			"inputs": [
				{
					"internalType": "string",
					"name": "name",
					"type": "string"
				}
			],
			"name": "GetProductPriceInWei",
			"outputs": [
				{
					"internalType": "int256",
					"name": "",
					"type": "int256"
				}
			],
			"stateMutability": "view",
			"type": "function"
		},
		{
			"inputs": [
				{
					"internalType": "string",
					"name": "",
					"type": "string"
				}
			],
			"name": "Prices",
			"outputs": [
				{
					"internalType": "int256",
					"name": "",
					"type": "int256"
				}
			],
			"stateMutability": "view",
			"type": "function"
		},
		{
			"inputs": [
				{
					"internalType": "string",
					"name": "name",
					"type": "string"
				}
			],
			"name": "RemoveProduct",
			"outputs": [],
			"stateMutability": "nonpayable",
			"type": "function"
		},
		{
			"inputs": [],
			"name": "TransferFunds",
			"outputs": [],
			"stateMutability": "nonpayable",
			"type": "function"
		},
		{
			"inputs": [],
			"name": "VolatilityBarrierPercentage",
			"outputs": [
				{
					"internalType": "uint256",
					"name": "",
					"type": "uint256"
				}
			],
			"stateMutability": "view",
			"type": "function"
		},
		{
			"inputs": [
				{
					"internalType": "bytes32",
					"name": "hash",
					"type": "bytes32"
				},
				{
					"internalType": "string",
					"name": "id",
					"type": "string"
				},
				{
					"internalType": "address",
					"name": "signer",
					"type": "address"
				}
			],
			"name": "_register",
			"outputs": [],
			"stateMutability": "nonpayable",
			"type": "function"
		},
		{
			"inputs": [
				{
					"internalType": "string",
					"name": "_id",
					"type": "string"
				},
				{
					"internalType": "string",
					"name": "_cid",
					"type": "string"
				}
			],
			"name": "addDocument",
			"outputs": [],
			"stateMutability": "nonpayable",
			"type": "function"
		},
		{
			"inputs": [
				{
					"internalType": "address",
					"name": "",
					"type": "address"
				}
			],
			"name": "countSigns",
			"outputs": [
				{
					"internalType": "uint256",
					"name": "",
					"type": "uint256"
				}
			],
			"stateMutability": "view",
			"type": "function"
		},
		{
			"inputs": [
				{
					"internalType": "uint256",
					"name": "",
					"type": "uint256"
				}
			],
			"name": "documents",
			"outputs": [
				{
					"internalType": "uint256",
					"name": "timestamp",
					"type": "uint256"
				},
				{
					"internalType": "string",
					"name": "ipfs_hash",
					"type": "string"
				}
			],
			"stateMutability": "view",
			"type": "function"
		},
		{
			"inputs": [],
			"name": "getDocSignedByUsers",
			"outputs": [
				{
					"components": [
						{
							"internalType": "string",
							"name": "id",
							"type": "string"
						},
						{
							"internalType": "string",
							"name": "ipfs_hash",
							"type": "string"
						},
						{
							"internalType": "uint256",
							"name": "timestamp",
							"type": "uint256"
						}
					],
					"internalType": "struct BuySignedIpfsCid.SignaturesByUser[]",
					"name": "",
					"type": "tuple[]"
				}
			],
			"stateMutability": "view",
			"type": "function"
		},
		{
			"inputs": [
				{
					"internalType": "uint256",
					"name": "num",
					"type": "uint256"
				}
			],
			"name": "getSignatures",
			"outputs": [
				{
					"components": [
						{
							"internalType": "uint256",
							"name": "timestamp",
							"type": "uint256"
						},
						{
							"internalType": "string",
							"name": "ipfs_hash",
							"type": "string"
						},
						{
							"internalType": "address[]",
							"name": "signatures",
							"type": "address[]"
						}
					],
					"internalType": "struct BuySignedIpfsCid.Document",
					"name": "",
					"type": "tuple"
				}
			],
			"stateMutability": "view",
			"type": "function"
		},
		{
			"inputs": [],
			"name": "initialize",
			"outputs": [],
			"stateMutability": "nonpayable",
			"type": "function"
		},
		{
			"inputs": [],
			"name": "owner",
			"outputs": [
				{
					"internalType": "address",
					"name": "",
					"type": "address"
				}
			],
			"stateMutability": "view",
			"type": "function"
		},
		{
			"inputs": [
				{
					"internalType": "bytes32",
					"name": "hash",
					"type": "bytes32"
				},
				{
					"internalType": "string",
					"name": "id",
					"type": "string"
				},
				{
					"internalType": "string",
					"name": "cid",
					"type": "string"
				},
				{
					"internalType": "address",
					"name": "signer",
					"type": "address"
				},
				{
					"internalType": "uint8",
					"name": "v",
					"type": "uint8"
				},
				{
					"internalType": "bytes32",
					"name": "r",
					"type": "bytes32"
				},
				{
					"internalType": "bytes32",
					"name": "s",
					"type": "bytes32"
				}
			],
			"name": "registerOnBehalfOf",
			"outputs": [],
			"stateMutability": "nonpayable",
			"type": "function"
		},
		{
			"inputs": [],
			"name": "renounceOwnership",
			"outputs": [],
			"stateMutability": "nonpayable",
			"type": "function"
		},
		{
			"inputs": [
				{
					"internalType": "address",
					"name": "",
					"type": "address"
				}
			],
			"name": "signAllowance",
			"outputs": [
				{
					"internalType": "uint256",
					"name": "",
					"type": "uint256"
				}
			],
			"stateMutability": "view",
			"type": "function"
		},
		{
			"inputs": [
				{
					"internalType": "address",
					"name": "newOwner",
					"type": "address"
				}
			],
			"name": "transferOwnership",
			"outputs": [],
			"stateMutability": "nonpayable",
			"type": "function"
		},
		{
			"inputs": [
				{
					"internalType": "address",
					"name": "",
					"type": "address"
				},
				{
					"internalType": "uint256",
					"name": "",
					"type": "uint256"
				}
			],
			"name": "users",
			"outputs": [
				{
					"internalType": "string",
					"name": "id",
					"type": "string"
				},
				{
					"internalType": "string",
					"name": "ipfs_hash",
					"type": "string"
				},
				{
					"internalType": "uint256",
					"name": "timestamp",
					"type": "uint256"
				}
			],
			"stateMutability": "view",
			"type": "function"
		}
	]
}